:020000040800F2
:1000000000130020E9010008F1010008F3010008D5
:10001000F5010008F7010008F901000800000000E0
:10002000000000000000000000000000FB010008CC
:10003000FD01000800000000FF0100086513000832
:10004000030200080302000803020008030200087C
:10005000030200080302000803020008030200086C
:10006000030200080302000803020008030200085C
:10007000030200080302000803020008030200084C
:10008000030200080302000803020008030200083C
:10009000030200080302000803020008030200082C
:1000A000030200080302000803020008030200081C
:1000B00003020008151600080302000803020008E6
:1000C00003020008030200080302000803020008FC
:1000D000030200085D1C00086D1C00087D1C000860
:1000E00003020008030200080302000803020008DC
:1000F00003020008030200080302000803020008CC
:1001000003020008030200080302000803020008BB
:1001100003020008030200080302000803020008AB
:10012000030200080302000803020008030200089B
:1001300000F002F800F048F80AA090E8000C8244B1
:100140008344AAF10107DA4501D100F03DF8AFF28E
:10015000090EBAE80F0013F0010F18BFFB1A43F0A5
:1001600001031847E0690000006A0000103A24BF4C
:1001700078C878C1FAD8520724BF30C830C144BF0C
:1001800004680C607047000000230024002500264E
:10019000103A28BF78C1FBD8520728BF30C148BFEA
:1001A0000B607047642900F0B180002070471FB5D4
:1001B0009DE8030000F0B4FA00F080FA1FBD10B50E
:1001C000002000F0B4FB10BD00F02EFC1146FFF73C
:1001D000EEFF04F0ABF800F04CFC03B4FFF7EFFFC8
:1001E00003BC00F01BFC0000094880470948004799
:1001F000FEE7FEE7FEE7FEE7FEE7FEE7FEE7FEE7D7
:10020000FEE7FEE704480549054A064B7047000033
:100210007513000831010008000D002000130020B4
:10022000000F0020000F002070B50D460646041F89
:1002300000F056FAD0F800C0C5B1E6B105F10B00E8
:1002400020F00703AB423CBF002070BD20689842FD
:1002500038BFDCF8042013D3C11A08292FD3E018C3
:1002600040F8041B236000F0B9FA28E0304600F0A3
:10027000B5FA002070BD2846BDE8704000F07FBA96
:10028000002A18BFA2423CBF94465268F8D3011915
:10029000914216D111680844984212D3C11A082914
:1002A0003CBF2060506808D35168E0184160216865
:1002B00012681144C91A01602360CCF80400201DA3
:1002C00070BD181F00F05BFA050007D021680A1FF7
:1002D000211D00F096F9201D00F080FA284670BD1F
:1002E0000FB41CB5084B06AA7B44694600900598DC
:1002F00000F005FB04460020694600F013FB204691
:100300001CBC5DF814FB0000390600002DE9F0412B
:100310000646002410687529314616A510D0AFF3A3
:100320000080002802DA404213A507E031688A07FE
:1003300001D512A502E0490704D511A5012401E069
:10034000AFF3008000210A2206F1240709E0B0FB88
:10035000F2FCB0FBF2F302FB1C003030785418467C
:10036000491C0028F3D123462A463046BDE8F04117
:1003700000F066BA000000002D0000002B00000015
:10038000200000002DE9F05F894604464FF0000A86
:10039000DFF874B1FB44C0F820A02046E16888472C
:1003A000002874D0252806D0D4E901219047206A7E
:1003B000401C2062F1E700265F462046E16888473E
:1003C0002028054607DB312D05D2781910F8200CBE
:1003D00008B10643F1E7B00701D526F00406C4F8DA
:1003E0001CA00027C4F818A02A2D09D0284603F025
:1003F00053FF38B304EB8708303DC8F8185019E0B4
:1004000059F8041B204604EB87029161E168884794
:10041000012F054618D1E069002820DA26F02006D1
:100420001DE0D8F8180000EB800005EB40003038E4
:10043000C8F818002046E1688847054603F02CFFFD
:100440000028EED1012F0AD02E2D08D12046E168D8
:1004500088477F1C0546022F46F02006C4DBA069B2
:10046000002803DA404246F00106A061F00701D0FF
:1004700026F010066C2D0BD0682D09D04C2D39D0EC
:100480006A2D35D0742D35D07A2D33D016E038E072
:10049000E1682F4620468847B842054609D16C2FAF
:1004A00026D04FF48060E168064320468847054621
:1004B00004E06C2F1AD04FF4807006430DB3A5F101
:1004C0004100192802D8203546F400664A462946DC
:1004D000204626604E46FFF765FE80B101280BD00E
:1004E000F61D26F0070000F1080956E74020E4E772
:1004F0008020D8E70020D6E706F104094DE728461A
:1005000052E7206ABDE8F09F946200002DE9F041B7
:10051000074615460E46102000F031F904000AD0B7
:100520006760C4E9026500F0DFF8016821600460DB
:100530000020BDE8F0810120FBE710B5431C02E07C
:1005400010F8011B71B18107FAD14FF0013202C8D6
:100550008C1A8C4314EAC211F9D0C01A0A0603D0CF
:10056000C01E10BDC01A10BD0A0401D0801E10BDEF
:100570000902FCD0401E10BD032A40F2308010F06A
:10058000030C00F0158011F8013BBCF1020F62442E
:1005900098BF11F801CB00F8013B38BF11F8013BBF
:1005A000A2F1040298BF00F801CB38BF00F8013B6C
:1005B00011F0030300F02580083AC0F0088051F8DC
:1005C000043B083A51F804CBA0E80810F5E7121DE7
:1005D0005CBF51F8043B40F8043BAFF30080D20706
:1005E00024BF11F8013B11F801CB48BF11F8012BD2
:1005F00024BF00F8013B00F801CB48BF00F8012BF5
:10060000704710B5203AC0F00B80B1E81850203A7E
:10061000A0E81850B1E81850A0E81850BFF4F5AFA2
:100620005FEA027C24BFB1E81850A0E8185044BF2C
:1006300018C918C0BDE810405FEA827C24BF51F899
:10064000043B40F8043B08BF7047D20728BF31F88D
:10065000023B48BF11F8012B28BF20F8023B48BFDE
:1006600000F8012B70474FF0000200B51346944686
:100670009646203922BFA0E80C50A0E80C50B1F1FA
:100680002001BFF4F7AF090728BFA0E80C5048BF0E
:100690000CC05DF804EB890028BF40F8042B08BFAC
:1006A000704748BF20F8022B11F0804F18BF00F8A8
:1006B000012B7047704770477047000070B5064CBB
:1006C0007C44064D7D4403E0206820448047241D7F
:1006D000AC42F9D170BD0000A0640000A06400002D
:1006E00000487047A80C002000487047D80C002034
:1006F000704770477047704738B504460A46002077
:100700006946AFF30080002808BF38BD0246009953
:10071000204600F044F9012038BD012000F05EB908
:10072000F8B5AFF30080054600200C46102000BF4E
:100730000646A819A0420DD9324669460020AFF3FB
:100740000080070008BF00F049F90098A04218BFD8
:100750000546C419FFF7C4FF05600746F01D20F0E9
:1007600007004619284600F013F9B44208BFF8BD47
:10077000A21B31463868BDE8F84000F010B970B5EA
:100780000646FFF7ADFF056806F10B0020F00704F1
:10079000B4429CBF002070BD2B466A68BAB1106895
:1007A000A04210D304F1080188423CBF5068586051
:1007B00007D35168101941601168091B0160586026
:1007C0001460101D70BD13465268002AE7D12146FF
:1007D0002846FFF791FF0028DED170BD70B50446B2
:1007E000051FFFF77DFF0068002C14BF446870BD33
:1007F000002C18BFAC423CBF20466468F8D30168A7
:100800000A18AA4218BF456003D12A680546114458
:10081000016028684119A1421CBF6C6070BD61680D
:10082000696021680844286070BD10B500F0ACF81C
:10083000006810BD10B5044600F0A6F8046010BDB5
:100840002DE9F0470D4699469246044600F12408EA
:100850000168880604D5E06921F01001216000E0FC
:100860000120A84201DD471B00E00027A1697A1999
:1008700002EB0900081AA0612078C00602D42046C5
:10088000AFF30080002608E0D4E901211AF8060041
:100890009047206A401C761C20624E45F4DB20788D
:1008A000C0060AD52046AFF3008006E0D4E9012156
:1008B00030209047206A401C2062381EA7F10107B3
:1008C000F4DC07E0D4E9012118F805009047206A1C
:1008D000401C2062281EA5F10105F3DC2046AFF381
:1008E00000802078000602D50220BDE8F0870120B4
:1008F000FBE7000001694A1C02610878704700B5F7
:100900008FB0CDE901310021059105497944CDE948
:10091000031011466846FFF735FD0FB000BD00001B
:10092000E5FFFFFF0A6802F8010B0A6070472DE936
:10093000F0410646FFF7D8FE8046454613E016B163
:10094000E068B0420ED120682860D4E90101D8F8EF
:10095000007088472046FFF741FFD8F80000B842F2
:10096000EBD100E025462C68002CE8D1BDE8F081F1
:1009700010B500F03BF8BDE8104000F02AB80000C8
:1009800000487047A00C002000487047A00C0020D1
:1009900000210160C0E90110704710207047034634
:1009A00040688C46002818BF88423CBF0346406818
:1009B000F8D318681844884207D00CF1030020F0DF
:1009C0000700001D411A521A0146081D0A60FFF770
:1009D00005BF002801D000F021B8704710B500F025
:1009E0006BF8BDE81040FFF7F4BF000010B5002120
:1009F00002A000F047F8012010BD00005349475005
:100A000056464E3A2050757265207669727475614B
:100A10006C20666E2063616C6C656400014918206F
:100A2000ABBEFEE7260002007546FFF7A9FFAE4603
:100A300005006946534620F00700854618B020B5EA
:100A4000FFF7E0FBBDE820404FF000064FF0000745
:100A50004FF000084FF0000B21F00701AC46ACE866
:100A6000C009ACE8C009ACE8C009ACE8C0098D46D3
:100A7000704710B50446AFF300802046BDE8104033
:100A8000FFF7ABBB70B505460C460A2000E06D1CB5
:100A900000F03AF835B128780028F8D102E0641C5B
:100AA00000F032F814B120780028F8D1BDE8704089
:100AB0000A2000F029B8000010B5012805D0002157
:100AC00003A0FFF7DFFF012010BD09A1F8E7000038
:100AD00053494752544D454D3A204F7574206F6627
:100AE0002068656170206D656D6F7279000000008F
:100AF0003A2048656170206D656D6F727920636F73
:100B0000727275707465640008B569468DF80000EE
:100B10000320ABBE08BD704721B1826842F00102DC
:100B2000826003E0826822F001028260704721B196
:100B3000826842F48072826003E0826822F48072EC
:100B400082607047014600208A6802F004020AB100
:100B5000012000E000207047014600208A6802F072
:100B600008020AB1012000E00020704730B50246BB
:100B70000020002350680F4C20400D790C6844EA97
:100B800005242043506090680B4C2040D1E902546A
:100B90002C434D7944EA450420439060D06A20F408
:100BA00070000C7C641EE4B2234340EA0350D06220
:100BB00030BD0000FFFEF0FFFDF7F1FFF0B5044689
:100BC0000D4600200021092D11DDE068A5F10A067F
:100BD00006EB4607072606FA07F18843A5F10A0641
:100BE00006EB460603FA06F10843E0600CE02069D4
:100BF00005EB4507072606FA07F1884305EB45068E
:100C000003FA06F108432061072A0FDA606B561ECB
:100C100006EB86071F2606FA07F18843561E06EBE9
:100C2000860605FA06F10843606322E00D2A0FDA12
:100C3000206BD61F06EB86071F2606FA07F18843AE
:100C4000D61F06EB860605FA06F10843206310E07E
:100C5000E06AA2F10D0606EB86071F2606FA07F1E9
:100C60008843A2F10D0606EB860605FA06F1084355
:100C7000E062F0BD816841F008018160704721B1F8
:100C8000826842F4A002826003E0826822F4A0023B
:100C900082607047816841F004018160704721B132
:100CA000026842F00102026004E002684FF6FE733F
:100CB0001A4002607047000001684FF6FE72114052
:100CC00001600021016041608160C1604B49884240
:100CD00008D14A490839496841F00F01474A083AA2
:100CE00051608AE045491431884208D143490839A6
:100CF000496841F0F001414A083A51607DE03F49BE
:100D00002831884208D13D490839496841F4706169
:100D10003A4A083A516070E038493C31884208D17B
:100D200036490839496841F47041344A083A5160FB
:100D300063E032495031884208D130490839496866
:100D400041F470212D4A083A516056E02B49643134
:100D5000884208D129490839496841F47001274A75
:100D6000083A516049E025497831884208D1234941
:100D70000839496841F07061204A083A51603CE006
:100D80001F49884206D1011F096841F00F01021F67
:100D9000116032E01A491431884208D11849091FFC
:100DA000096841F0F001164A121F116025E014494C
:100DB0002831884208D11249091F096841F470613D
:100DC0000F4A121F116018E00D493C31884208D1CA
:100DD0000B49091F096841F47041094A121F11604B
:100DE0000BE007495031884207D10549091F0968BE
:100DF00041F47021024A121F11607047080002403E
:100E00000804024010B50022026847F6F0739A43C6
:100E10000C6A8B6823430C6923434C6923438C6918
:100E20002343CC6923434C6A23438C6A23431A43EC
:100E30000260CB6843600B6883604B68C36010BD81
:100E40002DE9F04102460025002600200023002461
:100E5000002791F803C00CF00F0591F803C00CF0C7
:100E6000100CBCF1000F03D091F802C04CEA05054C
:100E700091F800C0BCF1000F31D0146800202BE0C5
:100E80004FF0010C0CFA00F3B1F800C00CEA0306B5
:100E90009E4220D183004FF00F0C0CFA03F7BC43A5
:100EA00005FA03FC4CEA040491F803C0BCF1280FD6
:100EB00006D14FF0010C0CFA00FCC2F814C00AE095
:100EC00091F803C0BCF1480F05D14FF0010C0CFAAA
:100ED00000FCC2F810C0401C0828D1D31460B1F83F
:100EE00000C0BCF1FF0F34DD546800202EE000F19B
:100EF000080C4FF0010808FA0CF3B1F800C00CEA36
:100F000003069E4221D183004FF00F0C0CFA03F729
:100F1000BC4305FA03FC4CEA040491F803C0BCF19D
:100F2000280F05D100F1080C08FA0CF8C2F814805B
:100F300091F803C0BCF1480F07D100F1080C4FF045
:100F4000010808FA0CF8C2F81080401C0828CED31B
:100F50005460BDE8F0810246002093680B400BB15D
:100F6000012000E000207047416170470161704737
:100F70001848806940F00800164988610846806971
:100F800040F0400088611448006820F47000124965
:100F900008600846006840F4401008600E480C30B5
:100FA000006840F020000C490C3108600B480068D4
:100FB00020F47000094908600846006840F44010B9
:100FC000086006480C30006840F0200003490C31EE
:100FD0000860704700100240000C014000180140FA
:100FE0002DE9F0410746884614461D46284600F084
:100FF00033F8C5F1040007FA00F60F20284100EA93
:101000000800064306F00F06E21704EBD262521105
:10101000920002F1E022D2F800212146E31704EB0E
:10102000D3635B11A4EB431C012303FA0CF31A43B3
:101030002046E31704EBD3635B119B0003F1E0232D
:10104000C3F800210348005D40EA06100149085535
:10105000BDE8F08100E400E00146072323EA010235
:101060001202054B18684FF6FF031840034B184354
:101070001043014B186070470CED00E00000FA05CA
:1010800070B5002100230F22C47804B3154C2468E6
:1010900004F4E064C4F5E064210AC1F10403CA4029
:1010A000447804FA03F184781440214309010E4C7A
:1010B0000678A155047804F01F050124AC4005789A
:1010C0006D11AD0005F1E025C5F8004109E0047897
:1010D00004F01F050124AC40044D0678761145F854
:1010E000264070BD0CED00E000E400E080E100E08F
:1010F00001460020034A506820F4404008435060F5
:10110000704700000010024029B1064A52690243AC
:10111000044B5A6104E0034A52698243014B5A610D
:10112000704700000010024029B1064AD26902430C
:10113000044BDA6104E0034AD2698243014BDA616D
:10114000704700000010024029B1064A12690243AC
:10115000044B1A6104E0034A12698243014B1A618D
:10116000704700000010024029B1064A926902430C
:10117000044B9A6104E0034A92698243014B9A61ED
:10118000704700000010024029B1064AD2680243AD
:10119000044BDA6004E0034AD2688243014BDA6010
:1011A000704700000010024030B5002100220024EA
:1011B00000232D4D6D6805F00C0121B1042905D0E7
:1011C000082923D105E0294D056022E0274D05605F
:1011D0001FE0254D6D6805F47012234D6D6805F410
:1011E0008034022505EB92421CB9214D5543056020
:1011F0000BE01D4D6D6805F400351DB11C4D5543C8
:10120000056002E0194D5543056002E0174D056089
:1012100000BF00BF144D6D6805F0F0010909154DC0
:101220006B5C0568DD4045600F4D6D6805F4E0615D
:10123000090A104D6B5C4568DD4085600A4D6D689C
:1012400005F46051C90A0B4D6B5C4568DD40C56013
:10125000054D6D6805F44041890B074D6B5CC56811
:10126000B5FBF3F5056130BD0010024000127A00B5
:1012700000093D00280000203800002010B500F0D3
:1012800001F810BD0CB500200190009033480068B3
:1012900040F480303149086000BF3048006800F4F5
:1012A000003000900198401C0190009818B90198F6
:1012B000B0F5A06FF1D12948006800F4003010B1FA
:1012C0000120009001E0002000900098012843D107
:1012D0002348006840F01000214908600846006873
:1012E00020F0030008600846006840F00200086033
:1012F0001A484068194948600846406848600846EE
:10130000406840F4806048600846406820F47C10E3
:1013100048600846406840F4E810486008460068A5
:1013200040F08070086000BF0C48006800F000705A
:101330000028F9D00948406820F0030007494860B8
:101340000846406840F00200486000BF034840681B
:1013500000F00C000828F9D10CBD0000001002407C
:101360000020024002480068401C014908607047A4
:101370006400002010B51348006840F001001149D6
:10138000086008464068104908400E494860084611
:1013900000680E4908400B4908600846006820F4C0
:1013A000802008600846406820F4FE0048604FF442
:1013B0001F008860FFF762FF4FF00060044908607B
:1013C00010BD0000001002400000FFF8FFFFF6FE15
:1013D00008ED00E0F0B50C46154600220021068C11
:1013E0004FF6FE773E400684028B018C4FF60C765A
:1013F00032407E1C06EA03162E433243104EB042A2
:101400000ED0104EB0420BD0B0F1804F08D00E4E2F
:10141000B04205D00D4EB04202D00D4EB04206D1C2
:101420004FF6FD76314044F00106314305E04FF6BA
:10143000F576314044F00106314302830184F0BD6A
:10144000002C01400034014000040040000800402E
:10145000000C0040F0B50C46154600220021002685
:10146000078C4FF6EF7C07EA0C070784028B018C90
:101470004FF6FF7707EA041640F6FF473A404FF66B
:10148000FF7707EA03373A434FF6FF7707EA052766
:101490003A43114FB8420ED0104FB8420BD0B0F1C2
:1014A000804F08D00E4FB84205D00E4FB84202D040
:1014B0000D4FB84206D14FF6DF77394046F010079E
:1014C000394305E04FF65F77394044F01007394360
:1014D00002830184F0BD0000002C01400034014073
:1014E0000004004000080040000C0040F0B50C462D
:1014F0001546002200210026078C4FF6FF6C07EAF4
:101500000C070784828B018C4FF6FF7707EA0426CD
:101510004FF60C773A404FF6FF7707EA03172F4351
:101520003A43114FB8420ED0104FB8420BD0B0F131
:10153000804F08D00E4FB84205D00E4FB84202D0AF
:101540000D4FB84206D14FF6FF57394046F4807729
:10155000394305E04FF2FF57394044F4807739436F
:1015600082830184F0BD0000002C01400034014062
:101570000004004000080040000C0040F0B50C469C
:101580001546002200210026078C4EF6FF7C07EA54
:101590000C070784828B018C4FF6FF7707EA04362D
:1015A00040F6FF473A404FF6FF7707EA05273A43F0
:1015B0004FF6FF7707EA03373A43114FB8420ED090
:1015C000104FB8420BD0B0F1804F08D00E4FB84248
:1015D00005D00E4FB84202D00D4FB84206D14DF69D
:1015E000FF77394046F48057394305E047F6FF5707
:1015F000394044F48057394382830184F0BD0000B0
:10160000002C01400034014000040040000800406C
:10161000000C00400948008800F0010038B108487B
:10162000006808B9012000E000200549086003486F
:10163000008820F001000149088070471004004034
:101640009401234270B505460C461048C06940F02D
:1016500002000E49C8610E480580001F04800C4836
:101660002038008840F001000949203908800848E6
:101670002C38008840F0010005492C3908800223ED
:101680001D2203210120FFF7ABFC70BD00100240BA
:101690002C04004021B1028842F08002028004E064
:1016A00002884FF67F731A4002807047CA43028255
:1016B000704721B1028842F00102028004E00288F2
:1016C0004FF6FE731A400280704731B1B0F84420E3
:1016D00042F40042A0F8442005E0B0F84420C2F3F0
:1016E0000E02A0F84420704710B5044668488442B2
:1016F00008D10121C014FFF747FD0021E014FFF7D6
:1017000043FDC4E0B4F1804F08D101210846FFF742
:101710001BFD00210120FFF717FDB8E05D48844262
:1017200008D101210220FFF70FFD00210220FFF761
:101730000BFDACE05848844208D101210420FFF79A
:1017400003FD00210420FFF7FFFCA0E05348844282
:1017500008D101210820FFF7F7FC00210820FFF73E
:10176000F3FC94E04E48844208D101211020FFF799
:10177000EBFC00211020FFF7E7FC88E04948844299
:1017800008D101212020FFF7DFFC00212020FFF7F6
:10179000DBFC7CE04448844208D101214014FFF77F
:1017A000F3FC00216014FFF7EFFC70E03F48844237
:1017B00009D10121C804FFF7E7FC00214FF4002004
:1017C000FFF7E2FC63E03A48844209D101210805B1
:1017D000FFF7DAFC00214FF48010FFF7D5FC56E04C
:1017E0003448844209D101214805FFF7CDFC00218E
:1017F0004FF40010FFF7C8FC49E02F48844208D19D
:1018000001214020FFF7A0FC00214020FFF79CFCB5
:101810003DE02A48844208D101218020FFF794FC52
:1018200000218020FFF790FC31E02548844208D158
:1018300001218015FFF788FC0021A015FFF784FC2B
:1018400025E02048844209D101210804FFF79CFCCF
:1018500000214FF48030FFF797FC18E01A488442CB
:1018600009D101214804FFF78FFC00214FF400301B
:10187000FFF78AFC0BE01548844208D10121880457
:10188000FFF782FC00214FF48020FFF77DFC10BDA4
:10189000002C01400004004000080040000C004003
:1018A000001000400014004000340140004C014092
:1018B000005001400054014000180040001C00404E
:1018C0000020004000400140004401400048014029
:1018D000F0B50C4615461E46002100220023018962
:1018E000028B038C4FF6F877394021434FF6FC47C3
:1018F0003A4040F201173A434FF6DD773B404FF64E
:10190000FF7707EA06172F433B43018102830384D5
:10191000F0BD0146888C704770B505460C462448DA
:1019200085420ED0234885420BD0B5F1804F08D0B8
:101930002148854205D02148854202D02048854271
:1019400000D100E000BF208850B92389A2886188B7
:101950002846FFF73FFDE188284600F000F925E022
:10196000208804280AD12389A28861882846FFF7A5
:1019700071FDE188284600F0FBF817E02088082870
:101980000AD12389A28861882846FFF7AFFDE18844
:10199000284600F0FAF809E02389A28861882846E1
:1019A000FFF7ECFDE188284600F0F8F870BD000074
:1019B000002C0140003401400004004000080040B9
:1019C000000C004000210180418001218180002124
:1019D000C180018170471AB183890B43838102E082
:1019E00083898B438381704770B5002400220023D4
:1019F000058C4FF6FE7635400584028C8388048B77
:101A00004FF68F752C40B51E2C400D882C43751E4B
:101A10002A400D892A434D882A43144DA8420BD0F1
:101A2000134DA84208D0134DA84205D0124DA8422C
:101A300002D0124DA84213D14FF6F7752A404D89B6
:101A40002A434FF6FB752A408D882A434FF6FF65DF
:101A50002B404FF6FF552B408D892B43CD892B43CF
:101A600083800483CD888586028470BD002C01406C
:101A70000034014000400140004401400048014062
:101A80000A460021018B4FF6F77319401143018379
:101A90007047000070B5002400220023058C4FF62B
:101AA000EF7635400584028C8388048B48F6FF75F9
:101AB0002C404FF6FF452C400D884FF6FF7606EA86
:101AC00005252C434FF6DF752A400D8906EA0515DA
:101AD0002A434D8806EA05152A43154DA84202D02F
:101AE000144DA8421DD14FF67F752A404D894FF6FF
:101AF000FF7606EA05152A434FF6BF752A408D8802
:101B000006EA05152A434FF6FF352B404FF2FF75C5
:101B10002B408D8906EA85052B43CD8906EA85058C
:101B20002B4383800483CD880587028470BD000029
:101B3000002C0140003401400A460021018B4FF285
:101B4000FF7319404FF6FF7303EA02231943018321
:101B50007047818670470187704781847047028B88
:101B60004FF6F3731A400283028B0A4302837047D5
:101B7000028B4FF2FF331A400283028B4FF6FF7342
:101B800003EA01231A4302837047828B4FF6F373F3
:101B90001A408283828B0A4382837047828B4FF282
:101BA000FF331A408283828B4FF6FF7303EA0123CF
:101BB0001A43828370470000002202881D4B98421E
:101BC0000ED01D4B98420BD0B0F1804F08D01B4B6C
:101BD000984205D01A4B984202D01A4B984204D131
:101BE0004FF68F731A404B881A43174B984207D011
:101BF000164B984204D04FF6FF431A40CB881A4345
:101C000002808B8883850B8803850A4B98420BD012
:101C1000094B984208D00E4B984205D00D4B984284
:101C200002D00D4B984201D10B7A038601238382A7
:101C300070470000002C01400034014000040040C7
:101C400000080040000C004000100040001400405C
:101C500000400140004401400048014010B50248E6
:101C6000006800F0FDFC10BD8000002010B50248A7
:101C7000006800F0F5FC10BD8400002010B502489B
:101C8000006800F0EDFC10BD8800002010B50022B7
:101C9000002340F66A14A14200D100BF0A120124B9
:101CA0009440A3B2DC43048010BD21B1828942F488
:101CB0000052828104E082894DF6FF731A408281CE
:101CC000704702460020B1F5007F00D100BF1388A5
:101CD0000B400BB1012000E00020704770B50246B8
:101CE000002400230025002040F66A16B14200D1EE
:101CF00000BFC1F3421501F01F03012606FA03F3EA
:101D0000012D02D19689334006E0022D02D1168AB8
:101D1000334001E0968A33400C12012606FA04F49F
:101D20001688344013B10CB1012000E0002070BDD2
:101D3000F0B50346002400260025002040F66A176F
:101D4000B94200D100BF1846C1F3421401F01F068A
:101D5000012707FA06F5012C01D10C3004E0022C12
:101D600001D1103000E014301AB107682F4307602A
:101D700002E00768AF430760F0BD00002DE9F047BF
:101D800086B005460E460024A24600BFA1460027A5
:101D9000B08900B100BF2F462C8A4CF6FF7004407A
:101DA000F08804432C82AC894EF6F3100440B088CE
:101DB00031890843718908430443AC81AC8A4FF6EA
:101DC000FF400440B0890443AC8201A8FFF7ECF95E
:101DD0001F48874202D1DDF810A001E0DDF80CA019
:101DE000A88900F4004040B10AEBCA0000EB0A10D9
:101DF00031684900B0FBF1F807E00AEBCA0000EBDC
:101E00000A1031688900B0FBF1F86420B8FBF0F0EB
:101E100004012009642101FB1089A88900F4004015
:101E200040B1322000EBC900B0FBF1F000F0070038
:101E3000044308E0322000EB09106421B0FBF1F00C
:101E400000F00F0004432C8106B0BDE8F0870000CD
:101E50000038014001468888C0F308007047C1F38C
:101E6000080282807047000010B5044801F08EFA25
:101E700003494860034800F0A5FE10BDA8010020FA
:101E80001C0000208C0C002010B58EB00D4801F015
:101E90003DFB044622460CA101A8FEF721FA01A948
:101EA0000E4802F0E1FF0E4801F030FB04462246E6
:101EB0000CA101A8FEF714FA01A9084802F0D4FF0A
:101EC0000EB010BD80010020456E636F6465722006
:101ED0004C6566743A20256C640000009402002072
:101EE00094010020456E636F6465722052696768D3
:101EF000743A20256C64000010B51448007830B1A5
:101F0000134800F05FFF1249124800F0A1FB12488D
:101F1000007840B10E4800F09DFE0D4910310D488B
:101F2000103000F095FB0D48007840B1084800F0F3
:101F3000C1FF074920310748203000F089FB0549DF
:101F4000091F074800F03EFE10BD000015000020EC
:101F5000F8010020C80B0020160000201700002008
:101F6000780C002010B504460648D4E902326168B6
:101F700000F07AFD0448D4E90232616800F074FD93
:101F800010BD0000F00000202001002010B5044624
:101F9000A06803F023FF064A03C2206A03F01EFF75
:101FA000044A03C202F00AFB0349086010BD0000A6
:101FB0000800002000000020100000203EB511485D
:101FC00001F0A4FA044621460F4801F015F80F4825
:101FD00001F09CFA044621460D4801F00DF80C482A
:101FE000036809480B490268684600F0F3F80A499B
:101FF00000984860002088600298C860074800F098
:10200000E1FD3EBD80010020500100209401002030
:1020100068010020B8010020F80B0020640C0020AB
:1020200010B5144800F0EFFD13490870114800F096
:10203000AAFE124908700F4800F08FFE1049087080
:102040000E48007818B90FA1154802F089FF0A4818
:10205000007818B913A1124802F082FF08480078EE
:1020600018B916A10E4802F07BFF0020194908702C
:1020700010BD0000F801002016000020150000200F
:1020800017000020416363656C65726F6D65746550
:1020900072204E4F5420464F554E44210000000000
:1020A000940200204779726F73636F7065204E4F02
:1020B0005420464F554E4421000000004D61676E8C
:1020C00065746F6D65746572204E4F5420464F5590
:1020D0004E442100140000202DE9F04186B02E4925
:1020E00003C903F04DF904462C4903C903F048F92C
:1020F000054600232A462A4902A8009400F0CCF89D
:102100002849086804F046F80746029911F5B77F98
:1021100001DA254907E00299B1F5B77F02DD4FF4F6
:10212000B77100E00299084604F034F880463A4658
:1021300041461E4800F09CFC044603F09BFB06460B
:102140003146184801F048F81949086804F022F8A7
:102150000746039911F5B77F01DA134907E00399A0
:10216000B1F5B77F02DD4FF4B77100E0039908467F
:1021700004F010F880463A4641460E4800F078FCDC
:10218000044603F077FB06463146094801F024F87F
:1021900006B0BDE8F081000000000020080000202B
:1021A000B80100205001002092FEFFFFF000002047
:1021B00068010020200100200021044A11605160C4
:1021C0000020034A106050607047000008000020A3
:1021D000000000202DE9F04F91B081460C461546D5
:1021E0001E46AF1907EBD771481003F072FBCDE91B
:1021F0000C010022254BDDE90C0103F0A7F9CDE924
:102200000A01234A234BD4E90A71384603F0C8FB7C
:10221000CDE90401DDE90A2303F0C2FB824603F0A5
:10222000AFF80E90771B07EBD771481003F051FB06
:10223000CDE908010022154BDDE9080103F086F91C
:10224000CDE90601206B03F0C9FDCDE90201104A7A
:10225000104BD4E90A71384603F0A2FB8246DDE94F
:10226000062303F09DFBCDE90001DDE9022303F025
:102270006DF9CDE9040103F083F810900EA807C8AA
:1022800089E8070011B0BDE8F08F000000004E4063
:102290004AD8124DFB2109402DE9FF4705460C465F
:1022A00016461F46DDF830802C49304603F0BEFF4D
:1022B00020602A49384603F0B9FF6060274940464C
:1022C00003F0B4FFA060216BA06803F0AFFF2061B2
:1022D000E168206803F022FE6061E168606803F055
:1022E0001DFEA061D4E9031003F018FEE061D4E9FB
:1022F000050104F071F88246E16904F06DF8814649
:1023000003F002FF0090D4E9050103F093FD82463B
:10231000E16904F061F8814603F0F6FE0290D4E929
:10232000050103F087FD8246E16903F083FD8146E4
:1023300003F0EAFE0190D4E9050104F04DF882466D
:10234000E16903F077FD814603F0DEFE03909DE82E
:102350000F0085E80F00BDE8FF8700000000704215
:102360002DE9FC5F04460D4616469946DDF830A07F
:10237000304603F033FDC4E90A01D4E90A733A4652
:102380001148124903F00CFBCDE9000102F0F8FFFF
:10239000E0602562C4F830904FF08047504603F06B
:1023A000F9FE01460190384602F00EF983464FF0DF
:1023B0007E5104F011F8804603F010FDC4E90E01CF
:1023C0002046BDE8FC9F00004AD8124DFB21094081
:1023D00090F840305B1C03F03F02436C934202D004
:1023E000036CC1540264704710B504464021204676
:1023F000FEF739F9002020646064204610BD10B556
:10240000044602F0DBF810BD70B505460E46002408
:102410003119281D00F016F80444311905F1140093
:1024200000F010F80444204670BD00000146014849
:102430007047000018690008014601487047000015
:10244000396900082DE9F04702460020151DC01C1F
:102450008046401C11F808804FEA5818C5F80080E3
:102460008046401C11F80880D5F800A04AEAC80848
:10247000C5F800808146401C11F80980D5F800A0FD
:102480004AEAC828C5F8008011F8009009F00F0941
:10249000D5F8008048EAC948C5F800808046401C4D
:1024A00011F808804FEA181611F8008008F07F082C
:1024B00046EA08163EB106F18008D5F8009049EAD0
:1024C000C858C5F800808046401C11F8088008F004
:1024D0008008B8F1000F05DDD2F8048088F00048CC
:1024E000C2F8048002F10803C01C8046401C11F8A9
:1024F00008804FEA5818C3F800808046401C11F845
:102500000880D3F800A04AEAC808C3F800808146D2
:10251000401C11F80980D3F800A04AEAC828C3F883
:10252000008011F8009009F00F09D3F8008048EA04
:10253000C948C3F800808046401C11F808804FEA63
:10254000181711F8008008F07F0847EA08173FB114
:1025500007F18008D3F8009049EAC858C3F8008012
:102560008046401C11F8088008F08008B8F1000F80
:1025700005DDD2F8088088F00048C2F8088002F132
:102580000C04C01C8046401C11F808804FEA581803
:10259000C4F800808146401C11F80980D4F800A0DE
:1025A0004AEAC808C4F800808146401C11F8098036
:1025B000D4F800A04AEAC828C4F8008011F80090B6
:1025C00009F00F09D4F8008048EAC948C4F800802F
:1025D0008046401C11F808804FEA181C11F8008052
:1025E00008F07F084CEA081CBCF1000F07D00CF182
:1025F0008008D4F8009049EAC858C4F800808046A2
:10260000401C11F8088008F08008B8F1000F05DDC3
:10261000D2F80C8088F00048C2F80C80BDE8F08742
:1026200001460148704700004D6900080146014815
:10263000704700006E69000810B50446204600F09F
:10264000BBFA044601482060204610BDC067000860
:102650004A6842608A688260CA68C2607047000047
:1026600070B5044694F848100E4A52F8210040F222
:102670002551FFF733FBA0B194F84810094A52F8EE
:102680002100FFF7E7FBC5B229462046FFF7A0FE71
:1026900094F84810034A52F8210040F22551FFF700
:1026A000F5FA70BD680000200146D1E91003984298
:1026B00001D1FF207047486C0A5C91F84400401C2F
:1026C00000F03F0048641046F4E7000030B587B0E2
:1026D00004460D4694F8480078B994F848103F4AEB
:1026E00052F8211094F848203D4B53F8222041EA3B
:1026F00002000121FEF738FD0FE094F84810374A38
:1027000052F821000121FEF70FFD94F84810344AD9
:1027100052F821000121FEF727FD14F8480F314936
:1027200031F81000ADF8180003208DF81A001820B9
:102730008DF81B0021782C4A52F8210006A9FEF7DB
:102740007FFB2078294931F81000ADF818000420EB
:102750008DF81B002178244A52F8210006A9FEF7C3
:102760006FFB02950020ADF80C00ADF80E00ADF83F
:102770001000ADF814000C20ADF8120021781C4AAE
:1027800052F8210002A9FFF7F9FA2078194911F847
:1027900010008DF8040000208DF8050020781649FF
:1027A00011F810008DF8060001208DF8070001A82F
:1027B000FEF766FC21780E4A52F82100012240F211
:1027C0002551FFF7B5FA14F84819094A52F82100C3
:1027D0000121FFF76AFA07B030BD0000FC65000870
:1027E0000866000814660008740000201A660008D5
:1027F00068000020206600082666000870B50446C0
:102800000D4694F84810094A52F821002946FFF76E
:1028100026FB00BF94F84810044A52F8210080219A
:10282000FFF74FFA0028F5D0012070BD68000020A6
:10283000014691F8400091F84420801A00F03F00D2
:102840007047000070B504460D462046FFF7CCFDEA
:10285000044684F8485094F8480008B907480460D2
:1028600094F84800012801D10548046094F8480014
:10287000022801D103480460204670BD800000207A
:10288000840000208800002070472DE9F8430446AA
:102890000E46002528466D1C16F800902079484504
:1028A00005DA4FEA8901E068FDF7BEFCE060ED1C47
:1028B00084F80490002020E000210091725D0099CE
:1028C0001143009172195278009941EA0221009156
:1028D00072199278009941EA024100917219D278F6
:1028E000009941EA026100910099A1602D1DD4E98F
:1028F000022141F82020411CC8B221798142DBDC51
:1029000028466D1C375C207CB84204DAB900A06907
:10291000FDF78AFCA061ED1C2774002020E0002157
:102920000091725D009911430091721952780099DB
:1029300041EA0221009172199278009941EA02411C
:1029400000917219D278009941EA026100910099D0
:1029500061612D1DD4E9052141F82020411CC8B238
:10296000217C8142DBDC28466D1C16F80080207F2C
:10297000404505DA4FEA8801606AFDF755FC606260
:10298000ED1C84F81C8000211BE0701902682D1DCD
:10299000284605E016F800C0431E06F803C0401C98
:1029A000AB188342F6D80023A818401E3354701980
:1029B000401E20621544D4E9083040F82130481CFC
:1029C000C1B2207F8842E0DC2846BDE8F8830000E1
:1029D000014601487047000084690008014601482B
:1029E00070470000A26500080146014870470000DA
:1029F000A56900080146014870470000C669000843
:102A00000146014870470000D969000801460148A5
:102A100070470000FA69000838B50446012110200B
:102A2000FEF7A2FB0220ADF8000010208DF8030095
:102A300003208DF8020069460148FEF701FA38BD0F
:102A40000010014070B505460C46012C04D102214E
:102A50000448FEF78BFA03E002210248FEF784FAED
:102A600070BD0000001001408160C26003617047CA
:102A70002DE9F04F8BB004468946924651464846B0
:102A800003F0AAFC834603F0A9F905460E462A4640
:102A90003346D4E906B1584602F0A4FCC4E9060165
:102AA000D4E90AB35A462846314603F0ADF8C4E9E2
:102AB00008010021484603F0F3FA09D10022134629
:102AC0002846314602F09AFE02D10021A161E1615F
:102AD000206903F083F9CDE90401D4E908B35A462B
:102AE00002F05EFFCDE90801E06803F077F9CDE977
:102AF0000001D4E906B35A4602F052FFCDE90401C1
:102B0000A06803F06BF92A463346CDE9000102F0D4
:102B100047FFCDE90201DDE9042302F063FCCDE9C2
:102B20000601DDE9082302F05DFC07468846C4E99A
:102B30000A56206803F052F93A464346CDE90801A7
:102B400003F02CF805D2206803F048F90BB0BDE87B
:102B5000F08F606803F042F93A464346CDE9080138
:102B600002F0E2FE03D2606803F038F9EEE738467F
:102B70004146EBE730B5DDE9034501604260836023
:102B8000C460056130BD000001490160704700006C
:102B90006468000870B5074D0C68B4FBF5F605FBDA
:102BA00016430C68B4FBF5F20468144404600B602F
:102BB00070BD000000CA9A3B0149016070470000E7
:102BC0009068000870B504460D46D4E9021002680A
:102BD00013682A46984770BD0160426003617047E0
:102BE00070B504460E461546314604F1440000F027
:102BF00069FE294604F1440000F096FE04F1440009
:102C000000F042FE70BD10B5044600226821204647
:102C100000F0CAF900F07E00682819D180233E2216
:102C20006821204600F07EF81B23162268212046EA
:102C300000F078F8132315226821204600F072F87E
:102C400003233E226821204600F06CF8012010BDCD
:102C50000020FCE72DE9F04704464FF000091D2253
:102C600068212046FFF7BCFF0622682104F14400DA
:102C700000F000FE0BE004F1440000F02BFE04F134
:102C8000300101F8090009F1010000F0FF0904F129
:102C9000440000F05FFE0028EDD133210A5D3221AF
:102CA000095D42EA012108B203F074FA824603F09A
:102CB00095F80746194A1A4B02F072FE054602F0D3
:102CC0005FFB60613121095D94F8302041EA022107
:102CD00008B203F05FFA824603F080F805460F4A17
:102CE0000F4B02F05DFE074602F04AFBA061352162
:102CF0000A5D3421095D42EA012108B203F04AFA73
:102D0000824603F06BF80746044A054B02F048FE82
:102D1000054602F035FBE061BDE8F087578B6E2475
:102D20007BE4533F2DE9F04104460F4615461E460D
:102D3000394604F1440000F0C5FD294604F1440081
:102D400000F0F2FD314604F1440000F0EDFD04F125
:102D5000440000F099FDBDE8F08110B50446202341
:102D600001221E212046FFF7DDFF182300221E212D
:102D70002046FFF7D7FF012302221E212046FFF73E
:102D8000D1FF012010BD10B504460022532120467A
:102D900000F00AF9E52813D108232D2253212046FB
:102DA000FFF7C0FF0923312253212046FFF7BAFF66
:102DB00009232C2253212046FFF7B4FF012010BD28
:102DC0000020FCE72DE9F05F04464FF000093222B5
:102DD00053212046FFF704FF0622532104F144004B
:102DE00000F048FD0BE004F1440000F073FD04F135
:102DF000360101F8090009F1010000F0FF0904F1B2
:102E0000440000F0A7FD0028EDD194F836203721CA
:102E1000095D42EA012108B203F0BCF983464FF094
:102E20007E5103F003FA824602F0D8FF07461F4A9C
:102E30001F4B02F08BFB054602F0A2FA60603821BE
:102E40000A5D3921095D42EA012108B203F0A2F9C5
:102E500083464FF07E5103F0E9F9824602F0BEFF4F
:102E60000746124A124B02F071FB054602F088FA3F
:102E7000A0603A210A5D3B21095D42EA012108B2C6
:102E800003F088F983464FF07E5103F0CFF9824674
:102E900002F0A4FF0546054A054B02F057FB074622
:102EA00002F06EFAE060BDE8F09F00009A999999EF
:102EB000999939402DE9F04704464FF00009032263
:102EC0001E212046FFF78CFE06221E2104F144003D
:102ED00000F0D0FC0BE004F1440000F0FBFC04F136
:102EE0003C0101F8090009F1010000F0FF0904F1BB
:102EF000440000F02FFD0028EDD194F83C100902A9
:102F000009B23D22125D41EA020003F043F9824614
:102F100002F064FF07461E4A1E4B02F041FD0546C3
:102F200002F02EFA60624021095D090209B24122D5
:102F3000125D41EA020003F02DF9824602F04EFFD5
:102F40000546134A134B02F02BFD074602F018FA10
:102F5000A0623E21095D090209B23F22125D41EAE9
:102F6000020003F017F9824602F038FF0746084ACC
:102F7000084B02F015FD054602F002FAE06201235B
:102F800002221E212046FFF7CDFEBDE8F08700009B
:102F9000713D0AD7A370ED3F10B50446002104F13E
:102FA000440000F047FB10BD70B504460E461546C0
:102FB000314604F1440000F085FC294604F1440048
:102FC00000F0B2FC04F1440000F05EFC0122314646
:102FD00004F1440000F04EFC04F1440000F07AFCDF
:102FE00070BD10B5044604F1440000F01FFCA0F1D0
:102FF0004404204610BD00002DE9F04F87B0044680
:10300000894601F0DBFA82466069AAEB000B58465C
:1030100002F076FC05460022134B02F097FACDE948
:1030200004012169A9EB010002F053FCCDE9020182
:103030000E48006802F04DFC07463A460B46DDE9B3
:10304000020102F083FA0546DDE9042302F07EFA6C
:10305000CDE9000102F00EFC2060C4F814A0C4F811
:10306000109007B0BDE8F08F004CED402400002028
:1030700010B588B0044621792F4A52F82100012169
:10308000FEF752F8208980B2ADF81800A08980B20E
:10309000ADF814000020ADF81A00ADF816008DF858
:1030A0001C002179254A52F8210005A9FEF784FD6C
:1030B0006020ADF804000120ADF806000020ADF856
:1030C0000A00ADF80C00207968B921791B4A52F842
:1030D000210001A9FEF788FC2179184A52F8210045
:1030E0000821FEF7CDFC207901280DD12179134A62
:1030F00052F8210001A9FEF7CDFC21790F4A52F8C0
:1031000021000821FEF718FD21790C4A52F8210010
:103110000121FEF7BFFA2179084A52F82100012166
:10312000FEF7D3FA2179054A52F821000121FEF772
:10313000C0FA08B010BD0000E86500085C0000207F
:1031400038B5044621791D4A52F8211022791C4BCA
:1031500053F8222041EA02000121FEF705F8207908
:10316000184931F810002179174A32F81110084334
:10317000ADF8000010208DF8030003208DF8020048
:103180002179124A52F821006946FDF759FE20794B
:103190000F4931F81000ADF8000018208DF8030039
:1031A00003208DF8020021790A4A52F8210069466D
:1031B000FDF746FE2046FFF75BFF38BDD8650008E7
:1031C000E0650008F0650008F46500084C00002088
:1031D000F86500085400002070B504460D46002D27
:1031E00012DD2279214B33F81210214B53F82200C3
:1031F000FDF7BCFE22791F4B33F812101C4B53F81D
:103200002200FDF7B1FE13E0002D11DA2279194BEF
:1032100033F81210164B53F82200FDF7A7FE22795F
:10322000124B33F81210124B53F82200FDF79CFE9C
:10323000207958B92E1E01DB324600E0724291B26D
:1032400022790D4B53F82200FEF783FC20790128E8
:103250000BD12E1E01DB324600E0724291B2227980
:10326000054B53F82200FEF776FC70BDF0650008B0
:103270004C000020F46500085C00002001718260B1
:10328000C360704710B592B0044601214FF404703A
:10329000FDF76AFF01210846FDF736FF0120ADF872
:1032A000440000208DF8470011A93548FDF7C8FDFE
:1032B0003448FDF701FD3448069004F10C000790F6
:1032C000002008900120099000200A9080200B9097
:1032D00040000C9080000D9020200E9000020F9076
:1032E0000020109006A92748FDF78CFD01212548F4
:1032F000FDF7D5FC0020019001208DF808008DF825
:1033000009004FF4602003900020049001208DF804
:10331000140001A91C484C38FDF728FC4FF440402C
:10332000FDF7E6FE052301220A2117484C38FDF778
:1033300045FC012114484C38FDF7F9FB01211248E6
:103340004C38FDF7E9FB10484C38FDF793FC00BF03
:103350000D484C38FDF700FC0028F9D10A484C38DC
:10336000FDF798FC00BF08484C38FDF7EBFB002840
:10337000F9D1012104484C38FDF781FC12B010BD91
:1033800000100140080002404C2401402DE9FC4798
:103390008246BAF80C0002F0B3FA06464FF06632E5
:1033A000094B02F0FDFA04460022084B02F0F8FA3D
:1033B00080460022064B02F0C9F8CDE9000101F079
:1033C000DFFFBDE8FC87000066660A40000026407B
:1033D00000FEAF40016042608360704710B588B066
:1033E0000446217A434A52F821000121FDF7BCFE30
:1033F000207A414931F81000217A404A32F8111000
:103400000843ADF81C0004208DF81F0003208DF840
:103410001E00217A3A4A52F8210007A9FDF710FD53
:10342000217A384A52F821000121FDF77DFE217AE8
:10343000354A52F82100FEF757F9217A324A52F8FC
:10344000210004A9FEF7B8FBA08980B2ADF81400F2
:10345000208A80B2ADF810000020ADF81600ADF85B
:103460001200217A284A52F8210004A9FEF7A4FB91
:10347000207A48B9217A244A52F8210002230022F6
:103480000321FEF725FA08E0217A1F4A52F82100AD
:10349000002302220321FEF71BFA01A8FEF792FA8D
:1034A0000620ADF80C00217A174A52F8210001A934
:1034B000FEF732FA217A144A52F821000121FEF770
:1034C000F5F8217A104A52F8210001221146FEF740
:1034D00082FA217A0C4A52F821000021FEF73DFBC6
:1034E000217A094A52F821000121FEF7E2F808B0DA
:1034F00010BD0000C8650008C0650008C46500086C
:103500003C000020D06500084400002070B504464F
:10351000217A094A52F82100FEF7FBF90546A088F6
:10352000281A00B2E080A580B4F90610206808448B
:103530002060206870BD00004400002010B50172BA
:10354000C2600361002404608480C48010BD70B533
:1035500004460021204600F0FBF80121204600F03F
:1035600013F90121204600F0F3F8204600F038F965
:1035700080F001050021204600F0EAF8284670BDE1
:1035800010B504460021204600F0FEF80121204637
:1035900000F0DEF80021204600F0DAF810BD70B52A
:1035A000064600250121304600F0EEF8002410E028
:1035B0000121304600F0CCF8304600F011F9C4F19A
:1035C000070188402843C5B20021304600F0C0F80A
:1035D000641C082CECDB284670BD10B504460121A4
:1035E000204600F0D1F80121204600F0B1F800217A
:1035F000204600F0ADF810BD70B506460D4600241B
:1036000015E0C4F1070201209040284008B10120D4
:1036100000E000200146304600F0B6F801213046B7
:1036200000F096F80021304600F092F8641C082C57
:10363000E7DB70BD38B504460D4601210820FDF7D3
:1036400093FD4FF40070ADF8000003208DF80200E8
:1036500014208DF8030069461148FDF7F1FB4FF483
:103660008070ADF8000003208DF8020014208DF862
:10367000030069460A48FDF7E3FB002084F8520086
:1036800084F8530084F8300084F83100012120468A
:1036900000F05EF80121204600F076F838BD000009
:1036A000000C014070B5044600216181207940067C
:1036B000060EE088012801D146F00106204600F000
:1036C0009DF831462046FFF797FF2046FFF73FFF62
:1036D00020B9204600F074F8022070BDE08801286F
:1036E00018D112E02046FFF75AFF6289511C618110
:1036F000E168885461892089814203DA2046FFF716
:103700003FFF02E02046FFF768FF61892089814280
:10371000E8DB17E0002512E0E068415D2046FFF796
:103720006BFF2046FFF713FF20B9204600F048F852
:103730000320D2E76089401C6081681CC5B22089E3
:10374000A842E9DC204600F03BF80020C5E7000075
:1037500070B505460C4600BF002001E000BF401CCC
:1037600095F854108142F9DC00BF012C03D12102ED
:103770000448FDF7FBFB24B94FF480710148FDF7C5
:10378000F3FB70BD000C014070B505460C4600BF50
:10379000002001E000BF401C95F854108142F9DC84
:1037A00000BF012C03D161020448FDF7DFFB24B9FF
:1037B0004FF400710148FDF7D7FB70BD000C0140CC
:1037C00010B5044600212046FFF7DEFF0121204608
:1037D000FFF7BEFF01212046FFF7D6FF10BD000016
:1037E00010B504464FF400710348FDF7B4FB08B16F
:1037F000012010BD0020FCE7000C014010B504467C
:1038000000212046FFF7C0FF00212046FFF7A0FF60
:1038100010BD0000034A026000BF034A026080F846
:1038200054107047986700088867000800BF00BF01
:1038300000BF704770B504460E461546202D00DDCA
:103840002025A6800121E180258194F8301004F123
:1038500010000144E160206801682046884794F820
:103860003110A07A084484F831000021E18094F8F6
:10387000310070BD70B505460C461646E1B23246C1
:103880002846FFF7D7FF70BD70B5044694F8530083
:1038900008B1012070BD20680168204688470546B0
:1038A000002084F8520084F853002846F2E7818013
:1038B00090F8523000F132021344C36000230381B8
:1038C000C380704730B505460C46E1B22846FFF785
:1038D000EEFF30BD014691F8300091F83120904262
:1038E00005D1002081F8300081F83100704791F84F
:1038F000302091F83100401E82420AD191F83030D8
:1039000001F11002D05C002281F8302081F83120D2
:10391000ECE700BF11F8302F0878401C01F830099F
:1039200001F11000805CE1E790F85220202A03D1D9
:10393000012280F85320704710F8523F0278521C41
:1039400000F8522900F13202D1540289521C02813E
:1039500000BFF0E7014691F8310091F83020801A5D
:10396000C0B2704710B5024600200B5C53600C18C3
:103970006478536843EA042353600C18A4785368AE
:1039800043EA044353600C18E478536843EA046341
:103990005360001D0C5C94600C186478936843EAD3
:1039A000042494600C18A478936843EA0444946057
:1039B0000C18E478936843EA04649460001D10BD19
:1039C00001460148704700004C6A00080146014862
:1039D000704700006D6A000810B504462046FFF7E6
:1039E000EBF8044604482060201D0021016041607E
:1039F00000BF041F204610BDA8680008014601480A
:103A0000704700007B6A00080146014870470000CB
:103A10009C6A00080146014870470000B16A00082E
:103A20000146014870470000D26A00081EB50246F0
:103A30000020002302930C5C029B234302930C188A
:103A40006478029B43EA042302930C18A478029B37
:103A500043EA044302930C18E478029B43EA0463AC
:103A60000293029B5360001D002301930C5C019B99
:103A7000234301930C186478019B43EA04230193C8
:103A80000C18A478019B43EA044301930C18E478D2
:103A9000019B43EA04630193019B9360001D002393
:103AA00000930C5C009B234300930C186478009BEC
:103AB00043EA042300930C18A478009B43EA0443D0
:103AC00000930C18E478009B43EA04630093009B86
:103AD000D360001D1EBD0000014601487047000074
:103AE000E06A00080146014870470000016B0008C9
:103AF00001460148704700000F6B0008014601486D
:103B000070470000306B000870B505460E46002473
:103B10003119281D00F009F80444311905F1140089
:103B200000F003F80444204670BD2DE9FF5F06460F
:103B30000C460025301D039003980068C0F3C75061
:103B40000290029818B1029800F5607002900398F4
:103B50000768002228466D1C225428466D1C2254FA
:103B600028466D1C22547807020E28466D1C2254EC
:103B7000C7F3C70228466D1C2254C7F3C722284644
:103B80006D1C2254F021029801EA0010C7F3C341D2
:103B9000084329466D1C60540298C0F3061228465B
:103BA0006D1C22540021706802F00CFB07D26019D2
:103BB00010F8010C40F08000611901F8010C06F1C9
:103BC0000800019001980068C0F3C758B8F1000FD1
:103BD00001D008F560780198D0F8009000222846BE
:103BE0006D1C225428466D1C225428466D1C2254FC
:103BF0004FEA4970020E28466D1C2254C9F3C702D1
:103C000028466D1C2254C9F3C72229466D1C6254F4
:103C1000F02000EA0810C9F3C341084329466D1C8F
:103C20006054C8F3061228466D1C22540021B06867
:103C300002F0C8FA07D2601910F8010C40F08000B9
:103C4000611901F8010C06F10C0000900098006861
:103C5000C0F3C75ABAF1000F01D00AF5607A009894
:103C6000D0F800B0002228466D1C225428466D1C56
:103C7000225428466D1C22544FEA4B70020E2846EF
:103C80006D1C2254CBF3C70229466D1C6254CBF342
:103C9000C72228466D1C2254F02000EA0A10CBF3FC
:103CA000C341084329466D1C6054CAF306122846D6
:103CB0006D1C22540021F06802F084FA07D26019CA
:103CC00010F8010C40F08000611901F8010C284641
:103CD00004B0BDE8F09F2DE9F84306460D460024E8
:103CE00032792046641C2A5400222146641C6A54FE
:103CF0002046641C2A542046641C2A54002014E0E8
:103D0000F16851F820100091009929550099090A8D
:103D10002A1951700099090C2A1991700099090EFD
:103D20002A19D170241D411CC8B231798142E7DCC7
:103D3000327C2046641C2A5400222146641C6A54AA
:103D40002046641C2A542046641C2A54002014E097
:103D5000B16951F820100091009929550099090A7C
:103D60002A1951700099090C2A1991700099090EAD
:103D70002A19D170241D411CC8B2317C8142E7DC74
:103D8000327F2046641C2A5400222046641C2A5498
:103D90002046641C2A542146641C6A54002713E000
:103DA000716A51F82700FCF7C8FB80462819C0F853
:103DB0000080241D726A52F8271028194246FCF729
:103DC000DBFB4444781CC7B2307FB842E8DC2046B5
:103DD000BDE8F8832DE9F04105460E460024287918
:103DE0003055641CA868FCF7A8FB0746301907602B
:103DF000241D30193A46A968FCF7BEFB3C44204616
:103E0000BDE8F0812DE9F84306460D4600243079DF
:103E10002855B088000A29194870A41CB068FCF71E
:103E20008CFB074628190760241D28193A46B168FB
:103E3000FCF7A2FB3C44F068FCF77FFB80462819A6
:103E4000C0F80080241D28194246F168FCF794FB55
:103E500044443069FCF771FB81462819C0F8009092
:103E6000241D28194A463169FCF786FB4C447069C9
:103E70000090009828550098000A29194870009869
:103E8000000C291988700098000E2919C870241D8B
:103E90002046BDE8F88310B50246002013790B5484
:103EA00093881B0A0C18637053681B0C0C18A370C2
:103EB00053681B0E0C18E370001D137A0B54138902
:103EC0001B0A0C18637093681B0C0C18A370936882
:103ED0001B0E0C18E370001D10BD1EB5024600201D
:103EE00053680293029B0B54029B1B0A0C186370CD
:103EF000029B1B0C0C18A370029B1B0E0C18E3708A
:103F0000001D93680193019B0B54019B1B0A0C1825
:103F10006370019B1B0C0C18A370019B1B0E0C18EB
:103F2000E370001DD3680093009B0B54009B1B0A99
:103F30000C186370009B1B0C0C18A370009B1B0ECD
:103F40000C18E370001D1EBD70B505460E4600241A
:103F50003119281DFFF7E9FD0444311905F114005A
:103F6000FFF7E3FD0444311905F12400FFF7DDFDFF
:103F70000444204670BD1EB50246002053680293DB
:103F8000029B0B54029B1B0A0C186370029B1B0CB8
:103F90000C18A370029B1B0E0C18E370001D936895
:103FA0000193019B0B54019B1B0A0C186370019B2E
:103FB0001B0C0C18A370019B1B0E0C18E370001D4A
:103FC000D3680093009B0B54009B1B0A0C18637072
:103FD000009B1B0C0C18A370009B1B0E0C18E370AD
:103FE000001D1EBD18B50246002053680093009BBB
:103FF0000B54009B1B0A0C186370009B1B0C0C18C5
:10400000A370009B1B0E0C18E370001D18BD41002F
:10401000080218BF04200A0E18BF40F001004FF03C
:104020007F4232EA010108BF40F00200012808BFC8
:10403000052070470020FCF79BBC00214FF07E500C
:1040400001F06CBF01F0F6BE0021084601F066BF2A
:1040500061214FF0E04002F066BA6FF05E010807A0
:1040600002F061BA7CB500215E48FEF7EBFB044626
:104070005D4A5E49FCF74AFA5D4800905D4B5E4A36
:104080005E4901905E48FEF775FD59480090594B16
:10409000594A5A4901905B48FEF76CFD40F23F23B4
:1040A000FE2200215848FFF7E9F840F23F23FE22A4
:1040B00001215648FFF7E2F800234FF6FF72194638
:1040C0005348FFF73BFA00234FF6FF720121514896
:1040D000FFF734FA504B514A51495248FFF77AF9E9
:1040E0000820514B514A4FF4B77100905048FEF7E9
:1040F00037F9504C2046FEF79FFA04461030FEF781
:104100009BFAA0F110041030FEF796FAA0F12004FB
:104110001B212430FFF77EFBA0F14405324A4649BB
:104120002846FCF7F3F9454801F0CCF8444C20460A
:10413000FEF742FD04464348206000206060A06016
:10414000E0602061201DFEF777FA041F0020606107
:10415000A061E061206204F11400FEF76DFAA0F1A5
:10416000140400206062A062E062206304F1240075
:10417000FEF762FAA0F1240400BF334C2046FEF79C
:104180001BFD04463148206000206060A060E060B4
:1041900000BF2F4C2046FEF70FFD04462D4820603F
:1041A0000020606000BF01232B4A2CA12D4800F0A5
:1041B00037FD01232C4A2DA12D4800F075FD002369
:1041C000214A2CA12D48FEF707FD00231C4A2CA1F3
:1041D0002D48FEF701FD00231D4A2CA12D48FEF7B6
:1041E000FBFC7CBDA000002000000008892800081E
:1041F000CDCC4C3ECDCCCC3D00007F4300007FC3F6
:10420000F000002020010020500100206801002063
:1042100080010020940100209A9949419A992941EE
:104220000000C841A8010020C9763E3E96438B3D60
:10423000B8010020F8010020E32F000894020020BC
:10424000C40B0020D8680008F80B0020C0680008E4
:104250001C000020086900088D1F0008636D645F62
:1042600076656C00080C0020651F0008706964000A
:10427000400C00207261775F76656C00640C002052
:104280007261775F696D7500780C002062617474EB
:10429000657279008C0C002030380A2801D2012088
:1042A0007047002070470000044A1268111800BFD0
:1042B000024A12688A42FBD3704700006400002063
:1042C00030B5002015490860154800684FF47A722F
:1042D000B0FBF2F1B1F1807F00D31DE021F07F400F
:1042E000401E4FF0E022506150170F22002807DADD
:1042F00013071D0E0B4B00F00F04241F1D5503E088
:1043000013071C0E084B1C5400BF00204FF0E02286
:1043100090610720106100BF30BD000064000020E4
:104320008C00002018ED00E000E400E08EB00124D5
:10433000002500264FF000094FF0000A00200D90E4
:1043400030227CA101A8FCF75CF9FDF713F8FFF718
:10435000B7FF8448FEF7F4FE8348FEF7F1FE83487A
:10436000FFF73CF88248FFF739F88248FEF754FB24
:104370008148FEF711FE8148FEF784FF00BF00BFB1
:104380007F4A91685068FEF7A1F900BF00207C4980
:10439000C1F8E008C1F8E408C1F8EC08C1F8E80881
:1043A00000BF7849764800F075FF7749744800F0FF
:1043B00071FF7649724800F06DFF7149744A002020
:1043C0000DE001F67C0353F820303BB901F67C0385
:1043D00043F8202000F16403536003E0401C1928D7
:1043E000EFDB00BF66496B4A00200DE001F67C035D
:1043F00053F820303BB901F67C0343F8202000F14C
:104400006403536003E0401C1928EFDB00BFFCF796
:10441000AFFD41F61F4141F28730FDF713F94FF42C
:104420007A70FFF741FF5CA1554800F01DFD02E0E6
:10443000534800F09EFD00BF514890F8F408002852
:10444000F6D055A14E4800F00FFD21464948FEF731
:10445000F9FA6DE000F0B2F8A0EB0A00422804D3AC
:10446000FDF73AFE00F0AAF8824600F0A7F84E49A0
:104470000968401AB0F5C87F01D3FDF79DFE00F032
:104480009DF80D99401A642804D3FDF797FD00F0BC
:1044900095F80D9000F092F8A0EB090064280AD37B
:1044A0004248007810B1FDF7BBFD01E0FDF724FDA7
:1044B00000F084F8814600F081F8A0EB050B584627
:1044C00001F01EFA07460022394B01F067FB21D8A4
:1044D0002A48FEF75BFF834601F080FC07468846CA
:1044E000344A354B01F020FA0FD284F00104214602
:1044F0002048FEF7A7FA224F0DF104084246022198
:10450000384600F099FC00BF00BFFDF7ADFC00F09D
:1045100055F8054600F052F8801BB0F57A7F04D3B9
:10452000FDF7B2FC00F04AF80646154800F021FD00
:1045300090E7000054686520766F6C7461676520B1
:104540006973206C6F776572207468616E203131F9
:104550002E33562C506C65617365206368617267F9
:10456000652120005001002068010020800100200A
:104570009401002018000020F8010020A80100206C
:1045800094020020640C0020780C00208C0C002089
:10459000400C0020080C002052696B696261736551
:1045A000206F6B210000000010000020140000208C
:1045B0000088B3409A9999999999264001480068D2
:1045C00070470000640000202DE9F04D0E460023E6
:1045D000A0F5000C4FF00071354684B002464FF054
:1045E0007E5401EB45014FF07F48BCF1FE4F80F057
:1045F0009F81B1F1804FC0F0DB81FE490144B1F5EC
:10460000005F40F2A78200F58021C90C01F00F077E
:10461000C1F307117F39A2EBC15501EB030B3846FB
:1046200001F0B8FD6FF0030101F07DFF4FF07E5106
:1046300001F000FC01460290284601F0CDFE0190F9
:104640002846029901F0F6FB00F5006A6FF30B0AA9
:1046500000905146029801F0BFFE294601F0EAFBA6
:1046600002904FF07E50009901F058FC01460090F6
:10467000019801F0DBFD00F500656FF30B0528469E
:10468000029901F0D3FD02905146284601F0CEFD7B
:10469000019901F097FE029901F09EFE009901F048
:1046A000C5FD01460190284601F0C4FB0146029079
:1046B00001F0BCFD8246D04901F0B8FDCF4901F0C0
:1046C000B9FB514601F0B2FD82460021284601F0B7
:1046D0002AFF00905146029801F0A8FD05460021EE
:1046E000019801F020FF294601F0A4FB8246014613
:1046F000009801F09FFB00F500656FF30B0529465C
:10470000009801F069FE514601F094FB8246BC49D5
:10471000284601F08BFD0090BA49504601F086FD15
:104720008246B949284601F081FD514601F082FBDD
:1047300082460146009801F07DFB00F500656FF3AD
:104740000B052946009801F047FE514601F072FB27
:104750008246AE48784450F8371000EBC70001910C
:1047600047684FEA0B1001F015FD0090394650469E
:1047700001F060FB294601F05DFB019901F05AFB55
:10478000009901F057FB00F5006B6FF30B0B5846D7
:10479000009901F021FE019901F01EFE294601F069
:1047A0001BFE394601F018FE514601F00BFE06F5DE
:1047B000006782466FF30B073946304601F00CFE66
:1047C0000021009008464FF0000000F00C0639462A
:1047D000584601F02BFD054620F00040B0F18B4F0C
:1047E0000ADDB8EB400F07D34FF08B4060F31E0596
:1047F0002F464FF0000A1FE03846009901F01AFBDF
:10480000514601F013FD07465846009901F00EFD90
:10481000394601F00FFB82460146284601F00AFBAB
:1048200000F500676FF30B073946284601F0D4FD09
:10483000514601F0FFFA824631460C204FF000004D
:104840005146384601F0F6FA01F07AFC06460511A9
:1048500001F0A0FC394601F0B5FD514601F0EAFA3D
:1048600007466B4901F0E2FC6A4901F0E3FA394678
:1048700001F0DCFC684901F0DDFA394601F0D6FCB4
:104880000146664806F00F06784450F8260001F00D
:10489000CDFC6349794451F8261001F0CBFA614907
:1048A000794451F8261001F0C5FA05F17D01FC2983
:1048B00008D2294601F037FE04B02146BDE8F04D8C
:1048C00001F0B4BC05F1BF01B1F5BF7F16D8294690
:1048D00001F029FE214601F0A9FC0546B8EB450F81
:1048E0001AD068000CD02846FFF791FB042808BFB7
:1048F000FFF7B3FB284604B0BDE8F08D002D0BDABE
:104900000220FBF797FFFFF7A8FB0146204604B003
:1049100061F31E00BDE8F08D0220FBF78BFFFFF76F
:1049200097FB0146204604B061F31E00BDE8F08D00
:10493000B1F1804F3CD300BF00F1FF41B1F1FE4F18
:1049400021D200BF20F00042C5F3C75110467F2995
:104950000DDB9729BFF651AEC1F196014FF0010C66
:104960000CFA01F1A1F1010C1CEA050F07D001209E
:10497000FBF760FF04B0BDE8F04DFFF765BB2942CF
:1049800018BF294C39E641001CBF4FF08071B1EBD4
:10499000400F09D91B2101F0C6FD02466FF01A0332
:1049A00010F0004FCED128E6BCF1FE4F18D224E61D
:1049B000B1F1007F0ED336F0004105D006F0004182
:1049C00041F0FC552E46B7E7410018BFB8EB400F49
:1049D00078D8B1E7B1F1807F38BFA5F50006ABD339
:1049E00020F000416FF0FF4C104C01EB0C03A34290
:1049F0002FD31DE0001080C07EE24C3EABAAAA3E41
:104A000000B038423BAA3842D49AB8BBE81E000036
:104A1000FC596337C9FF753A1872313DB41E000066
:104A2000681E00001C1E0000000080BFFFFF3F004A
:104A300025F000439C44A4450BD3B0F17E5F18BF22
:104A40005FEA450C3ED0B1F1FF4F98BFB3F1FF4F85
:104A500005D904B03146BDE8F04DFFF7F3BAB0F127
:104A6000FF4F0FD0C5F3C7517F2909DB972911DA12
:104A7000C1F19601012202FA01F14A1E2A4205D033
:104A8000002108E015F0004F55D128E0294218BF59
:104A9000012100D1022110F5000F14D020B3B0F194
:104AA000004F27D010F1814F4ED04FF0FE41B1EBB7
:104AB000400F94BF01200020012101EBE5718842E5
:104AC00039D10CE040E015F0004F02D0012936D07A
:104AD00031E0012902BF3F4804B0BDE8F08D4FF03E
:104AE000FF4004B0BDE8F08D15F000400ED104B0D9
:104AF000BDE8F08DB5F1FF4F1DD015F5000F05D0C5
:104B000015F0004F14D009B1012907D00220FBF79E
:104B100091FE04B0BDE8F04DFFF78FBA0220FBF71D
:104B200089FEFFF78AFA04B080F00040BDE8F08DFE
:104B300009B1012903D004B00020BDE8F08D04B014
:104B40004FF00040BDE8F08D04B04FF07E50BDE85E
:104B5000F08D00BF4FF07E5101F03EFC05466FF036
:104B6000010101F0E0FC1C4901F02CFC294601F098
:104B70005DFB4FF07C5101F025FC074629460846B5
:104B800001F054FB80F00040394601F04FFB8246B3
:104B90001249284601F04AFB07461149504601F0E8
:104BA00045FB82460F49284601F040FB514601F083
:104BB00041F905460146384601F03CF900F5006B25
:104BC0006FF30B0B5946384601F006FC294601F0FD
:104BD00031F9ECE5000080FFABAAAA3E00B0B84175
:104BE0003BAAB841D49A38BB014600BF0048704781
:104BF000396900080146486B704770B504460D4698
:104C0000294604F10C00FDF7FFFB04F10C00216BB9
:104C1000884770BD014600BF00487047186900080A
:104C20002DE9F04104460E46174698462046FDF70A
:104C3000ABFF04460C48206004F10C052846FDF744
:104C4000BBFF054609482860281DFDF7F5FC051F38
:104C50001030FDF7F1FCA0F120042763C4F8348084
:104C6000A6602046BDE8F08120680008A86700081B
:104C7000014600BF00487047016B00080146086A02
:104C8000704770B504460D46294604F10C00FEF746
:104C9000CDFE04F10C00E169884770BD014600BFFC
:104CA00000487047E06A00082DE9F04104460E46CE
:104CB000174698462046FDF767FF04460B482060DC
:104CC00004F10C052846FDF777FF054608482860E3
:104CD00000206860A860E86000BFA5F10C04E761EF
:104CE000C4F82080A6602046BDE8F081386800083E
:104CF000F068000870B586B004466E463046FDF791
:104D00005BFF06464348306000253DE004F618008E
:104D100050F82500B8B304F6180050F825000089B3
:104D200080B2ADF8040004F6180050F825000068C1
:104D3000029004F6180252F82520506804F6180272
:104D400052F825205268126891688847039004F64B
:104D5000180252F82520506804F6180252F825204F
:104D600052681268D168884704904FF480600590BB
:104D700004F6180151F8250001690E4620686A46BC
:104D80000368204698476D1C192DBFDB00253AE0CB
:104D900004F67C0050F82500A0B304F67C0050F81F
:104DA0002500808880B2ADF8040004F67C0050F83D
:104DB00025008068029004F67C0252F8250052F823
:104DC0002520126891688847039004F67C0252F807
:104DD000250052F825201268D168884704904FF4C6
:104DE0008060059004F67C0252F8250052F82520D8
:104DF000126851688847064620686A46314603684B
:104E0000204698476D1C192DC2DB012084F8F40858
:104E100006B070BD086800083EB504466846FEF757
:104E2000DBFD20686A460A21036820469847201D5A
:104E3000FDF7E5FAE0603EBDFEB504460D461646B8
:104E40006F463846FDF7B8FE0746064838608DF8CD
:104E50000450029620686A46072103682046984756
:104E6000FEBD0000F067000870B505460C462246FE
:104E700001212846FFF7E0FF70BD00002DE9F05F3B
:104E800004460F469046642F05DB94F8F40810B9E9
:104E90000020BDE8F09FD8F8000004F21F4102682E
:104EA000404690470546FF2084F81804FE2140F252
:104EB00019400155401C0555C5F30721401C0155FB
:104EC000411E0A5D0146095D5018C11700EB1161D2
:104ED0000912A0EB0121C1F1FF01CAB240F21C414D
:104EE0000A55481C0755C7F30721401C01550026E9
:104EF000052004E004F58361095C0E44401CE91DB3
:104F00008842F7D3ED1D3046F11706EB1161091207
:104F1000A6EB0121C1F1FF01CBB229466D1C04F5BE
:104F200083625354B5F5806F10D89246AB464FF06C
:104F3000000906E01AF809106068FDF75FFC09F146
:104F40000109D945F6DB00BF2846A2E70349204600
:104F500000F006F84FF0FF309BE70000136A0008EE
:104F600070B505460C46224603212846FFF764FF2C
:104F700070BD70B50446201DFDF741FA0646D4F811
:104F8000FC08301A42F6F821884202D9002084F841
:104F9000F408D4F8E00830B1D4F80009B04202D2E5
:104FA0000020C4F8E00812E100BF6068FDF740FC93
:104FB00018B16068FDF778FB01E04FF0FF3005465F
:104FC000002D00DA04E1D4F8F0082844C4F8F00811
:104FD000D4F8E008072814D1D4F8EC28501CC4F801
:104FE000EC0804F118008554D4F8E408401EC4F815
:104FF000E408D4F8E408002802D10820C4F8E00846
:10500000E4E0D4F8E008B0B9FF2D09D1D4F8E00805
:10501000401CC4F8E00806F11400C4F80009D5E00B
:10502000201DFDF7ECF9801B0528E9D9002084F844
:10503000F408801E70BDD4F8E008012812D1FE2DBE
:1050400005D1D4F8E008401CC4F8E008BEE0002018
:10505000C4F8E00894F8F4080028D1D12046FFF7FE
:10506000DBFEB3E0D4F8E00802280BD104F50E64AF
:1050700065600020E0602068401C20602561A4F588
:105080000E64A3E0D4F8E00803280BD1D4F8E408B8
:1050900000EB0520C4F8E408D4F8E008401CC4F88C
:1050A000E00893E0D4F8E008042813D1D4F8F0081D
:1050B000C11700EB11610912A0EB0121FF2905D1F5
:1050C000D4F8E008401CC4F8E0087FE00020C4F8F1
:1050D000E0087BE0D4F8E008052809D1C4F8E858D6
:1050E000D4F8E008401CC4F8E008C4F8F0586DE0BB
:1050F000D4F8E00806280FD1D4F8E80800EB052022
:10510000C4F8E8080720C4F8E008D4F8E40868BB4D
:105110000820C4F8E00859E0D4F8E008082855D180
:105120000020C4F8E008D4F8F008C11700EB1161C2
:105130000912A0EB0121FF2948D1D4F8E80860B991
:105140002046FFF769FE2046FFF7D4FDC4F8F86853
:10515000C4F8FC684FF0FF306CE7D4F8E8080A2880
:1051600005D104F11801204600F044F82EE0D4F8EF
:10517000E808062809D104F1180104F60810FDF723
:1051800084FB012084F8040920E0D4F8E8080B2807
:1051900003D1002084F8F40818E0D4F8E808643853
:1051A00004F67C0151F8200080B1D4F8E818643985
:1051B00004F67C0353F82100D4F8E818643953F856
:1051C000211009680A6804F11801904700BFEBE656
:1051D00000BF94F8F40858B1D4F8F808301A40F633
:1051E000C411884204D92046FFF716FEC4F8F868B7
:1051F00000201FE72DE9FE43044688466846FEF777
:10520000EBFB201DFDF7FBF8E168461A41466846B6
:10521000FEF7A8FB4FF47A70B6FBF0F00199084452
:1052200001904FF47A70B6FBF0F100FB116043F689
:1052300009514843029901EB8011029101AD201DF3
:10524000FDF7DDF807464FF47A70B7FBF0F02968F8
:10525000081A401E20614FF47A70B7FBF0F100FB92
:10526000117043F6095148436968A1EB8010084961
:105270000844606104F11401081FFDF78BFC00BFB6
:10528000201DFDF7BCF8C4F8FC08BDE8FE83000053
:1052900000CA9A3B02460B4600210FE002F61800B6
:1052A00050F8210048B902F6180040F8213001F109
:1052B0007D009860DA6001207047491C1929EDDBF8
:1052C0000020F9E770B5044629492A482060201DCE
:1052D000294901604FF46141416000BF041F002073
:1052E00084F8F40804F608152846FDF765FC054621
:1052F0002248A5F608142860002005E0002204F6E4
:10530000180141F82020401C1928F7D3002005E09F
:10531000002204F67C0141F82020401C1928F7D314
:10532000002004E0002204F118010A54401CB0F5EA
:10533000806FF7D3002004E0002204F583610A5453
:10534000401CB0F5806FF7D3002140F60C100155DA
:1053500040F614100151001D01554FF41260015127
:1053600040F60C10015540F614100151204670BD56
:105370007C68000850680008A0000020D86700087A
:1053800021F00042A2F16052B2F5801F01F000430B
:1053900028BFD2F17F6C0BD95FEA001C43EAC2023E
:1053A00042EB507018BF704728BF20F001007047D3
:1053B000B2F5801FBCBF184670474FEA410C1CF580
:1053C000001F02D2084600F0F8BF70B500F092FB53
:1053D00000000089FFF7F6BF4FF00040A0F5800005
:1053E0007047000010B591EA030F48BF83F00043F7
:1053F00000F11284841A71EB030C05D2121943EBED
:105400000C03001B61EB0C01DFF824E14FEA11549F
:10541000A4EB135C1EEA430F18BF9EEA445F73D0EF
:1054200023EA0E03DCF1200E21EA045143F4801339
:1054300032D322FA0CFE10EB0E0023FA0CFE41EBE5
:105440000E01CCF1200E03FA0EFE10EB0E0051F10E
:105450000001B1F5801FCCF1200E32D201EB0451D6
:1054600012FA0EF2BDE8104058BF7047401C38BF1A
:105470005FEA420218BF7047002814BF20F0010005
:1054800041F100014FEA410313F5001F38BF704797
:10549000A1F1C04100F07CBB012A43EB0302ACF157
:1054A000200CDCF11F0E32BF4FF0000E23FA0CF37C
:1054B00010EB030041EB0451B4EB115FD0D0A1EB32
:1054C000045101F5801149085FEA300001EB0451F5
:1054D0000ED350F1000038BF12FA0EFE08D1BDE81D
:1054E0001040C9E7401C38BF5FEA4202CAD1C3E797
:1054F000BDE810404FEA410313F5001F38BF704765
:10550000A1F1C04100F044BB9EEA445F08D011EA1B
:105510005E0FBDE8104004BF01F00041002070475D
:10552000BDE8104070B500F0E5FA00BF64FBBE3E78
:105530000000E0FF491058BFC1F140415B1058BF67
:10554000C3F140438B42EFF3008070472DE9C04127
:1055500030B4DFF8A0C23CEA111418BF3CEA1314BF
:1055600000F0EC8081EA03051CEA111444EAD574CA
:1055700018BF1CEA131500F0C780A4EB05044FF018
:10558000004545EAC12145EAC32341EA505143EAB7
:10559000525304F17F74994204F500344FEAC0205D
:1055A0004FEAC22208BF904200F09C804FEA136588
:1055B0000FF24016765D4FEA134506FB05F7C7F17B
:1055C000807706FB07F74FEAD737A7FB03687642D9
:1055D000C8F58038A7FB06CE38BFA8F1010807FB45
:1055E00008E64FF0000EA6FB028CE6FB03CEDCF1D2
:1055F000000CCEF1004E38BFAEF1010EA6FB0C58E8
:105600004FF000074FF00005E6FB0E87A1FB08C630
:10561000A0FB07CE16EB0E0645F10005E1FB076582
:1056200015F1E04E7EBFA4F580345FEA46066D4179
:1056300016F1800745F100054FEA17274FEA066685
:1056400047EA0567A6F1DE46B6F1805F4FEA152509
:105650001FD9384624F0010C05EBC471BCF1FE6F74
:1056600001EB0C1102D8F0BCBDE8008124425CBF04
:1056700001F5801E9EEAC47F02D4F0BCBDE8008123
:10568000244238D4F0BCA1F1C041BDE8004100F093
:105690007FBA4FEAD22242EA43524FEAD323A7FB12
:1056A00002864FEAD02040EA415007FB03661EEA1B
:1056B0000E0F4FEAD12105FB026658BFA6EB00563C
:1056C000B6EB00564FEA520E4EEAC37E18EB0E0EB2
:1056D00056EB530EBDD518EB02085E417F1C55F109
:1056E0000005B6E74FF480154FF000074FF00006B5
:1056F0004FF00008ADE7F0BC4FF0000001F1C041F1
:1057000001F00041BDE8008111EA0C1F0CEA1315FD
:1057100000D00CE013EA0C1F00F025804FF00000D1
:10572000F0BC81EA030101F00041BDE80081F0BC5A
:10573000BDE8004181EA030100F02ABAF0BCBDE8EF
:10574000004170B500F0D6F9097EFC3E00F007B8C4
:1057500081EA03014FF0000001F00041704781EA47
:10576000030100F015BAF0BCBDE800414FF00000A5
:1057700021497047FFFDFBF9F7F5F4F2F0EEEDEB90
:10578000E9E8E6E4E3E1E0DEDDDBDAD8D7D5D4D33F
:10579000D1D0CFCDCCCBCAC8C7C6C5C4C2C1C0BF8B
:1057A000BEBDBCBBBAB9B8B7B6B5B4B3B2B1B0AF91
:1057B000AEADACABAAA9A8A8A7A6A5A4A3A3A2A175
:1057C000A09F9F9E9D9C9C9B9A9999989797969530
:1057D00095949393929191908F8F8E8E8D8C8C8BCC
:1057E0008B8A898988888787868585848483838254
:1057F000828181800000FF070000F87F51EA030CDE
:1058000017D41CF5801F58BFBCF5801F00F106801F
:10581000994218BF704708BF9042704707D711F5EB
:10582000801F58BF13F5801F19D4994270478942D1
:1058300070471CF5801F08D5BCF5801FF7D58B423B
:1058400018BF704708BF824270474FF4001C1CEB22
:10585000410F38BF1CEB430F01D28B42704770B52C
:1058600000F048F9922449004FF000514FF0805366
:10587000FFF760BE4FEA41034FEA5353A3F580633D
:10588000D3F11E03C8BFD3F1210C0CDD4FF0004251
:1058900042EAC12242EA505232FA03FC8CEAE17C2D
:1058A000ACEBE1707047102BC4BF0020704703F5CC
:1058B000787CBCF1FF3F04D06FF0004282EA210007
:1058C000704770B500F016F94992248000207047A7
:1058D000F2E710F0004248BF4042B0FA80F310FAFD
:1058E00003F10AD0C3F11D0303F580634FEA415071
:1058F00002EB035202EBD12170474FF000007047DA
:10590000B0FA80F310FA03F10AD0C3F11D0303F5D6
:1059100080634FEA41504FEA035202EBD1217047B6
:105920004FF000007047000051EA030C17D41CF53B
:10593000801F58BFBCF5801F00F10680994218BF38
:10594000704708BF9042704707D711F5801F58BFB6
:1059500013F5801F19D499427047894270471CF58E
:10596000801F08D5BCF5801FF7D58B4218BF704744
:1059700008BF824270474FF4001C1CEB410F38BF38
:105980001CEB430F01D28B42704770B500F0B2F8A8
:10599000922449004FF000514FF08053FFF7CABDE9
:1059A000DFF848C170B51CEA111E1EBF1CEA1315B2
:1059B0009EEA0C0F95EA0C0F00F06F8081EA030459
:1059C00023EA4C134EEAD47E21EA4C1141F48011B3
:1059D00043F48013AE44A1FB024CA0FB0365AEF17F
:1059E0007F7E361955EB0C05A1FB034C4CF10003EF
:1059F000A0FB021C16EB0C06654153F100030942A3
:105A000018BF46F0010613F4007F0BD14FEA0331B3
:105A10004FEA0530340341EA155140EA16506FF061
:105A200003020AE04FEAC3214FEAC520F40241EA2B
:105A3000555140EA56506FF0020202EB2E4201EB44
:105A4000025585EACE710AD05FEA440C18BF24F0F3
:105A5000004450F1000041F1000120EAD47040F20E
:105A6000FE7C624500D270BDA84214BF4FF0804456
:105A70004FF04044002E08BF0024BEF1806FA8BF45
:105A8000A1F1C041BDE8704080F282804FF000007B
:105A900001F1C04101F0004170479EEA0C0F0CEA91
:105AA000131518BF95EA0C0F06D04FF0000081EADD
:105AB000030E0EF0004170BD00F01CF88900013E9D
:105AC00000F007B800F009B84FEA430C5FEA5C5CED
:105AD00008D081EA030100F05BB84FEA410C5FEAAD
