:020000040800F2
:100000006807002045010008AF050008A7050008A3
:10001000AB05000853020008870B00080000000031
:100020000000000000000000000000007107000850
:100030008F04000800000000350600085D08000875
:100040005F0100085F0100085F0100085F01000810
:100050005F0100085F0100085F0100085F01000800
:100060005F0100085F0100085F0100085F010008F0
:10007000590200085F010008790200085F010008CA
:100080005F0100085F0100085F0100085F010008D0
:100090005F0100085F0100085F0100085F010008C0
:1000A0005F0100085F0100085F0100085F010008B0
:1000B0005F0100085F0100085F0100085F010008A0
:1000C0005F0100085F0100085F0100086D0700087C
:1000D0006F0700089D0900085F010008BD090008BE
:1000E0005F0100085F0100085F0100085F01000870
:1000F0005F0100085F0100085F0100085F01000860
:100100005F0100085F0100085F0100085F0100084F
:100110005F0100085F0100085F0100085F0100083F
:100120005F0100085F0100085F0100085F0100082F
:10013000DFF80CD000F05CF80048004731190008E7
:10014000680700200648804706480047FEE7FEE7AC
:10015000FEE7FEE7FEE7FEE7FEE7FEE7FEE7FEE777
:100160003D09000831010008D2B201E000F8012B7E
:10017000491EFBD270470022F6E710B513460A4627
:1001800004461946FFF7F0FF204610BD2DE9F05F49
:100190000546002092469B468846064681464024F6
:1001A0001BE0284641464746224600F042F85346A7
:1001B0005A46C01A914110D311461846224600F003
:1001C00029F82D1A67EB01084F462246012000212D
:1001D00000F020F817EB00094E41201EA4F10104A5
:1001E000DFDC484631462A464346BDE8F09F000022
:1001F000064C074D06E0E06840F0010394E8070074
:1002000098471034AC42F6D3FFF796FFC8190008A0
:10021000E8190008202A04DB203A00FA02F1002045
:1002200070479140C2F1200320FA03F31943904034
:100230007047202A04DB203A21FA02F0002170479F
:1002400021FA02F3D040C2F120029140084319463E
:10025000704700BFFEE7000010B5202000F0DAF87C
:1002600030B1102000F012F80021024800F01CF814
:1002700010BD00001C00024010B54FF4005000F00B
:10028000C9F808B101F008F810BD000000F0805175
:1002900011B10349086001E002494860704700005D
:1002A000040402400000024021B1026842F0010251
:1002B000026004E002684FF6FE731A400260704765
:1002C00001684FF6FE72114001600021016041603B
:1002D0008160C1604B49884208D14A490839496860
:1002E00041F00F01474A083A51608AE0454914310C
:1002F000884208D143490839496841F0F001414A30
:10030000083A51607DE03F492831884208D13D4993
:100310000839496841F470613A4A083A516070E01E
:1003200038493C31884208D136490839496841F496
:100330007041344A083A516063E032495031884292
:1003400008D130490839496841F470212D4A083AEA
:10035000516056E02B496431884208D12949083957
:10036000496841F47001274A083A516049E025493B
:100370007831884208D123490839496841F07061D1
:10038000204A083A51603CE01F49884206D1011FCB
:10039000096841F00F01021F116032E01A4914315F
:1003A000884208D11849091F096841F0F001164A2E
:1003B000121F116025E014492831884208D11249E2
:1003C000091F096841F470610F4A121F116018E09B
:1003D0000D493C31884208D10B49091F096841F495
:1003E0007041094A121F11600BE0074950318842E1
:1003F00007D10549091F096841F47021024A121FFB
:100400001160704708000240080402400146486835
:1004100080B2704701460020002201F0805313B1E2
:10042000054B1A6801E0054B1A6802EA01030BB19B
:10043000012000E00020704700040240000002405C
:100440001AB103680B43036002E003688B43036047
:10045000704710B50022026847F6F0739A430C6AA1
:100460008B6823430C6923434C6923438C692343E2
:10047000CC6923434C6A23438C6A23431A430260AA
:10048000CB6843600B6883604B68C36010BD7047E6
:100490002DE9F0410246002500260020002300241B
:1004A000002791F803C00CF00F0591F803C00CF081
:1004B000100CBCF1000F03D091F802C04CEA050506
:1004C00091F800C0BCF1000F31D0146800202BE07F
:1004D0004FF0010C0CFA00F3B1F800C00CEA03066F
:1004E0009E4220D183004FF00F0C0CFA03F7BC435F
:1004F00005FA03FC4CEA040491F803C0BCF1280F90
:1005000006D14FF0010C0CFA00FCC2F814C00AE04E
:1005100091F803C0BCF1480F05D14FF0010C0CFA63
:1005200000FCC2F810C0401C0828D1D31460B1F8F8
:1005300000C0BCF1FF0F34DD546800202EE000F154
:10054000080C4FF0010808FA0CF3B1F800C00CEAEF
:1005500003069E4221D183004FF00F0C0CFA03F7E3
:10056000BC4305FA03FC4CEA040491F803C0BCF157
:10057000280F05D100F1080C08FA0CF8C2F8148015
:1005800091F803C0BCF1480F07D100F1080C4FF0FF
:10059000010808FA0CF8C2F81080401C0828CED3D5
:1005A0005460BDE8F08100BFFEE700BFFEE7704782
:1005B00070B5002100230F22C47804B3154C2468C1
:1005C00004F4E064C4F5E064210AC1F10403CA4004
:1005D000447804FA03F184781440214309010E4C55
:1005E0000678A155047804F01F050124AC40057875
:1005F0006D11AD0005F1E025C5F8004109E0047872
:1006000004F01F050124AC40044D0678761145F82E
:10061000264070BD0CED00E000E400E080E100E069
:1006200002490143024A1160704700000000FA05C8
:100630000CED00E07047000029B1064A5269024300
:10064000044B5A6104E0034A52698243014B5A61E8
:10065000704700000010024029B1064AD2690243E7
:10066000044BDA6104E0034AD2698243014BDA6148
:10067000704700000010024029B1064A9269024307
:10068000044B9A6104E0034A92698243014B9A61E8
:10069000704700000010024030B500210022002405
:1006A00000232D4D6D6805F00C0121B1042905D002
:1006B000082923D105E0294D056022E0274D05607A
:1006C0001FE0254D6D6805F47012234D6D6805F42B
:1006D0008034022505EB92421CB9214D554305603B
:1006E0000BE01D4D6D6805F400351DB11C4D5543E3
:1006F000056002E0194D5543056002E0174D0560A5
:1007000000BF00BF144D6D6805F0F0010909154DDB
:100710006B5C0568DD4045600F4D6D6805F4E06178
:10072000090A104D6B5C4568DD4085600A4D6D68B7
:1007300005F46051C90A0B4D6B5C4568DD40C5602E
:10074000054D6D6805F44041890B074D6B5CC5682C
:10075000B5FBF3F5056130BD0010024000127A00D0
:1007600000093D001C0000202C000020704770474D
:10077000704710B500F002F810BD00000CB5002065
:10078000019000903348006840F48030314908609F
:1007900000BF3048006800F4003000900198401C11
:1007A0000190009818B90198B0F5A06FF1D12948CF
:1007B000006800F4003010B10120009001E000203A
:1007C00000900098012843D12348006840F01000B1
:1007D000214908600846006820F0030008600846C8
:1007E000006840F0020008601A48406819494860F3
:1007F0000846406848600846406840F480604860A9
:100800000846406820F47C1048600846406840F480
:10081000E81048600846006840F08070086000BF3B
:100820000C48006800F000700028F9D009484068C2
:1008300020F00300074948600846406840F0020085
:10084000486000BF0348406800F00C000828F9D158
:100850000CBD0000001002400020024010B50C4802
:10086000006848B10A480068401E09490860094804
:100870000088401C0749088006480088B0F57A7F48
:1008800004DB00200349088000F0AAFE10BD000030
:10089000000000200400002010B5002100200022EC
:1008A000214B5B6803F00C0121B1042906D0082913
:1008B00028D107E01D4B1E4C236027E01B4B1C4C2E
:1008C000236023E0184B5B6803F47010164B5B68E1
:1008D00003F48032022303EB904022B9154B4343CB
:1008E000134C23600DE0104B5B6803F4003323B11D
:1008F000104B43430E4C236003E00C4B43430C4C22
:10090000236003E0094B0A4C236000BF00BF064B85
:100910005B68C3F30313084CE15C054B1B68CB40D9
:10092000034C236010BD00000010024000127A004A
:100930000800002000093D000C00002010B51348FD
:10094000006840F0010011490860084640681049FD
:1009500008400E494860084600680E4908400B49A7
:1009600008600846006820F4802008600846406857
:1009700020F4FE0048604FF41F008860FFF7F9FE86
:100980004FF000600449086010BD000000100240F4
:100990000000FFF8FFFFF6FE08ED00E010B540F2A2
:1009A0002441054800F02FF820B100F007FC024870
:1009B00000F0E4F810BD00000038014010B540F22E
:1009C0002441054800F01FF820B100F031FE024834
:1009D00000F0D4F810BD00000048004021B1828929
:1009E00042F40052828104E082894DF6FF731A407E
:1009F000828170471AB1838A0B43838202E0838A23
:100A00008B438382704770B5024600240023002583
:100A1000002040F66A16B14200D100BFC1F3421572
:100A200001F01F03012606FA03F3012D02D1968976
:100A3000334006E0022D02D1168A334001E0968A47
:100A400033400C12012606FA04F41688344013B120
:100A50000CB1012000E0002070BDF0B50346002479
:100A600000260025002040F66A17B94200D100BFD9
:100A70001846C1F3421401F01F06012707FA06F5D4
:100A8000012C01D10C3004E0022C01D1103000E027
:100A900014301AB107682F43076002E00768AF43BC
:100AA0000760F0BD2DE9F04786B005460E460024EC
:100AB000A24600BFA1460027B08900B100BF2F4663
:100AC0002C8A4CF6FF700440F08804432C82AC89D9
:100AD0004EF6F3100440B088318908437189084309
:100AE0000443AC81AC8A4FF6FF400440B089044314
:100AF000AC8201A8FFF7D0FD1F48874202D1DDF884
:100B000010A001E0DDF80CA0A88900F4004040B17D
:100B10000AEBCA0000EB0A1031684900B0FBF1F89B
:100B200007E00AEBCA0000EB0A1031688900B0FB4D
:100B3000F1F86420B8FBF0F004012009642101FB06
:100B40001089A88900F4004040B1322000EBC900B0
:100B5000B0FBF1F000F00700044308E0322000EBA6
:100B600009106421B0FBF1F000F00F0004432C8168
:100B700006B0BDE8F08700000038014001468888D3
:100B8000C0F30800704700BFFEE700000FB4054B3C
:100B900010B503A9044A029800F018F810BC5DF8DB
:100BA00014FB0000791800083000002002E008C89B
:100BB000121F08C1002AFAD170477047002001E0D7
:100BC00001C1121F002AFBD1704700002DE9FF4F21
:100BD0008DB00F460546002606E025280BD0DDE93E
:100BE0000F1290476D1C761C28780028F5D111B0A3
:100BF0003046BDE8F08F0024A246A1460122EC4910
:100C000000E0044315F8013F203B02FA03F00842DC
:100C1000F7D128782A2810D06FF02F022878A0F179
:100C20003001092914D80AEB8A0102EB410144F092
:100C3000020400EB010A6D1CF0E701CF5FEA000A35
:100C400003D544F40054CAF1000A44F002046D1CB8
:100C500028782E2817D115F8010F44F004042A280B
:100C60000ED06FF02F022878A0F1300109290AD8A0
:100C700009EB890102EB410100EB01096D1CF2E770
:100C800057F8049B6D1C28786C280FD006DC4C2884
:100C900017D068280DD06A2814D104E0742810D029
:100CA0007A280FD10DE044F400140AE044F48014D3
:100CB00001E044F440146978814202D104F58014C3
:100CC0006D1C6D1C2A786E2A1FD00CDC632A31D073
:100CD00004DC002A8BD0582A11D1A3E0642A68D002
:100CE000692A0CD165E0732A2ED004DC6F2A73D0F8
:100CF000702A04D19BE0752A6FD0782A6ED01046F6
:100D0000DDE90F129047761C50E1C4F3025002282F
:100D100006D0032809D0042801CF09D0066045E198
:100D200001CFF117C0E9006140E101CF06803DE14C
:100D300006703BE117F8040B8DF8000000208DF8D9
:100D40000100EB46012003E057F804BB4FF0FF30F1
:100D500061074FF0000102D40DE008F1010188465F
:100D600049450FDA8045F8DB1BF808100029F4D15B
:100D700008E008F1010188468142FADB1BF80810FF
:100D80000029F6D1DDE90F23AAEB080081462146B0
:100D900000F036F9304400EB080604E0DDE90F12FC
:100DA0001BF8010B9047B8F10108F7D221464846DD
:100DB000F7E00A21C4F302534FF0000B0891022B15
:100DC00004D001CFC117032B09D00AE0FF1D27F083
:100DD0000707F7E8020108E032E01FE020E000B278
:100DE000C117042B01D140B2C117031E71F10003DA
:100DF00007DA4FF0000CD0EB0C006CEB01012D2357
:100E000002E0230504D52B238DF82430012303E0D1
:100E1000E30701D02023F7E7984658E00A2110E0C5
:100E200010210EE010204FF0000B08900CE0102174
:100E30004FF0000B44F004044FF00809089103E060
:100E400008214FF0000B0891C4F30253022B04D089
:100E500001CF0021032B06D006E0FF1D27F0070776
:100E6000F7E8020103E080B2042B00D1C0B24FF0DA
:100E7000000823072BD5702A07D0DDF820C08CF09E
:100E8000100C5CEA0B0C05D00EE040238DF82430EA
:100E9000012308E050EA010306D030238DF8243006
:100EA0008DF8252002239846DDF820C08CF0080C30
:100EB0005CEA0B0C0BD150EA010301D1630706D5A4
:100EC00030238DF824304FF00108A9F10109582A88
:100ED00004D038A20B9208AA0A920BE03AA2F9E7D2
:100EE0005B46089AFFF752F90B9B9B5C0A9A521ECD
:100EF0000A92137050EA0102F2D10A98ADEB000099
:100F000000F1200B600702D524F4803401E04FF09B
:100F10000109D94502DDA9EB0B0000E0002000EB40
:100F20000B0141440890AAEB010AE00306D4DDE975
:100F30000F232146504600F063F806444FF00009A5
:100F400008E009A911F80900DDE90F12904709F13D
:100F50000109761CC145F4DBE0030CD5DDE90F2364
:100F60002146504600F04CF8064404E0DDE90F123B
:100F700030209047761C0899481E08900029F5DC1F
:100F800008E00A980A990078491C0A91DDE90F12D5
:100F90009047761CBBF10001ABF1010BF1DC21465F
:100FA0005046DDE90F2300F019F806446D1C1BE6DE
:100FB000092801003031323334353637383961622F
:100FC00063646566000000003031323334353637F3
:100FD0003839414243444546000000002DE9F041C4
:100FE000044600251E461746880404D405E0394609
:100FF0002020B0476D1C641EF9D52846BDE8F0815D
:101000002DE9F041044600251E469046C80301D54F
:10101000302700E02027880404D505E04146384603
:10102000B0476D1C641EF9D52846BDE8F08108B5AF
:101030004FF48060FFF7F4FA0E208DF800000220D4
:101040008DF8010001208DF802008DF8030068463C
:10105000FFF7AEFA25208DF8000002208DF8010080
:1010600000208DF8020001208DF803006846FFF78C
:101070009FFA08BD10B500F039F9FFF7D8FF00F06E
:1010800017F900F039F800F001F810BD1FB54FF462
:10109000E13000900020ADF80400ADF80600ADF896
:1010A0000800ADF80C000C20ADF80A0069461148A4
:1010B000FFF7F8FC012240F224410E48FFF7CDFC77
:1010C000012280210B48FFF795FC012240210948AD
:1010D000FFF790FC01210748FFF780FC01228021E7
:1010E0000448FFF787FC012240210248FFF782FCF9
:1010F0001FBD00000038014000B58BB000212B4817
:10110000FFF7D2F82948FFF7DBF829480090294873
:101110000190102002904020039000200490802035
:10112000059000200690079008904FF440500990D9
:1011300000200A9069461D48FFF78BF94FF4805054
:10114000FFF7A4F8012202211848FFF779F90021DE
:1011500016481430FFF7A8F814481430FFF7B0F819
:101160001348009014480190002002904020039002
:1011700000200490802005900020069007900890A1
:101180004FF44050099000200A90694607481430F7
:10119000FFF75FF94FF48030FFF778F8012103483B
:1011A0001430FFF781F80BB000BD0000440002408E
:1011B00004380140340000207400002070B5002184
:1011C0001F48FFF771F84FF48030FFF75FF81C48B5
:1011D000FFF71CF9C0F14000C5B24020184958394A
:1011E000C86540211748FEF7C6FF17A0FFF7CEFCE1
:1011F00000240AE01848005D124908550846015DC0
:1012000016A0FFF7C3FC601CC4B2AC42F2DB15A011
:10121000FFF7BCFC0B4800F037FB10B112A0FFF742
:10122000B5FC002404E000200B490855601CC4B242
:10123000AC42F8DB01210248FFF736F870BD000030
:1012400058000240B4000020526563656976656409
:1012500020646174613A0000740000203078253009
:10126000327800000A0D00006461746120616E61D3
:101270006C797A65206572726F720A0D0000000049
:1012800010B5044603488464012102484430FFF746
:101290000BF810BD0000024010B54FF48050FEF76F
:1012A000F5FF00210148FEF7FFFF10BD440002409A
:1012B00008B548208DF803004FF48060ADF80000B9
:1012C00069460948FFF7E4F803208DF8020018206A
:1012D0008DF803004FF40070ADF800006946024835
:1012E000FFF7D6F808BD00000008014010B5012145
:1012F0000846FFF7A1F901210520FFF7BDF90121FB
:101300008803FFF7B9F910BD10B553485349086079
:1013100053484860534888600020C8604FF08040C0
:1013200008614FF07E504861AA204F49087048700C
:101330004A480078887049484078C87047488078A3
:1013400008714648C078487144480079887143481C
:101350004079C8714148807908724048C079487224
:101360003E48007A88723D48407AC8723B48807A8D
:1013700008733A48C07A48733848007B8873374806
:10138000407BC8733548807B08743448C07B487400
:101390003248007C88743148407CC8742F48807C77
:1013A00008752E48C07C48752C48007D88752B48F0
:1013B000407DC8752948807D08762848C07D4876DC
:1013C00008468078C9784840274909794840264925
:1013D000497948402449897948402349C979484096
:1013E0002149097A48402049497A48401E49897A6A
:1013F00048401D49C97A48401B49097B48401A4961
:10140000497B48401849897B48401749C97B484077
:101410001549097C48401449497C48401249897C57
:1014200048401149C97C48400F49097D48400E4950
:10143000497D48400C49897D48400B49C97D484059
:101440000949097E48400849497E4840064988764E
:101450001B20FFF715FF10BD1F852B40F400002057
:10146000A4707D409A99193F3400002008B54FF4CC
:101470008060FFF7D5F80C208DF8000002208DF871
:10148000010001208DF802008DF803006846FFF787
:101490008FF827208DF8000002208DF80100002031
:1014A0008DF8020001208DF803006846FFF780F8F0
:1014B00008BD000001461148D0F80801FF281BD8DC
:1014C0000E48D0F80001FF2803D900200B4AC2F8CB
:1014D00000010A48D0F80001084A11541046D0F81B
:1014E0000001401CC2F800011046D0F80801401C61
:1014F000C2F80801002070470120FCE71801002015
:1015000010B500F05FF9FFF7B1FF00F03DF900F012
:10151000C5F800F02BF810BD01461348D0F80801BB
:10152000F0B11148D0F80401FF2803D900200E4B78
:10153000C3F804010C48D0F80821D0F804010A4B84
:10154000185C08701846D0F80401401CC3F8040168
:101550001846D0F80801401EC3F80801104670472D
:10156000FF2008700020FAE7180100201FB54FF493
:10157000165000904FF48050ADF804000020ADF8F4
:1015800006004FF48060ADF808000020ADF80C00B4
:101590000C20ADF80A0069461048FFF783FA0122D3
:1015A00040F224410D48FFF758FA012280210B48F0
:1015B000FFF720FA012240210848FFF71BFA01211A
:1015C0000648FFF70BFA012280210448FFF712FAC0
:1015D000012240210148FFF70DFA1FBD00480040DD
:1015E00038B500241048FEF711FFD0B900210E488D
:1015F000FEF75AFE08E09DF800000C490855641CEF
:10160000B4F5807F00D104E06846FFF785FF00282D
:10161000F1D100BF1CB12146044800F073F800204E
:1016200038BD0120FCE700001C0002402802002019
:1016300070B500211648FEF737FE4FF48070FEF7B4
:1016400025FE1348FEF7E2FE4042C5B24FF480701B
:101650000F493039486320210E48FEF78CFD0024E5
:1016600005E00D48005D0B490855601CC4B2AC4252
:10167000F7DB002404E0002007490855601CC4B2D1
:10168000AC42F8DB01210248FEF70EFE70BD0000FF
:1016900030000240480300202803002000B58BB032
:1016A00000211548FEF700FE1348FEF709FE134817
:1016B000009013480190002002904FF48070039036
:1016C000002004908020059000200690079008904C
:1016D0004FF44050099000200A9069460648FEF7F2
:1016E000B8FE4FF48070FEF7D1FD01210248FEF7ED
:1016F000DBFD0BB000BD000030000240044800409C
:101700002803002070B505460C46E1B2284600F0DB
:101710000BF8A0B203490862012102481C30FEF711
:10172000C3FD70BD0000024030B58BB005460C46CD
:1017300000211348FEF7B8FD1148FEF7C1FD11481E
:1017400000900195102002900394002004908020C6
:10175000059000200690079008904FF440500990A3
:1017600000200A9069460648FEF773FE1020FEF737
:101770008DFD012202210248FEF762FE0BB030BD52
:101780001C0002400448004008B548208DF80300C2
:101790004FF40060ADF8000069460948FEF778FE96
:1017A00003208DF8020018208DF803004FF48060AC
:1017B000ADF8000069460248FEF76AFE08BD000069
:1017C000000C014010B501210846FEF735FF01214C
:1017D0000920FEF751FF01218804FEF73DFF10BDEF
:1017E00070B5FFF759F814480068144AB0FBF2F1DD
:1017F000B1F1807F00D31DE021F07F40401E4FF00B
:10180000E022506150170F22002807DA13071D0E3F
:101810000B4B00F00F04241F1D5503E013071C0E93
:10182000084B1C5400BF00204FF0E02290610720BD
:10183000106100BF70BD00000800002040420F0092
:1018400018ED00E000E400E000B5024603E04FF4CC
:101850007A7000F007F8101EA2F101018AB2F6D1E9
:1018600000BD00000349086000BF02490968002963
:10187000FBD170470000002010B503460C46D8B2DB
:10188000FFF718FE184610BD30B5014600200022B3
:1018900000230C78FF2C1DD14C78FF2C1AD18C78AA
:1018A000CD786C400D796C404D796C408D796C40F1
:1018B000CD796C400D7A6C404D7A6C408D7A6C40DD
:1018C000CD7A6C400D7B6C404D7B6C4062B28C7B62
:1018D00063B202E04FF0FF3030BD934202D04FF0D0
:1018E000FF30F9E7114C002525606560A5608C7814
:1018F0000E4D2C70CC786C700C79AC704C79EC700F
:101900008C792C71CD79094C65710D7AA5714D7A60
:10191000E5718C7A054D2C72CD7A044C65720D7B85
:10192000A5724D7BE57200BFD6E700000C010020D8
:10193000FFF756FFFFF79EFBFFF7E2FD4FF47A70CB
:10194000FFF782FF06A0FFF721F908E012A0FFF7DA
:101950001DF9FFF7D9FC4FF47A70FFF775FFF5E733
:101960000A0D2D2D2D2D2D2D2D2D2D2D2D2D2D2DEA
:101970006D6F62696C6562617365B2E2CAD42D2DC8
:101980002D2D2D2D2D2D2D2D2D2D2D2D2D2D2D2D87
:101990002D2D2D0A200000000A0D2D2D2D2D2D2D71
:1019A0002D2D2D2D2D2D2D2DCAFDBEDDB7A2CBCD7C
:1019B0002D2D2D2D2D2D2D2D2D2D2D2D2D2D2D2D57
:1019C0002D2D2D2D2D0A2000E819000800000020E3
:1019D00034000000AC0B00081C1A00083400002082
:1019E00034070000BC0B00080000000000000000ED
:1019F00000A24A04000000000000000001020304ED
:101A000006070809000000000102030401020304A4
:0C1A100006070809020406080000000098
:0400000508000131BD
:00000001FF
