:020000040800F2
:100000001805002001010008931100082B0F0008BB
:100010009111000899010008F11500080000000086
:10002000000000000000000000000000B711000800
:100030009B01000800000000B5110008B91100087C
:100040001B0100081B0100081B0100081B01000820
:100050001B0100081B0100081B0100081B01000810
:100060001B0100081B0100081B0100081B01000800
:100070001B0100081B0100081B0100081B010008F0
:100080001B0100081B0100081B0100081B010008E0
:100090001B0100081B0100081B010008A501000846
:1000A0001B0100081B0100081B0100081B010008C0
:1000B0001B0100081B0100081B0100081B010008B0
:1000C0001B0100081B0100081B0100081B010008A0
:1000D0001B0100081B0100081B0100081B01000890
:1000E0009D0100081B0100081B010008DFF80CD06F
:1000F00000F040F800480047A1170008180500204C
:100100000648804706480047FEE7FEE7FEE7FEE7B1
:10011000FEE7FEE7FEE7FEE7FEE7FEE70D1200085A
:10012000ED000008D2B201E000F8012B491EFBD21D
:1001300070470022F6E710B513460A4604461946F2
:10014000FFF7F0FF204610BD30B50B4601460020FA
:100150002022012409E021FA02F59D4205D303FA89
:1001600002F5491B04FA02F52844151EA2F101020A
:10017000F1DC30BD064C074D06E0E06840F00103BD
:1001800094E8070098471034AC42F6D3FFF7B2FF6B
:100190005818000878180008FEE770474FF4005020
:1001A00000F018B8802000F015B8704770B504460C
:1001B00000F000F90546601C02D0044800780444B1
:1001C00000F0F8F8401BA042FAD370BD00000020F8
:1001D00070470000044910B50A68024202D0086066
:1001E000FFF7F6FF10BD0000140401402DE9F84FA1
:1001F000DFF890A100220AF1040B144601274FF00A
:100200000F090BF1040E00BF0B6807FA04F52B4031
:10021000AB4274D1DFF870C14E68A6EB0C0866459E
:100220002BD00DDC032E34D005DC36B3012E19D0D3
:10023000022E2FD11BE0112E16D0122E2AD119E03A
:10024000B8F5881F19D006DCB8F5803F15D0B8F591
:10025000801F1FD111E0B8F5001F0ED0B8F5041FA4
:1002600018D10AE0CA6815E0CA68121D12E0CA680F
:1002700008320FE0CA680C320CE08A682AB1012A01
:100280004FF0080203D0456104E0042202E005615A
:1002900000E00022FF2B01D8064601E000F1040631
:1002A0004FEA840501D9A5F12005D6F800C009FA66
:1002B00005F82CEA080C02FA05F54CEA050CC6F81C
:1002C00000C04D68ED0057D5304DAE6946F00106CF
:1002D000AE61AD6924F0030605F0010500952C4DD3
:1002E00006EB050CDCF80850A6074FEA167809FA69
:1002F00008F6B543274EB04202D1002610E03BE09D
:10030000254EB04201D101260AE0244EB04201D16F
:10031000022605E0224EB04201D1032600E0042669
:1003200006FA08F62E43CCF808604D68DAF800604B
:10033000ED03554601D51E4300E09E432E604D68F7
:10034000DBF80060AD035D4601D51E4300E09E432F
:100350002E604D68DEF80060ED02754601D51E4343
:1003600000E09E432E604D68AD020E4D2E6801D513
:100370001E4300E09E432E60641C102CFFF444AF2B
:10038000BDE8F88F00040140000011100010024089
:100390000000014000080140000C01400010014035
:1003A000001401400C0401400AB1016170470904C6
:1003B000FBE7000001488068704700000000002053
:1003C0000248816802781144816070470000002073
:1003D000074810B5016841F010010160032000F0EA
:1003E00073F8002000F006F800F024F8002010BD9B
:1003F0000020024070B50D4D04464FF47A71287804
:10040000B1FBF0F00A490968B1FBF0F000F0FCFA2A
:1004100048B9102C07D200222146501E00F034F8B3
:1004200000206C6070BD012070BD00000000002045
:100430000C0000200C4808B5816941F00101816180
:10044000816901F001010091C16941F08051C161F0
:10045000C06900F0805000900448416821F0E061DC
:1004600041F00071416008BD0010024000000140F1
:1004700000F01F02012191404009800000F1E020BE
:10048000C0F8001170470000F0B40E4B1B680C461A
:10049000C3F30223C3F10705042D00D90425191D58
:1004A000072901D2002300E0DB1E012606FA05F130
:1004B000491E214099409E40761E16403143F0BCB3
:1004C00000F068BE0CED00E0064900F00702086885
:1004D0004FF6FF03184040EA0220034A1043086029
:1004E000704700000CED00E00000FA052DE9F04730
:1004F000DFF8548105460E46D8F8000000F00700EA
:10050000B0420CD2D8F8001021F007013143C8F8EE
:100510000010D8F8000000F00700B0426FD1286842
:100520004A4C810712D5400703D5606840F4E0606B
:1005300060602878000703D5606840F46050606010
:100540006068A96820F0F000084360602878C00760
:1005500044D06868012816D02168022816D089077F
:1005600000294CDA616821F0030101436160FFF763
:1005700021FF6968074641F2883001290ED002291F
:10058000814618D026E021688903E9E78901E7E779
:10059000FFF710FFC11B494501D918E0814660688B
:1005A000C0F381000128F3D118E000BFFFF702FF7C
:1005B000C11B49450BD86068C0F381000228F5D102
:1005C0000CE000BFFFF7F6FEC11B494502D903202E
:1005D000BDE8F087606810F00C0FF3D1D8F8001078
:1005E000404601F00701B1420BD9016821F0070133
:1005F00031430160006800F00700B04201D00120E3
:10060000E6E72878400705D56068E96820F4E060EF
:10061000084360602878000706D56068296920F4DF
:10062000605040EAC100606000F036F86168084A36
:10063000C1F30311515CC840064908600020FFF770
:10064000D9FE0020C4E70000002002400010024054
:10065000401800080C00002004480549006849685B
:10066000044AC1F30221515CC84070470C000020CD
:100670000010024050180008044805490068496805
:10068000044AC1F3C221515CC84070470C000020ED
:10069000001002405018000812A185B00FC98DE863
:1006A0000F0014A0144A006804905168134801F028
:1006B0000C03042B10D0082B0ED1C1F38343C903C4
:1006C0001DF803000AD5516804AAC1F34041515CEA
:1006D0000A4A5043B0FBF1F005B07047084948435F
:1006E000FAE7000002030405060708090A0B0C0DCF
:1006F0000E0F1010010200000010024000127A00DC
:1007000000093D002DE9F84F04460078B94DC007B7
:1007100048D06868C0F38100012807D06868C0F33A
:100720008100022809D16868C00306D528688003C3
:1007300038D5606800286FD034E06068B0F5803F3D
:100740000BD010B1B0F5A02F11D0286820F4803064
:100750002860286820F4802002E0286840F4803077
:100760002860606888B1FFF725FE064609E0286822
:1007700040F480202860F0E7FFF71CFE801B64280F
:1007800075D828688003F7D50CE0FFF713FE0646FE
:1007900005E000BFFFF70EFE801B6428F0D8286834
:1007A0008003F7D42078944E80074FF001094FF072
:1007B00000083BD5686810F00C0F07D06868C0F3DC
:1007C0008100022809D16868C00306D42868800720
:1007D00014D5206901281FD110E02069B0B1C6F8F6
:1007E0000090FFF7E7FD074605E000BFFFF7E2FDD9
:1007F000C01B0228C4D828688007F7D5286861691B
:1008000020F0F80040EAC10028600FE0C6F8008040
:10081000FFF7D0FD074606E0E9E000BFFFF7CAFD9D
:10082000C01B022823D828688007F7D42078000747
:100830002CD57248A169D9B1C0F80090FFF7BAFD74
:10084000074604E0FFF7B6FDC01B02280FD8686A10
:100850008007F7D56A484FF4FA510068B0FBF1F011
:10086000009000BF0098411E0091FAD20EE080E097
:10087000C0F80080FFF79EFD074604E0FFF79AFDF1
:10088000C01B022875D8686A8007F7D42078400713
:1008900060D5E8690027C00008D4E86940F08050BE
:1008A000E861E869012700F0805000905548016830
:1008B000C90513D40168834641F480710160FFF7D4
:1008C00079FD824606E000BFFFF774FDA0EB0A0049
:1008D00064284ED8DBF80000C005F5D5E068012893
:1008E0000AD008B1052813D0286A20F00100286238
:1008F000286A20F0040002E0286A40F00100286223
:10090000E06841F2883B98B1FFF754FD82460BE066
:10091000286A40F004002862EEE700BFFFF74AFDB6
:10092000A0EB0A0159455AD8286A8007F6D50CE091
:10093000FFF740FD824605E0FFF73CFDA0EB0A0112
:1009400059454CD8286A8007F6D41FB1E86920F0D1
:100950008050E861E06988B36968C1F381010229C8
:1009600045D00228C6F8608004D0FFF723FD044676
:1009700038E034E0FFF71EFD074604E0FFF71AFDFC
:10098000C01B02282BD828688001F7D4206AB0F554
:10099000803F05D16868A16820F400300843686092
:1009A000D4E908010843696821F4741108436860B8
:1009B000C6F86090FFF7FEFC044606E015E000BFB5
:1009C000FFF7F8FC001B022809D828688001F7D53A
:1009D0000BE000BFFFF7EEFC001B022802D903204A
:1009E000BDE8F88F28688001F4D40020F8E70120E2
:1009F000F6E700000010024000004242800442423C
:100A00000C0000200070004010B5401EB0F1807F47
:100A100001D3012010BD4FF0E02460610F21601769
:100A200000F0B8FB0020A06107202061002010BD6D
:100A300030B590F83C20012A20D0012280F83C20DB
:100A4000022380F83D3003685C6824F070045C6029
:100A500003685C680D682C435C6003689C6824F044
:100A600080049C6003689C6849680C439C6080F823
:100A70003D20002180F83C10084630BD022030BDEA
:100A80002DE9F0410D46040003D094F83D0018B163
:100A900008E00120BDE8F081002084F83C002046F9
:100AA00000F03AF8022084F83D002068816821F0C7
:100AB00007018160211D206800F0CCFB226890684E
:100AC0009169166A2B68AF69034340F20330814392
:100AD00041EA0721A868EF6908434FF6FC418843C3
:100AE000E96840EA0720014328692F6A000140EACB
:100AF0000730084369686D6926F0AA0646EA0515BD
:100B0000294393602268906120680162012084F883
:100B10003D000020BEE7000000B585B00021009137
:100B2000019102910391194B0268194919489A429F
:100B300012D18A6942F400628A618A6902F4006211
:100B400004928A6942F004028A61896901F0040111
:100B500004914FF4407113E0B2F1804F14D1CA698F
:100B600042F00102CA61CA6902F0010204928A6974
:100B700042F004028A61896901F0040104910321B1
:100B800000916946FFF732FB05B000BD002C014023
:100B9000001002400008014010B50446006891B101
:100BA000042904D00122002100F08AFB20680122E0
:100BB0005FF0040100F084FB2068016841F001014E
:100BC0000160002010BD01220021F3E700B585B0CF
:100BD0000021009101910291039100680F49884220
:100BE0001AD10F48816941F0080181618069694625
:100BF00000F0080004903020009002200190039043
:100C00000848FFF7F3FA0848416821F4406141F0D1
:100C1000E06141F40061416005B000BD00040040A6
:100C200000100240000C01400000014070B5044675
:100C300090F83C000D4601280DD0012684F83C6058
:100C4000022084F83D0042B1042A18D0082A2AD094
:100C50000C2A4DD139E0022070BD206800F03CFB29
:100C60002068816941F0080181612068816921F073
:100C700004018161206881692A69114311E02068BB
:100C800000F052FB2068816941F4006181612068B5
:100C9000816921F480618161206881692A6941EA62
:100CA0000221816124E0206800F06AFB2068C169AC
:100CB00041F00801C1612068C16921F00401C161EE
:100CC0002068C1692A69114311E0206800F084FBA3
:100CD0002068C16941F40061C1612068C16921F4E3
:100CE0008061C1612068C1692A6941EA0221C1614C
:100CF00084F83D60002084F83C0070BD10B504000D
:100D000003D094F83D0010B107E0012010BD002091
:100D100084F83C00204600F00DF8022084F83D00E5
:100D2000211D206800F096FA012084F83D00002083
:100D300010BD000008B500680649884208D1064881
:100D4000C16941F00201C161C06900F00200009078
:100D500008BD0000000400400010024010B5044629
:100D60000068012200F0ACFA07492068884203D1EC
:100D7000416C41F4004141642068016841F0010187
:100D80000160002010BD0000002C014070B504007F
:100D900004D094F83900002510B106E0012070BDA0
:100DA00084F83850204600F023F8242084F83900D5
:100DB0002068C16821F40051C160204600F02EFB7C
:100DC0002068016921F4904101612068416921F0A6
:100DD0002A0141612068C16841F40051C160E563A6
:100DE000202084F8390084F83A00002070BD00000B
:100DF00030B585B0002400940194029403940068F7
:100E0000174988422AD11748816941F4804181619C
:100E1000816901F480410491816941F00801816197
:100E20008069114D00F008000490402000900220DD
:100E300001900320039069462846FFF7D7F98020E8
:100E4000CDE90004694628460294FFF7CFF9074828
:100E5000416841F0E06141F00401416005B030BDFE
:100E60000038014000100240000C01400000014029
:100E70002DE9F843044690F839001F4616460D4602
:100E8000202850D1A5B19EB194F8380001284AD04D
:100E9000012084F838004FF00008C4F83C8021207D
:100EA00084F83900FFF786FAA6848146E68426E0B6
:100EB0000120BDE8F883E08C401EE084A0684B462A
:100EC000B0F5805F4FF000024FF0800120460097A0
:100ED00003D000F05BFBE8B90DE000F057FBC8B9A8
:100EE00028882168C0F308004860206908B16D1C9B
:100EF00005E0AD1C03E0216815F8010B4860E08CAB
:100F00000028D8D14B46002240212046009700F00F
:100F10003DFB08B10320CCE7202084F8390084F899
:100F200038800020C5E70220C3E7FEE730B585B072
:100F300000242D480094019402940394816941F0A7
:100F400010018161816901F010010491816941F012
:100F500020018161816901F020010491816941F0E2
:100F600004018161816901F004010491816941F00A
:100F70000801816180691D4D00F008000490002285
:100F80003C212846FFF710FA681400901848CDE974
:100F9000010469461748FFF729F93C200090012019
:100FA000CDE901040220039069462846FFF71EF9A7
:100FB000802000901048CDE9010469462846FFF7DB
:100FC00015F9002211461720FFF75EFA1720FFF7E8
:100FD0004FFA002211462820FFF756FA2820FFF783
:100FE00047FA05B030BD0000001002400008014083
:100FF00000002110001001400000111010B58CB04D
:1010000024216846FFF795F80024164809941449EE
:101010000A9401600321C0E901144FF6FF72C0E990
:1010200003244461846100910120CDE901400394CF
:101030000494CDE90540079469460A480894FFF7EF
:101040001FFD08B1FFF7B1F8099409A905480A94F2
:10105000FFF7EEFC002801D0FFF7A7F80CB010BD99
:10106000002C01401400002010B58CB024216846EB
:10107000FFF75FF80024164809944FF080410A9466
:1010800001600321C0E901144FF6FF72C0E9032497
:10109000846100910120CDE901400F21CDE9034198
:1010A000CDE90540CDE9074169460948FFF7E8FC6D
:1010B00008B1FFF77AF8099409A905480A94FFF7DF
:1010C000B7FC002801D0FFF770F80CB010BD00008D
:1010D0005400002010B58AB0002407941C216846F3
:1010E0000894FFF726F81B481949016041F61F4193
:1010F000C0E9011440F2CF71C0E90314802181617D
:10110000FFF7FCFD08B1FFF750F8079407A9114855
:101110000894FFF78DFC08B1FFF747F86020CDE990
:1011200000040294002269460A480494FFF77EFDF9
:1011300008B1FFF73AF8042269460648FFF776FD42
:1011400008B1FFF732F80348FFF740FD0AB010BDC1
:1011500000040040940000200C4810B50A490160CA
:101160004FF4E1314160002181600C22C160C0E98F
:1011700004128161C161FFF709FE002803D0BDE8B8
:101180001040FFF712B810BD00380140D400002015
:10119000FEE770470907090E002806DA00F00F0085
:1011A00000F1E02080F8141D704700F1E02080F885
:1011B0000014704770477047FFF702B930B58FB021
:1011C00028216846FEF7B5FF14210AA8FEF7B1FFF3
:1011D00001210804CDE900100024029402250491A5
:1011E000CDE907504FF4E01009906846FFF78AFAFE
:1011F0000F20CDE90A056802CDE90C4002210AA8BA
:101200000E94FFF773F90FB030BD00000D48016870
:1012100041F00101016041680B4A114041600168E1
:101220000A4A11400160016821F48021016041688F
:1012300021F4FE0141604FF41F0181600449C003A5
:1012400008607047001002400000FFF8FFFFF6FE44
:1012500008ED00E0F0B50268164B174C174D4FF043
:101260008047984205D0B84203D0A04201D0A8429E
:1012700003D122F070064A683243984205D0B84242
:1012800003D0A04201D0A84203D122F44074CA681E
:10129000224322F080044A69224302608A68C262C3
:1012A0000A688262984201D10969016301214161A2
:1012B000F0BD0000002C0140000400400008004088
:1012C00010B50123046A8B409C430462036A8A4080
:1012D0001343036210BD000030B5026A22F0010220
:1012E0000262026A4368846924F073050C682C4327
:1012F00022F002058A682A430A4DA8420BD122F047
:101300000805CA6823F440732A434D6922F0040299
:101310001D438B692B4343608461496841630262CA
:1013200030BD0000002C014030B5026A22F01002EE
:101330000262026A436884690D6824F4E64444EA60
:1013400005248D6822F0200242EA05120B4DA842C6
:101350000ED1CD6822F0800242EA05124D6923F4D5
:10136000406343EA85038D6922F0400243EA850326
:101370004360846149688163026230BD002C014092
:1013800030B5026A22F480720262036A4268C4695C
:1013900023F4007324F073050C682C438D6843EA32
:1013A00005230C4DA8420ED1CD6823F4006343EA17
:1013B00005234D6922F4405242EA05128D6923F457
:1013C000806342EA05124260C4614968C1630362F6
:1013D00030BD0000002C014030B5026A22F480527A
:1013E0000262046A4268C3690D6823F4E64343EA73
:1013F00005238D6824F4005444EA0534064DA842C0
:1014000004D14D6922F4804242EA85124260C361F0
:1014100049680164046230BD002C01402DE9F041AF
:10142000044600680169E26821F4405111430161FA
:101430002169A0680843616908432168CA6841F2CC
:101440000C639A430243CA6020684169A26921F48F
:101450004071114341614C4920686425322688421D
:101460003CD1FFF709F900EBC00101EB0010616806
:101470008900B0FBF1F7FFF7FFF800EBC00101EBCB
:1014800000106168B0468900B0FBF1F0B0FBF5F0E8
:101490006FF01801484307EB800106EB0110B0FB29
:1014A000F5F000F0F006FFF7E7F800EBC00101EB04
:1014B000001061688900B0FBF1F0B0FBF5F006EBBD
:1014C0000016FFF7D9F800EBC00101EB00106168CE
:1014D0008900B0FBF1F7FFF7CFF83BE0FFF7BCF86E
:1014E00000EBC00101EB001061688900B0FBF1F76F
:1014F000FFF7B2F800EBC00101EB00106168B046E5
:101500008900B0FBF1F0B0FBF5F06FF01801484333
:1015100007EB800106EB0110B0FBF5F000F0F006E0
:10152000FFF79AF800EBC00101EB00106168890039
:10153000B0FBF1F0B0FBF5F006EB0016FFF78CF80E
:1015400000EBC00101EB001061688900B0FBF1F70E
:10155000FFF782F800EBC00101EB00106168890021
:10156000B0FBF1F0B0FBF5F06FF01801484307EB6A
:10157000800108EB0110B0FBF5F0216800F00F00CE
:1015800030448860BDE8F081003801402DE9F04129
:10159000984617460E460446069D1DE0681C1BD063
:1015A0002DB1FEF707FFA0EB0800A84214D9206870
:1015B000C16821F4D071C1602068416921F0010146
:1015C0004161202084F8390084F83A00002084F832
:1015D00038000320BDE8F0812068006836EA00008A
:1015E00004D00020B842D9D00020F3E70120F9E769
:1015F000FEE700000FB4054B10B503A9044A02989A
:1016000000F018F810BC5DF814FB00008917000802
:101610001000002002E008C8121F08C1002AFAD1F9
:1016200070477047002001E001C1121F002AFBD162
:10163000704700002DE9FF4F89B09B460446002506
:1016400006E025280BD05A460B999047641C6D1C68
:1016500020780028F5D10DB02846BDE8F08F00278E
:10166000B8460122474900E0074314F8013F203BF8
:1016700002FA03F00842F7D120782E2819D114F885
:10168000010F47F004072A280ED06FF02F022078B0
:10169000A0F1300109290CD808EB880102EB4101C7
:1016A00000EB0108641CF2E70A98641C50F8048BF4
:1016B0000A9020780028CED0642808D0692806D067
:1016C00075281ED05A460B9990476D1C58E00A9910
:1016D0004FF00A0901C90A91002802DA40422D217F
:1016E00002E0390504D52B218DF82010012103E0FB
:1016F000F90704D02021F7E78A4608AE0DE0002163
:10170000FAE70A994FF00A0901C90A91F7E7494631
:10171000FEF71AFD303106F8011D0028F7D1ADEBB8
:10172000060000F12009780701D44FF00108C845F0
:1017300002DDA8EB090000E000208046002706E05B
:1017400008A85A46C05D0B9990476D1C7F1C5745F1
:10175000F6DB04E030205A460B9990476D1CB8F137
:101760000001A8F10108F5DC05E016F8010B5A4666
:101770000B9990476D1CB9F10001A9F10109F4DC46
:10178000641C65E70928010008B502238DF80000F4
:10179000012269460148FFF76BFB08BDD400002019
:1017A000FEF716FEFFF70AFDFFF7C0FBFFF75CFC34
:1017B000FFF790FCFFF722FCFFF7CEFC1821124840
:1017C000FFF7EAF900211148FFF7C8FA104C01228F
:1017D00010212046FEF7E8FD002220212046FEF7DA
:1017E000E3FD00224FF4FA61084800F015F8064CBA
:1017F0004FF47A752846FEF7D9FC2068416A05A0A7
:10180000FFF7F8FEF6E700005400002094000020E7
:10181000000801402564000030B587B00446602010
:10182000CDE9000100210291049115466946204648
:10183000FFF7FCF929462046FFF790FA07B030BDC4
:101840000000000000000000010203040607080970
:1018500000000000010203047818000800000020C6
:1018600014000000141600088C1800081400002052
:10187000040500002416000801000000100000000C
:0C1880000000000000A24A04000000006C
:04000005080000ED02
:00000001FF
