:020000040800F2
:10000000D80400200101000813100008970E000812
:100010001110000899010008711400080000000088
:100020000000000000000000000000003710000881
:100030009B0100080000000035100008391000087E
:100040001B0100081B0100081B0100081B01000820
:100050001B0100081B0100081B0100081B01000810
:100060001B0100081B0100081B0100081B01000800
:100070001B0100081B0100081B0100081B010008F0
:100080001B0100081B0100081B0100081B010008E0
:100090001B0100081B0100081B0100081B010008D0
:1000A0001B0100081B0100081B0100081B010008C0
:1000B0001B0100081B0100081B0100081B010008B0
:1000C0001B0100081B0100081B0100081B010008A0
:1000D0001B0100081B0100081B0100081B01000890
:1000E0001B0100081B0100081B010008DFF80CD0F1
:1000F00000F040F80048004721160008D80400200E
:100100000648804706480047FEE7FEE7FEE7FEE7B1
:10011000FEE7FEE7FEE7FEE7FEE7FEE78D100008DC
:10012000ED000008D2B201E000F8012B491EFBD21D
:1001300070470022F6E710B513460A4604461946F2
:10014000FFF7F0FF204610BD30B50B4601460020FA
:100150002022012409E021FA02F59D4205D303FA89
:1001600002F5491B04FA02F52844151EA2F101020A
:10017000F1DC30BD064C074D06E0E06840F00103BD
:1001800094E8070098471034AC42F6D3FFF7B2FF6B
:10019000C4160008E4160008FEE770477047000028
:1001A00070B5044600F0F2F80546601C02D0044821
:1001B0000078044400F0EAF8401BA042FAD370BD76
:1001C000000000202DE9F84FDFF890A100220AF18D
:1001D000040B144601274FF00F090BF1040E00BF6A
:1001E0000B6807FA04F52B40AB4274D1DFF870C1FD
:1001F0004E68A6EB0C0866452BD00DDC032E34D0E0
:1002000005DC36B3012E19D0022E2FD11BE0112EA2
:1002100016D0122E2AD119E0B8F5881F19D006DCA5
:10022000B8F5803F15D0B8F5801F1FD111E0B8F5A3
:10023000001F0ED0B8F5041F18D10AE0CA6815E0F7
:10024000CA68121D12E0CA6808320FE0CA680C3290
:100250000CE08A682AB1012A4FF0080203D04561F8
:1002600004E0042202E0056100E00022FF2B01D837
:10027000064601E000F104064FEA840501D9A5F124
:100280002005D6F800C009FA05F82CEA080C02FA95
:1002900005F54CEA050CC6F800C04D68ED0057D5D1
:1002A000304DAE6946F00106AE61AD6924F003063B
:1002B00005F0010500952C4D06EB050CDCF8085007
:1002C000A6074FEA167809FA08F6B543274EB0425A
:1002D00002D1002610E03BE0254EB04201D10126BC
:1002E0000AE0244EB04201D1022605E0224EB0427F
:1002F00001D1032600E0042606FA08F62E43CCF8C6
:1003000008604D68DAF80060ED03554601D51E43DC
:1003100000E09E432E604D68DBF80060AD035D4653
:1003200001D51E4300E09E432E604D68DEF800605C
:10033000ED02754601D51E4300E09E432E604D68D8
:10034000AD020E4D2E6801D51E4300E09E432E6087
:10035000641C102CFFF444AFBDE8F88F000401408A
:100360000000111000100240000001400008014090
:10037000000C014000100140001401400C04014039
:100380000AB1016170470904FBE700000148806879
:100390007047000000000020024881680278114484
:1003A0008160704700000020074810B5016841F0E7
:1003B00010010160032000F067F8002000F006F84B
:1003C00000F024F8002010BD0020024070B50D4D53
:1003D00004464FF47A712878B1FBF0F00A490968B5
:1003E000B1FBF0F000F0F0FA48B9102C07D200226F
:1003F0002146501E00F028F800206C6070BD0120DE
:1004000070BD0000000000200C0000200C4808B562
:10041000816941F001018161816901F0010100916F
:10042000C16941F08051C161C06900F08050009005
:100430000448416821F0E06141F00071416008BD6D
:100440000010024000000140F0B40E4B1B680C4647
:10045000C3F30223C3F10705042D00D90425191D98
:10046000072901D2002300E0DB1E012606FA05F170
:10047000491E214099409E40761E16403143F0BCF3
:1004800000F0C8BD0CED00E0064900F00702086866
:100490004FF6FF03184040EA0220034A1043086069
:1004A000704700000CED00E00000FA052DE9F04770
:1004B000DFF8548105460E46D8F8000000F007002A
:1004C000B0420CD2D8F8001021F007013143C8F82F
:1004D0000010D8F8000000F00700B0426FD1286883
:1004E0004A4C810712D5400703D5606840F4E060AC
:1004F00060602878000703D5606840F46050606051
:100500006068A96820F0F000084360602878C007A0
:1005100044D06868012816D02168022816D08907BF
:1005200000294CDA616821F0030101436160FFF7A3
:100530002DFF6968074641F2883001290ED0022953
:10054000814618D026E021688903E9E78901E7E7B9
:10055000FFF71CFFC11B494501D918E081466068BF
:10056000C0F381000128F3D118E000BFFFF70EFFB0
:10057000C11B49450BD86068C0F381000228F5D142
:100580000CE000BFFFF702FFC11B494502D9032061
:10059000BDE8F087606810F00C0FF3D1D8F80010B8
:1005A000404601F00701B1420BD9016821F0070173
:1005B00031430160006800F00700B04201D0012023
:1005C000E6E72878400705D56068E96820F4E06030
:1005D000084360602878000706D56068296920F420
:1005E000605040EAC100606000F036F86168084A77
:1005F000C1F30311515CC840064908600020FFF7B1
:10060000E5FE0020C4E70000002002400010024088
:10061000AC1600080C000020044805490068496831
:10062000044AC1F30221515CC84070470C0000200D
:1006300000100240BC1600080448054900684968DB
:10064000044AC1F3C221515CC84070470C0000202D
:1006500000100240BC16000812A185B00FC98DE839
:100660000F0014A0144A006804905168134801F068
:100670000C03042B10D0082B0ED1C1F38343C90304
:100680001DF803000AD5516804AAC1F34041515C2A
:100690000A4A5043B0FBF1F005B07047084948439F
:1006A000FAE7000002030405060708090A0B0C0D0F
:1006B0000E0F1010010200000010024000127A001C
:1006C00000093D002DE9F84F04460078B94DC007F8
:1006D00048D06868C0F38100012807D06868C0F37B
:1006E0008100022809D16868C00306D52868800304
:1006F00038D5606800286FD034E06068B0F5803F7E
:100700000BD010B1B0F5A02F11D0286820F48030A4
:100710002860286820F4802002E0286840F48030B7
:100720002860606888B1FFF731FE064609E0286856
:1007300040F480202860F0E7FFF728FE801B642843
:1007400075D828688003F7D50CE0FFF71FFE064632
:1007500005E000BFFFF71AFE801B6428F0D8286868
:100760008003F7D42078944E80074FF001094FF0B2
:1007700000083BD5686810F00C0F07D06868C0F31C
:100780008100022809D16868C00306D42868800760
:1007900014D5206901281FD110E02069B0B1C6F836
:1007A0000090FFF7F3FD074605E000BFFFF7EEFD01
:1007B000C01B0228C4D828688007F7D5286861695B
:1007C00020F0F80040EAC10028600FE0C6F8008081
:1007D000FFF7DCFD074606E0E9E000BFFFF7D6FDC6
:1007E000C01B022823D828688007F7D42078000788
:1007F0002CD57248A169D9B1C0F80090FFF7C6FDA9
:10080000074604E0FFF7C2FDC01B02280FD8686A44
:100810008007F7D56A484FF4FA510068B0FBF1F051
:10082000009000BF0098411E0091FAD20EE080E0D7
:10083000C0F80080FFF7AAFD074604E0FFF7A6FD19
:10084000C01B022875D8686A8007F7D42078400753
:1008500060D5E8690027C00008D4E86940F08050FE
:10086000E861E869012700F0805000905548016870
:10087000C90513D40168834641F480710160FFF714
:1008800085FD824606E000BFFFF780FDA0EB0A0071
:1008900064284ED8DBF80000C005F5D5E0680128D3
:1008A0000AD008B1052813D0286A20F00100286278
:1008B000286A20F0040002E0286A40F00100286263
:1008C000E06841F2883B98B1FFF760FD82460BE09B
:1008D000286A40F004002862EEE700BFFFF756FDEB
:1008E000A0EB0A0159455AD8286A8007F6D50CE0D2
:1008F000FFF74CFD824605E0FFF748FDA0EB0A013B
:1009000059454CD8286A8007F6D41FB1E86920F011
:100910008050E861E06988B36968C1F38101022908
:1009200045D00228C6F8608004D0FFF72FFD0446AA
:1009300038E034E0FFF72AFD074604E0FFF726FD24
:10094000C01B02282BD828688001F7D4206AB0F594
:10095000803F05D16868A16820F4003008436860D2
:10096000D4E908010843696821F4741108436860F8
:10097000C6F86090FFF70AFD044606E015E000BFE8
:10098000FFF704FD001B022809D828688001F7D56D
:100990000BE000BFFFF7FAFC001B022802D903207E
:1009A000BDE8F88F28688001F4D40020F8E7012022
:1009B000F6E700000010024000004242800442427C
:1009C0000C0000200070004010B5401EB0F1807F88
:1009D00001D3012010BD4FF0E02460610F216017AA
:1009E00000F018FB0020A06107202061002010BD4E
:1009F00030B590F83C20012A20D0012280F83C201C
:100A0000022380F83D3003685C6824F070045C6069
:100A100003685C680D682C435C6003689C6824F084
:100A200080049C6003689C6849680C439C6080F863
:100A30003D20002180F83C10084630BD022030BD2A
:100A40002DE9F0410D46040003D094F83D0018B1A3
:100A500008E00120BDE8F081002084F83C00204639
:100A600000F03AF8022084F83D002068816821F007
:100A700007018160211D206800F02CFB226890682E
:100A80009169166A2B68AF69034340F203308143D2
:100A900041EA0721A868EF6908434FF6FC41884303
:100AA000E96840EA0720014328692F6A000140EA0B
:100AB0000730084369686D6926F0AA0646EA0515FD
:100AC000294393602268906120680162012084F8C4
:100AD0003D000020BEE7000000B585B00021009178
:100AE0000191029103910068B0F1804F16D10C483A
:100AF000C16941F00101C161C16901F001010491C5
:100B0000816941F0040181618069694600F0040057
:100B10000490032000900348FFF754FB05B000BD8C
:100B2000001002400008014010B50446006891B171
:100B3000042904D00122002100F002FB20680122D8
:100B40005FF0040100F0FCFA2068016841F0010147
:100B50000160002010BD01220021F3E700B585B03F
:100B60000021009101910291039100680B49884294
:100B700011D10B48816941F00401816180696946A6
:100B800000F00400049040200090022001900390A7
:100B90000448FFF717FB05B000BD0000000400404B
:100BA000001002400008014070B5044690F83C0077
:100BB0000D4601280DD0012684F83C60022084F8FF
:100BC0003D0042B1042A18D0082A2AD00C2A4DD15F
:100BD00039E0022070BD206800F0BEFA206881690B
:100BE00041F0080181612068816921F0040181617F
:100BF000206881692A69114311E0206800F0D4FA65
:100C00002068816941F4006181612068816921F473
:100C100080618161206881692A6941EA02218161DC
:100C200024E0206800F0ECFA2068C16941F0080176
:100C3000C1612068C16921F00401C1612068C169F6
:100C40002A69114311E0206800F006FB2068C169A1
:100C500041F40061C1612068C16921F48061C16112
:100C60002068C1692A6941EA0221C16184F83D60B6
:100C7000002084F83C0070BD10B5040003D094F847
:100C80003D0010B107E0012010BD002084F83C00B9
:100C9000204600F00DF8022084F83D00211D206858
:100CA00000F018FA012084F83D00002010BD00007B
:100CB00008B500680649884208D10648C16941F074
:100CC0000201C161C06900F00200009008BD00008F
:100CD000000400400010024010B5044600680122E4
:100CE00000F02EFA07492068884203D1416C41F494
:100CF000004141642068016841F001010160002069
:100D000010BD0000002C014070B5040004D094F820
:100D10003900002510B106E0012070BD84F838507C
:100D2000204600F023F8242084F839002068C168A8
:100D300021F40051C160204600F0B0FA206801693A
:100D400021F4904101612068416921F02A0141614B
:100D50002068C16841F40051C160E563202084F837
:100D6000390084F83A00002070BD000030B585B02D
:100D7000002400940194029403940068144988426A
:100D800024D11448816941F480418161816901F471
:100D900080410491816941F00401816180690E4DB7
:100DA00000F0040004904FF40070009002200190C5
:100DB0000320039069462846FFF704FA2815CDE979
:100DC0000004694628460294FFF7FCF905B030BDDF
:100DD0000038014000100240000801402DE9F843AE
:100DE000044690F839001F4616460D46202850D17B
:100DF000A5B19EB194F8380001284AD0012084F8AA
:100E000038004FF00008C4F83C80212084F83900F5
:100E1000FFF7BCFAA6848146E68426E00120BDE8FF
:100E2000F883E08C401EE084A0684B46B0F5805FFC
:100E30004FF000024FF080012046009703D000F0F1
:100E4000E5FAE8B90DE000F0E1FAC8B928882168B0
:100E5000C0F308004860206908B16D1C05E0AD1CB6
:100E600003E0216815F8010B4860E08C0028D8D118
:100E70004B46002240212046009700F0C7FA08B1F7
:100E80000320CCE7202084F8390084F83880002043
:100E9000C5E70220C3E7FEE730B585B0002414485B
:100EA0000094019402940394816941F020018161CE
:100EB000816901F020010491816941F0040181619F
:100EC00080690C4D00F00400049000223021284677
:100ED000FFF756FA302000900120CDE901040320ED
:100EE000039069462846FFF76DF905B030BD000054
:100EF000001002400008014010B58CB02421684663
:100F0000FFF717F90024164809944FF080410A941E
:100F100001600321C0E901144FF6FF72C0E9032408
:100F2000846100910120CDE901400F21CDE9034109
:100F3000CDE90540CDE9074169460948FFF780FD45
:100F400008B1FFF72BF9099409A905480A94FFF79E
:100F50004FFD002801D0FFF721F90CB010BD0000B3
:100F60001400002010B58AB0002407941C216846A4
:100F70000894FFF7DEF817481549016041F61F4154
:100F8000C0E9011440F2CF71C0E903148461FFF796
:100F900073FE08B1FFF702F9079407A90D480894FA
:100FA000FFF726FD08B1FFF7F9F86020CDE900044E
:100FB00002940022694607480494FFF7F5FD08B142
:100FC000FFF7ECF80348FFF7C9FD0AB010BD0000B9
:100FD00000040040540000200C4810B50A4901608C
:100FE0004FF4E1314160002181600C22C160C0E911
:100FF00004128161C161FFF787FE002803D0BDE8BC
:101000001040FFF7CBB810BD00380140940000201D
:10101000FEE770470907090E002806DA00F00F0006
:1010200000F1E02080F8141D704700F1E02080F806
:101030000014704770477047FFF7AEB930B58FB0F6
:1010400028216846FFF775F814210AA8FFF771F800
:1010500001210804CDE90010002402940225049126
:10106000CDE907504FF4E01009906846FFF72AFBDE
:101070000F20CDE90A056802CDE90C4002210AA83B
:101080000E94FFF713FA0FB030BD00000D48016851
:1010900041F00101016041680B4A11404160016863
:1010A0000A4A11400160016821F480210160416811
:1010B00021F4FE0141604FF41F0181600449C00327
:1010C00008607047001002400000FFF8FFFFF6FEC6
:1010D00008ED00E0F0B50268164B174C174D4FF0C5
:1010E0008047984205D0B84203D0A04201D0A84220
:1010F00003D122F070064A683243984205D0B842C4
:1011000003D0A04201D0A84203D122F44074CA689F
:10111000224322F080044A69224302608A68C26244
:101120000A688262984201D1096901630121416123
:10113000F0BD0000002C0140000400400008004009
:1011400010B50123046A8B409C430462036A8A4001
:101150001343036210BD000030B5026A22F00102A1
:101160000262026A4368846924F073050C682C43A8
:1011700022F002058A682A430A4DA8420BD122F0C8
:101180000805CA6823F440732A434D6922F004021B
:101190001D438B692B43436084614968416302624C
:1011A00030BD0000002C014030B5026A22F0100270
:1011B0000262026A436884690D6824F4E64444EAE2
:1011C00005248D6822F0200242EA05120B4DA84248
:1011D0000ED1CD6822F0800242EA05124D6923F457
:1011E000406343EA85038D6922F0400243EA8503A8
:1011F0004360846149688163026230BD002C014014
:1012000030B5026A22F480720262036A4268C469DD
:1012100023F4007324F073050C682C438D6843EAB3
:1012200005230C4DA8420ED1CD6823F4006343EA98
:1012300005234D6922F4405242EA05128D6923F4D8
:10124000806342EA05124260C4614968C163036277
:1012500030BD0000002C014030B5026A22F48052FB
:101260000262046A4268C3690D6823F4E64343EAF4
:1012700005238D6824F4005444EA0534064DA84241
:1012800004D14D6922F4804242EA85124260C36172
:1012900049680164046230BD002C01402DE9F04131
:1012A000044600680169E26821F44051114301617C
:1012B0002169A0680843616908432168CA6841F24E
:1012C0000C639A430243CA6020684169A26921F411
:1012D0004071114341614C4920686425322688429F
:1012E0003CD1FFF7A9F900EBC00101EB00106168E8
:1012F0008900B0FBF1F7FFF79FF900EBC00101EBAC
:1013000000106168B0468900B0FBF1F0B0FBF5F069
:101310006FF01801484307EB800106EB0110B0FBAA
:10132000F5F000F0F006FFF787F900EBC00101EBE4
:10133000001061688900B0FBF1F0B0FBF5F006EB3E
:101340000016FFF779F900EBC00101EB00106168AE
:101350008900B0FBF1F7FFF76FF93BE0FFF75CF9AD
:1013600000EBC00101EB001061688900B0FBF1F7F0
:10137000FFF752F900EBC00101EB00106168B046C5
:101380008900B0FBF1F0B0FBF5F06FF018014843B5
:1013900007EB800106EB0110B0FBF5F000F0F00662
:1013A000FFF73AF900EBC00101EB0010616889001A
:1013B000B0FBF1F0B0FBF5F006EB0016FFF72CF9EF
:1013C00000EBC00101EB001061688900B0FBF1F790
:1013D000FFF722F900EBC00101EB00106168890002
:1013E000B0FBF1F0B0FBF5F06FF01801484307EBEC
:1013F000800108EB0110B0FBF5F0216800F00F0050
:1014000030448860BDE8F081003801402DE9F041AA
:10141000984617460E460446069D1DE0681C1BD0E4
:101420002DB1FEF7B3FFA0EB0800A84214D9206845
:10143000C16821F4D071C1602068416921F00101C7
:101440004161202084F8390084F83A00002084F8B3
:1014500038000320BDE8F0812068006836EA00000B
:1014600004D00020B842D9D00020F3E70120F9E7EA
:10147000FEE700000FB4054B10B503A9044A02981B
:1014800000F018F810BC5DF814FB00000916000805
:101490001000002002E008C8121F08C1002AFAD17B
:1014A00070477047002001E001C1121F002AFBD1E4
:1014B000704700002DE9FF4F89B09B460446002588
:1014C00006E025280BD05A460B999047641C6D1CEA
:1014D00020780028F5D10DB02846BDE8F08F002710
:1014E000B8460122474900E0074314F8013F203B7A
:1014F00002FA03F00842F7D120782E2819D114F807
:10150000010F47F004072A280ED06FF02F02207831
:10151000A0F1300109290CD808EB880102EB410148
:1015200000EB0108641CF2E70A98641C50F8048B75
:101530000A9020780028CED0642808D0692806D0E8
:1015400075281ED05A460B9990476D1C58E00A9991
:101550004FF00A0901C90A91002802DA40422D2100
:1015600002E0390504D52B218DF82010012103E07C
:10157000F90704D02021F7E78A4608AE0DE00021E4
:10158000FAE70A994FF00A0901C90A91F7E74946B3
:10159000FEF7DAFD303106F8011D0028F7D1ADEB7A
:1015A000060000F12009780701D44FF00108C84572
:1015B00002DDA8EB090000E000208046002706E0DD
:1015C00008A85A46C05D0B9990476D1C7F1C574573
:1015D000F6DB04E030205A460B9990476D1CB8F1B9
:1015E0000001A8F10108F5DC05E016F8010B5A46E8
:1015F0000B9990476D1CB9F10001A9F10109F4DCC8
:10160000641C65E70928010008B502238DF8000075
:10161000012269460148FFF7E1FB08BD9400002064
:10162000FEF7C2FEFFF70AFDFFF736FCFFF7D4FC1A
:10163000FFF762FCFFF796FC18210E48FFF774FADB
:101640000D4C012204212046FEF79AFE00220521BE
:101650002046FEF795FE074D4FF47A742046FEF7BC
:101660009FFD2868416A05A0FFF704FF204600F0AF
:1016700007F8F3E71400002000080140256400008B
:1016800000B587B06021CDE900100020029002462D
:10169000049069460448FFF787FA00210248FFF7E3
:1016A0001BFB07B000BD000054000020000000003C
:1016B0000000000001020304060708090000000002
:1016C00001020304E41600080000002014000000DA
:1016D00094140008F816000814000020C404000048
:1016E000A414000801000000100000000000000029
:0816F00000A24A040000000002
:04000005080000ED02
:00000001FF
