:020000040800F2
:100000004804002045010008FB0D0008990D000878
:10001000F90D0008B1010008D50E0008000000002D
:100020000000000000000000000000001F0E00089B
:10003000B3010008000000001D0E0008210E00089A
:100040005F0100085F0100085F0100085F01000810
:100050005F0100085F0100085F0100085F01000800
:100060005F0100085F0100085F0100085F010008F0
:100070005F0100085F0100085F0100085F010008E0
:100080005F0100085F0100085F010008BD0E000865
:10009000C90E00085F0100085F0100085F01000849
:1000A0005F0100085F0100085F0100085F010008B0
:1000B0005F0100085F0100085F0100085F010008A0
:1000C0005F0100085F0100085F0100085F01000890
:1000D0005F0100085F0100085F0100085F01000880
:1000E0005F0100085F0100085F0100085F01000870
:1000F0005F0100085F0100085F0100085F01000860
:100100005F0100085F0100085F0100085F0100084F
:100110005F0100085F0100085F0100085F0100083F
:100120005F0100085F0100085F0100085F0100082F
:10013000DFF80CD000F02AF800480047F50E000860
:10014000480400200648804706480047FEE7FEE7CF
:10015000FEE7FEE7FEE7FEE7FEE7FEE7FEE7FEE777
:10016000750E000831010008D2B201E000F8012B41
:10017000491EFBD270470022F6E710B513460A4627
:1001800004461946FFF7F0FF204610BD064C074D08
:1001900006E0E06840F0010394E807009847103457
:1001A000AC42F6D3FFF7C8FF180F0008380F00085D
:1001B000FEE77047704770472DE9F05F054600681D
:1001C00000244669D0F804908768D0F80CB0D0F8C5
:1001D00010A0D0F81880F10748D0F90714D00121F9
:1001E0008160B80703D5284600F0BEF90CE0780717
:1001F00002D54FF4006407E0380702D54FF480546D
:1002000002E0284600F0AFF9F80516D529684FF44A
:1002100080708860B80503D5284600F0A7F90CE087
:10022000780502D544F4005407E0380502D544F4BB
:10023000804402E0284600F098F9F80316D52968B2
:100240004FF480308860B80303D5284600F090F959
:100250000CE0780302D544F4004407E0380302D5EB
:1002600044F4803402E0284600F081F9300707D5D5
:100270005FEACB6004D52968102044F40074C8609C
:1002800070074FF0080707D55FEA0B7004D52868A0
:10029000C760284600F062F9B00706D52868C06834
:1002A000800702D0284600F05AF9700607D55FEAA9
:1002B000CA6004D52968102044F480640861B0063F
:1002C00007D55FEA0A7004D528680761284600F060
:1002D00047F9F00606D528680069800702D028464D
:1002E00000F03FF9B00308D55FEAC96005D5296879
:1002F00010204860284600F035F9F00307D55FEA82
:10030000097004D528684760284600F032F93004A7
:1003100046D55FEA497040D5F00504D55FEAC8705C
:1003200001D044F00104B00504D55FEA887001D51E
:1003300044F00204700504D55FEA487001D544F02A
:100340000404300529D518F0700F26D008F070008D
:10035000402815D006DC102809D020280AD03028E3
:1003600016D10AE050280ED0602811D10EE044F0DA
:1003700008040DE044F010040AE044F0200407E013
:1003800044F0400404E044F0800401E044F480744C
:100390002868816921F07001816129680420486022
:1003A000002C05D0686A204368622846FFF703FFE7
:1003B000BDE8F09F70B5040003D094F8200010B1A0
:1003C00004E0012070BD204600F082F8206801683A
:1003D00021F00201016000F0C1F90546052604E0A4
:1003E00000F0BCF9401B0A2811D82068406880073B
:1003F000F6D42068016841F00101016000F0AEF917
:1004000005460BE000F0AAF9401B0A2806D9606AED
:1004100040F40030606284F82060D2E720684068D1
:10042000C007EFD0207E0128206801683DD021F070
:1004300080010160607E01282068016838D021F0C9
:1004400040010160A07E01282068016833D021F0BE
:1004500020010160E07E0128206801682ED041F073
:1004600010010160207F01282068016829D021F057
:1004700008010160607F01282068016824D021F014
:1004800004010160D4E902010843D4E904121143D4
:1004900008436168491E08432168C8610020606202
:1004A000012084F82000002070BD41F08001C0E7E9
:1004B00041F04001C5E741F02001CAE721F01001F9
:1004C000CFE741F00801D4E741F00401D9E700008B
:1004D00010B586B00021009101910291039100684E
:1004E0001B49884232D11B48C16941F00071C1618A
:1004F000C16901F000710491816941F004018161D9
:100500008069154C00F0040004904FF400600090E6
:100510006946204600F02EF8A014009002200190B9
:10052000032003906946204600F024F8002211467B
:10053000132000F07DF9132000F06EF9002211461F
:10054000142000F075F9142000F066F906B010BD13
:1005500000640040001002400008014070477047EE
:1005600070477047704770477047704770477047D3
:10057000704770472DE9F84FDFF8B8A100220AF163
:10058000040B144601274FF00F090BF1040E00BFB6
:100590000B6807FA04F52B40AB4274D1DFF898C121
:1005A0004E68A6EB0C0866452BD00DDC032E34D02C
:1005B00005DC36B3012E19D0022E2FD11BE0112EEF
:1005C00016D0122E2AD119E0B8F5881F19D006DCF2
:1005D000B8F5803F15D0B8F5801F1FD111E0B8F5F0
:1005E000001F0ED0B8F5041F18D10AE0CA6815E044
:1005F000CA68121D12E0CA6808320FE0CA680C32DD
:100600000CE08A682AB1012A4FF0080203D0456144
:1006100004E0042202E0056100E00022FF2B01D883
:10062000064601E000F104064FEA840501D9A5F170
:100630002005D6F800C009FA05F82CEA080C02FAE1
:1006400005F54CEA050CC6F800C04D68ED006AD50A
:100650003A4DAE6946F00106AE61AD6924F003067D
:1006600005F001050095364D06EB050CDCF8085049
:10067000A6074FEA167809FA08F6B543314EB0429C
:1006800002D100261AE04EE02F4EB04201D10126E1
:1006900014E02E4EB04201D102260FE02C4EB042A3
:1006A00001D103260AE02B4EB04201D1042605E019
:1006B000294EB04201D1052600E0062606FA08F6CA
:1006C0002E43CCF808604D68DAF80060ED0355461B
:1006D00001D51E4300E09E432E604D68AD0305D555
:1006E000DBF800601E43CBF8006004E0DBF800504C
:1006F0009D43CBF800504D68DEF80060ED02754672
:1007000001D51E4300E09E432E604D68AD0205D525
:10071000084D0C352E681E432E6004E0054E0C3645
:1007200035689D433560641C102CFFF431AFBDE883
:10073000F88F00000004014000001110001002407A
:100740000000014000080140000C01400010014081
:100750000014014000180140001C0140014880685D
:1007600070470000000000200248816802781144B0
:100770008160704700000020074810B5016841F013
:1007800010010160032000F073F8002000F006F86B
:1007900000F024F8002010BD0020024070B50D4D7F
:1007A00004464FF47A712878B1FBF0F00A490968E1
:1007B000B1FBF0F000F0DCFA48B9102C07D20022AF
:1007C0002146501E00F034F800206C6070BD0120FE
:1007D00070BD0000000000200C0000200C4808B58F
:1007E000816941F001018161816901F0010100919C
:1007F000C16941F08051C161C06900F08050009032
:100800000448416821F0E06141F08061416008BD29
:10081000001002400000014000F01F020121914041
:100820004009800000F1E020C0F80011704700008E
:10083000F0B40E4B1B680C46C3F30223C3F107054B
:10084000042D00D90425191D072901D2002300E039
:10085000DB1E012606FA05F1491E214099409E4003
:10086000761E16403143F0BC00F0C8BA0CED00E033
:10087000064900F0070208684FF6FF03184040EAF7
:100880000220034A10430860704700000CED00E0AE
:100890000000FA052DE9F047DFF8548105460E46C1
:1008A000D8F8000000F00700B0420CD2D8F80010D1
:1008B00021F007013143C8F80010D8F8000000F01B
:1008C0000700B0426FD128684A4C810712D5400713
:1008D00003D5606840F4E06060602878000703D5C5
:1008E000606840F4605060606068A96820F0F000C3
:1008F000084360602878C00744D06868012816D093
:100900002168022816D0890700294CDA616821F095
:10091000030101436160FFF721FF6968074641F267
:10092000883001290ED00229814618D026E021689E
:100930008903E9E78901E7E7FFF710FFC11B494594
:1009400001D918E081466068C0F381000128F3D125
:1009500018E000BFFFF702FFC11B49450BD86068D4
:10096000C0F381000228F5D10CE000BFFFF7F6FECE
:10097000C11B494502D90320BDE8F087606810F02B
:100980000C0FF3D1D8F80010404601F00701B14236
:100990000BD9016821F0070131430160006800F0C4
:1009A0000700B04201D00120E6E72878400705D5CE
:1009B0006068E96820F4E060084360602878000718
:1009C00006D56068296920F4605040EAC100606083
:1009D00000F016F86168084AC1F30311515CC84081
:1009E000064908600020FFF7D9FE0020C4E7000098
:1009F0000020024000100240060F00080C000020FA
:100A000012A185B00FC98DE80F0014A0144A006828
:100A100004905168134801F00C03042B10D0082BEC
:100A20000ED1C1F38343C9031DF803000AD55168F1
:100A300004AAC1F34041515C0A4A5043B0FBF1F0B3
:100A400005B0704708494843FAE70000020304056F
:100A5000060708090A0B0C0D0E0F1010010200000A
:100A60000010024000127A0000093D002DE9F84F05
:100A700004460078B94DC00748D06868C0F38100CB
:100A8000012807D06868C0F38100022809D168688E
:100A9000C00306D52868800338D5606800286FD069
:100AA00034E06068B0F5803F0BD010B1B0F5A02FF6
:100AB00011D0286820F480302860286820F4802035
:100AC00002E0286840F480302860606888B1FFF751
:100AD00045FE064609E0286840F480202860F0E7DB
:100AE000FFF73CFE801B642875D828688003F7D583
:100AF0000CE0FFF733FE064605E000BFFFF72EFED1
:100B0000801B6428F0D828688003F7D42078944E9E
:100B100080074FF001094FF000083BD5686810F0DE
:100B20000C0F07D06868C0F38100022809D16868FB
:100B3000C00306D42868800714D5206901281FD176
:100B400010E02069B0B1C6F80090FFF707FE074635
:100B500005E000BFFFF702FEC01B0228C4D82868CA
:100B60008007F7D52868616920F0F80040EAC100E5
:100B700028600FE0C6F80080FFF7F0FD074606E0AA
:100B8000E9E000BFFFF7EAFDC01B022823D8286870
:100B90008007F7D4207800072CD57248A169D9B115
:100BA000C0F80090FFF7DAFD074604E0FFF7D6FD36
:100BB000C01B02280FD8686A8007F7D56A484FF42F
:100BC000FA510068B0FBF1F0009000BF0098411EA0
:100BD0000091FAD20EE080E0C0F80080FFF7BEFD81
:100BE000074604E0FFF7BAFDC01B022875D8686A03
:100BF0008007F7D42078400760D5E8690027C00057
:100C000008D4E86940F08050E861E869012700F005
:100C10008050009055480168C90513D40168834687
:100C200041F480710160FFF799FD824606E000BF44
:100C3000FFF794FDA0EB0A0064284ED8DBF8000013
:100C4000C005F5D5E06801280AD008B1052813D001
:100C5000286A20F001002862286A20F0040002E0DF
:100C6000286A40F001002862E06841F2883B98B1B0
:100C7000FFF774FD82460BE0286A40F0040028620A
:100C8000EEE700BFFFF76AFDA0EB0A0159455AD80D
:100C9000286A8007F6D50CE0FFF760FD824605E084
:100CA000FFF75CFDA0EB0A0159454CD8286A800784
:100CB000F6D41FB1E86920F08050E861E06988B39C
:100CC0006968C1F38101022945D00228C6F8608015
:100CD00004D0FFF743FD044638E034E0FFF73EFD63
:100CE000074604E0FFF73AFDC01B02282BD828680E
:100CF0008001F7D4206AB0F5803F05D16868A1680B
:100D000020F4003008436860D4E9080108436968AA
:100D100021F4741108436860C6F86090FFF71EFD67
:100D2000044606E015E000BFFFF718FD001B02288F
:100D300009D828688001F7D50BE000BFFFF70EFD4A
:100D4000001B022802D90320BDE8F88F2868800123
:100D5000F4D40020F8E70120F6E70000001002407C
:100D600000004242800442420C000020007000401B
:100D700010B5401EB0F1807F01D3012010BD4FF0AF
:100D8000E02460610F21601700F038F80020A061B6
:100D900007202061002010BDFEE700000E4810B5BE
:100DA0000C4901600C21416000218160C16001613A
:100DB00041610176012242768176C17601774177E1
:100DC000FFF7F8FA002803D0BDE81040FFF7F2B9AA
:100DD00010BD00000064004010000020054808B568
:100DE000816941F004018161806900F00400009094
:100DF00008BD000000100240FEE770470907090E19
:100E0000002806DA00F00F0000F1E02080F8141D41
:100E1000704700F1E02080F8001470477047704779
:100E2000FFF7A2BC30B58FB028216846FFF7A3F9C1
:100E300014210AA8FFF79FF901210804CDE9001049
:100E40000024029402250491CDE907504FF4E010EC
:100E500009906846FFF70AFE0F20CDE90A056802EF
:100E6000CDE90C4002210AA80E94FFF713FD0FB044
:100E700030BD00000D48016841F00101016041688A
:100E80000B4A1140416001680A4A11400160016843
:100E900021F480210160416821F4FE0141604FF49A
:100EA0001F0181600449C0030860704700100240C0
:100EB0000000FFF8FFFFF6FE08ED00E00148FFF735
:100EC0007BB90000100000200148FFF775B9000051
:100ED00010000020FEE702E008C8121F08C1002A27
:100EE000FAD170477047002001E001C1121F002AAB
:100EF000FBD17047FFF740FCFFF794FFFFF76EFF51
:100F0000FFF74CFFFEE700000000000000000102B8
:100F10000304060708090000380F0008000000203D
:100F200010000000D60E0008480F00081000002036
:100F300038040000E60E0008010000001000000068
:080F40000000000000A24A04B9
:0400000508000131BD
:00000001FF
