:020000040800F2
:100000007043002045010008D52000080D170008A6
:10001000511F0008950C0008372B00080000000055
:10002000000000000000000000000000F1240008B3
:10003000D90C00080000000029240008052600084B
:100040005F0100085F0100085F0100085F01000810
:100050005F0100085F010008510E00085F01000801
:100060005F0100085F0100085F0100085F010008F0
:100070005F0100085F0100085F0100085F010008E0
:100080005F0100085F0100085F0100085F010008D0
:100090005F0100085F0100085F0100085F010008C0
:1000A0005F0100085F0100085F0100085F010008B0
:1000B0006926000881260008992600085F010008CB
:1000C0005F0100085F0100085F0100085F01000890
:1000D0005F01000849280008512A0008752A000815
:1000E0005F0100085F0100085F0100085F01000870
:1000F0005F0100085F0100085F0100085F01000860
:100100005F0100085F010008B12600085F010008D8
:100110005F0100085F010008C92600085F010008B0
:100120005F0100085F0100085F0100085F0100082F
:10013000DFF80CD000F010FD004800477D6100089A
:10014000704300200648804706480047FEE7FEE768
:10015000FEE7FEE7FEE7FEE7FEE7FEE7FEE7FEE777
:10016000092600083101000830B50B460146002081
:100170002022012409E021FA02F59D4205D303FA69
:1001800002F5491B04FA02F52844151EA2F10102EA
:10019000F1DC30BD2DE9F0410024061B254671F14C
:1001A000000605DA01240027D0EB070067EB010108
:1001B000161E73F1000605DA0027D2EB07020125AF
:1001C00067EB030300F09AFB86460E4617469C46F3
:1001D000AC4204D00025D0EB050E65EB010624B13E
:1001E0000020D2EB000760EB030C704631463A4624
:1001F0006346BDE8F0812DE9FE43994615468846E1
:10020000074601AC022942D3002D40D000200290C5
:10021000A8F101004FF0FF36009022E000FB0572CC
:1002200001FB057011464A469047002805DC54F84A
:100230002600304444F8260013E060682A4600FB9C
:10024000057154F8040C00FB057007E00B7890F87A
:1002500000C001F801CB00F8013B521E002AF5D185
:10026000764254F8040C61688842D7DC4B462A4633
:100270003846FFF7C0FF54F8040C4B46A8EB0001CA
:10028000401C00FB05702A46491EFFF7B4FFBDE87D
:10029000FE8310B5431A934209D28318881803E0ED
:1002A00010F8011D03F8011D521EF9D210BD40EADD
:1002B00001039B0703D009E008C9121F08C0042AE4
:1002C000FAD203E011F8013B00F8013B521EF9D2CB
:1002D00010BDD2B201E000F8012B491EFBD27047DD
:1002E0000022F6E710B513460A4604461946FFF702
:1002F000F0FF204610BDCAB2401E10F8011F8A420E
:1003000002D00029F9D100207047421C10F8011BCF
:100310000029FBD1801A704710B5002200E0521C62
:10032000835C8C5CA34201D1002BF8D1D8B2E1B23E
:10033000401A10BD30B504460020034600E05B1CA7
:10034000934203D2E05CCD5C401BF8D030BD034645
:1003500011F8012B00F8012B002AF9D1184670473B
:10036000F0B480EA0102D40F4200B2EB410F02D296
:100370000246084611464A0042D0C30DDDB2C1F321
:10038000C752AD1A202D35DAC1F3160141F400022F
:1003900004B15242C5F1200602FA06F12A41104486
:1003A000B3EBD05F23D0C4B1012DA0EBC35009DC67
:1003B000F0BC4FF0004202EAC352DBB200F500008D
:1003C00000F0F7BA400000F1807000EBC350A0F1DC
:1003D000807040EAD170490009E0490841EAC071E3
:1003E000A0EBC35000F50000400800EBC350F0BC88
:1003F00000F0D6BA6142012202EB4101001BF6E790
:10040000F0BC704781F00041AAE780F00040A7E708
:1004100080EA010210B502F00043400022D04A00F9
:100420001FD0010E01EB1261C0F35600C2F3560259
:1004300040F4000042F40002A0FB022000047F39D7
:10044000140400D0401C50EA124001D44000491E60
:10045000C2B20C0604EBD010401C4008802A02D027
:1004600003E0002010BD20F00100002900DA002088
:10047000184310BD30B480EA010202F0004530F0AC
:10048000004221F0004013D090B1C30DD40DC2F34F
:100490001601C0F31600E41A41F4000140F4000212
:1004A0007D34914201D3641C00E04900002C02DA43
:1004B00030BC002070474FF400000023914201D36C
:1004C000891A034340084FEA4101F7D151B19142E3
:1004D00002D14FF0004105E002D24FF0010101E0EE
:1004E0006FF0010103EBC450284430BC00F058BA4F
:1004F0002DE9FE4F804681EA0300C00F0C460090B4
:1005000021F0004123F00045B8EB0200A94105D2DB
:100510004046214690461C460B46024623F00040CA
:10052000104347D0270DC7F30A00C3F30A510290C6
:10053000401A019040286BDAC3F3130040F4801B8B
:100540000098924620B10023D2EB030A63EB0B0B19
:1005500001985946C0F14002504600F000FA0646A4
:100560000D4650465946019A00F008FA10EB080073
:100570006141002487EA115284EAE7731A4340D0AC
:10058000009A62B3019A012A4FEA075215DC001B58
:1005900061EB02014FF0004202EA0752CDE900424E
:1005A000001C41F5801132462B4600F03FFA03B0A3
:1005B000BDE8F08F40462146F9E7001B61EB0201E0
:1005C000001C41F5801300185B412018A2F50017AC
:1005D00047EB030140EAD570B6196D4111E06D0893
:1005E0004FEA360645EAC0754FEA0752001B61EB39
:1005F0000201001C41F5801149084FEA3000001942
:10060000514132462B4603B0BDE8F04F00F0FFB930
:100610000098012240000023D0EB020263EBE0735C
:10062000009821464FEAE074B8EB000061EB04014A
:10063000E9E783F000435BE781F0004158E72DE9EB
:10064000FE4F81EA030404F0004421F000410094CD
:100650004FF0000B23F0004350EA01045ED052EA51
:1006600003045BD0C3F30A54C1F30A552C44A4F22B
:10067000F3340194A0FB0254C1F3130141F480113F
:10068000C3F3130343F4801301FB024400FB034E46
:10069000840A970A44EA815447EA8357A4FB07680F
:1006A00002958D0A05FB07854FEA932C04FB0C5439
:1006B0002705029D4FEA065847EA1637B5EB0805AD
:1006C0006EEB070C870E920E47EA811742EA8312FF
:1006D000A7FB0201B6EB0B0164EB00042B0D43EA10
:1006E0000C335E1844EB1C50DA465146E7FB02011E
:1006F000C5F313044FEA0B3343EA14534FEA0432B1
:10070000019C43EA0603A4F10C040294009CCDE989
:1007100000B400F08BF903B0BDE8F08F0020014673
:10072000F9E72DE9F04D81EA030404F0004B21F0D4
:10073000004514464FF0000A23F0004150EA05023C
:1007400020D054EA01021DD0C5F30A570246C5F372
:100750001303C1F31300C1F30A5640F4801543F4A8
:100760008013A7EB0608101BD64608F2FD3873EB82
:10077000050002D308F1010801E092185B41B8F1CD
:10078000000F03DA00200146BDE8F08D00204FF491
:100790008011064684460EE0171B73EB050705D350
:1007A000121B63EB050306434CEA010C49084FEAB0
:1007B000300092185B4150EA0107EDD152EA030084
:1007C00012D082EA040083EA0501084305D0101B19
:1007D000AB4106D20122002306E000224FF0004385
:1007E00002E06FF0010253101AEB06004CEB0851C7
:1007F00010EB0A0041EB0B01BDE8F04D00F007B92A
:10080000C10F80EAE0700844CA079623002100F077
:10081000D0B896230022114600F0CBB800F0004279
:1008200020F00040C10DC0F3160040F400007F2905
:1008300001DA00207047962903DCC1F19601C84017
:1008400001E096398840002AF4D04042704720F0F9
:100850000040C10DC0F3160040F400007F2901DA0A
:1008600000207047962903DCC1F19601C84070470B
:1008700096398840704700F0004230F000400AD0BE
:10088000C10D01F56071C0F3160042EA0151C208C2
:1008900040071143704700200146704701F00043B4
:1008A00030B421F0004150EA010206D00A0DA2F551
:1008B0006072C1F31301002A02DC30BC00207047D3
:1008C000440F44EAC104C100E01830BC00EBC25040
:1008D00000F066B8002801DBC0F10040002901DB10
:1008E000C1F1004181427047002801DBC0F10040A6
:1008F000002901DBC1F10041884270472DE9F05F1A
:100900000546002092469B4688460646814640247E
:100910001BE0284641464746224600F02FF9534641
:100920005A46C01A914110D311461846224600F08B
:1009300016F82D1A67EB01084F46224601200021C8
:1009400000F00DF817EB00094E41201EA4F1010440
:10095000DFDC484631462A464346BDE8F09F202A60
:1009600004DB203A00FA02F1002070479140C2F106
:10097000200320FA03F3194390407047202A06DB36
:10098000CB17203A41FA02F043EAE07306E041FA5D
:1009900002F3D040C2F1200291400843194670474B
:1009A0000029A8BF7047401C490008BF20F0010083
:1009B000704710B4B0FA80FC00FA0CF050EA010461
:1009C00004BF10BC704749B1CCF1200421FA04F4F3
:1009D00011FA0CF118BF012121430843A3EB0C01CC
:1009E000CB1D4FEA00614FEA102042BF002010BC2F
:1009F000704700EBC35010440029A4BF10BC7047DF
:100A0000401C490008BF20F0010010BC704710B521
:100A1000141E73F1000408DA401C41F10001921821
:100A20005B411A4301D120F0010010BD2DE9F04DCA
:100A300092469B4611B1B1FA81F202E0B0FA80F21F
:100A400020329046FFF78BFF04460F4640EA0A002B
:100A500041EA0B0153465A46084313D0114653EA64
:100A6000010019D0C8F14002504600F087F8054651
:100A70000E46504659464246FFF771FF084305D0DF
:100A8000012004E020463946BDE8F08D00200543F2
:100A900046EAE0762C4337430A986305E40AA0EB64
:100AA00008000022FD0A44EA47540A3002D500201B
:100AB0000146E9E7010510196941DDE9084500191A
:100AC0006941BDE8F04DA2E770B521F00043034352
:100AD0000CD0C1F30A550024D5EB040564EB0403E4
:100AE000D617AD1AB34102DB0020014670BD2018B5
:100AF00041EB025170BDC1F30A52C1F3130140F240
:100B0000FF3341F480119A4202DA00200146704717
:100B100040F233439A42A2F2334202DC524200F0E6
:100B20002DB8FFF71CBF000030B5041E71F10004A2
:100B300004DB4FF00044404264EB0101141E73F1EA
:100B4000000405DB1C464FF00043524263EB0403F4
:100B5000994208BF904230BD064C074D06E0E06860
:100B600040F0010394E8070098471034AC42F6D3F4
:100B7000FFF7E2FA3898000858980008202A04DBAA
:100B8000203A21FA02F00021704721FA02F3D04006
:100B9000C2F1200291400843194670472DE9F04DFB
:100BA00000231A461B1A8A4103DB00200146BDE8D8
:100BB000F08DC1F30A52C1F3130141F480154FF0D7
:100BC000000BD10702D100186D41521E00270446C8
:100BD00040F2FF11384601EB620A3E46804602466B
:100BE00000204FF48011FFF7C9FFC2197141BB18F3
:100BF00046EB0100B4EB030C75EB000C04D3E41AD4
:100C000065EB000517460E46241908F101006D41F9
:100C100080463428E3DDF91946EB0600091BA8419C
:100C200003D24FF0FF32134601E0002213461BEBC4
:100C3000070046EB0A51BDE8F04DFFF7E8BE70B57E
:100C40008C1810F8015B15F0070301D110F8013B77
:100C50002A1106D110F8012B03E010F8016B01F8FE
:100C6000016B5B1EF9D12B0705D40023521E0DD456
:100C700001F8013BFAE710F8013BCB1A921C03E0A4
:100C800013F8015B01F8015B521EF9D5A142D8D3DC
:100C9000002070BD00BFFEE708B50121082001F06B
:100CA000D5FB4FF44050ADF8000001208DF8020054
:100CB00004208DF803006946064800F029FB4FF434
:100CC0008051044800F003FC4FF40051014800F04B
:100CD000FCFB08BD001801407047000010B56FF024
:100CE000040001F07BFC0A4800680A49B0FBF1F0FF
:100CF000094908700846007800EB4001C1EBC010BC
:100D00004FF6FF7101EAC0000449088010BD0000E1
:100D1000F400002000127A00080100200A010020DF
:100D20000146114A12884A434FF0E0235A610022DB
:100D30009A611A46126942F001021A6100BF4FF02F
:100D4000E022106900F001021AB100F48032002A9A
:100D5000F5D04FF0E022126922F001024FF0E023BB
:100D60001A6100229A6170470A0100200146114A67
:100D700012784A434FF0E0235A6100229A611A46E2
:100D8000126942F001021A6100BF4FF0E0221069BF
:100D900000F001021AB100F48032002AF5D04FF0C1
:100DA000E022126922F001024FF0E0231A610022D2
:100DB0009A6170470801002010B500F08BFB05F028
:100DC0007BFA10BD2DE9FC4117480068FFF753FD81
:100DD00004460D4615480068FFF74DFD06463246AD
:100DE0000B4613A0CDE9004501F040FF4FF48051C0
:100DF000124800F061FB124908704FF400410F489F
:100E000000F05AFB0F4908704FF400510B4800F0F6
:100E100053FB0D4908704FF48041084800F04CFB2B
:100E20000A490870BDE8FC81E8000020D8000020D5
:100E30002566090925660D0A00000000000C014026
:100E40009C0000209E0000209D0000209F000020AC
:100E500010B50B480078012804D10A480068401CEE
:100E60000849086006480078022804D1064800684E
:100E7000401C05490860012000F038F810BD000052
:100E8000CC000020B4000020B800002010B51548A8
:100E9000806940F04000134988610846806940F04D
:100EA000010088611048006820F00F000E490860BA
:100EB0000846006840F0080008600B480C300068E5
:100EC00040F0010008490C31086001220021042093
:100ED00000F0C4F9022306220121184600F0E8FFC1
:100EE00010BD0000001002400018014001490860D8
:100EF000704700001404014010B500F0FFF9012113
:100F00000D2001F0A3FA0121084601F08FFA01211A
:100F1000294800F089FA0121284800F085FA28487C
:100F2000006820F07040264908600846006840F0DC
:100F3000804008602348006820F470402149086020
:100F40000846006840F48040086000204FF080416F
:100F500008854FF6FF7088850846008820F44070A9
:100F600008800846008820F0600008800846008B52
:100F700040F0010008830846008B40F4807008832D
:100F80000846008C20F0020008840846008C20F0FF
:100F9000200008840846008B40F030000883084693
:100FA000008940F0030008810020888408460088FA
:100FB00040F00100088010BD00023000000318005E
:100FC00004080140000C014010B53348C06940F0EE
:100FD00002003149C8610846806940F00800886114
:100FE0002E48006820F07F402C49086008460068C1
:100FF00040F0884008602A48008840F001002849F5
:1010000008800846008840F04000088001231D2227
:101010000321184600F04CFF002021491C310880B4
:101020004FF6FF70091D08801D480C38008820F419
:1010300040701B490C3908800846008820F0600089
:10104000088017480C30008840F0010014490C312A
:1010500008800846008840F48070088010481430EA
:10106000008820F002000E491431088008460088EC
:1010700020F0200008800A48001F008840F003008C
:101080000749091F088006480C38008840F0010015
:1010900003490C39088010BD0010024000080140CF
:1010A0000C04004010B53348C06940F004003149D9
:1010B000C8610846806940F0080088612E480068D1
:1010C00020F07F402C4908600846006840F08840C6
:1010D00008602A48008840F0010028490880084636
:1010E000008840F04000088001231E22032118469A
:1010F00000F0DEFE002021491C3108804FF6FF7011
:10110000091D08801D480C38008820F440701B49D8
:101110000C3908800846008820F0600008801748D5
:101120000C30008840F0010014490C31088008465A
:10113000008840F48070088010481430008820F047
:1011400002000E49143108800846008820F0200073
:1011500008800A48001F008840F003000749091F63
:10116000088006480C38008840F0010003490C391B
:10117000088010BD00100240000C01400C08004027
:1011800010B53348C06940F008003149C8610846CD
:10119000806940F0040088612E48006820F0FF005C
:1011A0002C4908600846006840F044000860C80404
:1011B000808940F00100C90488810846808940F098
:1011C00040008881012332220321184600F070FE7E
:1011D0000020214908804FF6FF70091D08801E4835
:1011E0002838008820F440701B49283908800846B8
:1011F000008820F06000088017481038008840F010
:1012000001001549103908800846008840F48070B4
:10121000088011480838008820F002000E4908397B
:1012200008800846008820F0200008800A482038FE
:10123000008840F003000849203908800648283813
:10124000008840F0010004492839088010BD0000E2
:101250000010024000080140280C004070B5044610
:101260000B46CE1701EB9676C6F38700CE1701EB3F
:101270009676B610A1EB8606B606350E1C4B9B691A
:1012800043F001031A4EB3614FEAB63353F82030EE
:101290000F26AE40B343174E46F82030334653F87E
:1012A000203004FA05F61E43124B43F82060124B1F
:1012B0001B6801268E4033430F4E336002F001035A
:1012C00043B10D4B0C331B6801268E4033430A4E4D
:1012D0000C36336002F0020343B1074B08331E683B
:1012E00001238B401E43044B08331E6070BD000079
:1012F00000100240080001400004014010B5012127
:10130000084601F0B3F80021012001F0AFF810BD4C
:101310002DE9F0410246002500260020002300248C
:10132000002791F803C00CF00F0591F803C00CF0F2
:10133000100CBCF1000F03D091F802C04CEA050577
:1013400091F800C0BCF1000F31D0146800202BE0F0
:101350004FF0010C0CFA00F3B1F800C00CEA0306E0
:101360009E4220D183004FF00F0C0CFA03F7BC43D0
:1013700005FA03FC4CEA040491F803C0BCF1280F01
:1013800006D14FF0010C0CFA00FCC2F814C00AE0C0
:1013900091F803C0BCF1480F05D14FF0010C0CFAD5
:1013A00000FCC2F810C0401C0828D1D31460B1F86A
:1013B00000C0BCF1FF0F34DD546800202EE000F1C6
:1013C000080C4FF0010808FA0CF3B1F800C00CEA61
:1013D00003069E4221D183004FF00F0C0CFA03F755
:1013E000BC4305FA03FC4CEA040491F803C0BCF1C9
:1013F000280F05D100F1080C08FA0CF8C2F8148087
:1014000091F803C0BCF1480F07D100F1080C4FF070
:10141000010808FA0CF8C2F81080401C0828CED346
:101420005460BDE8F0810000F0B50A4600230024B6
:101430000021002500F00046B6F1004F02D11D4EFC
:10144000F16901E01B4E7168C0F3034583B200F4FB
:101450004016B6F5401F08D121F07061154E766830
:1014600026F07066134F7E6012E000F48016B6F529
:10147000801F06D1032606FA05F4A14341F07061EE
:1014800006E0460D360103FA06F6B14341F07061FD
:1014900022B1460D360103FA06F6314300F000464C
:1014A000B6F1004F02D1034EF16101E0014E7160CF
:1014B000F0BD0000000001400246002093680B4090
:1014C0000BB1012000E000207047416170470161CD
:1014D0007047000070B54FF07C547F4A7F498048C8
:1014E00005F0D0F888B97F48006801280DD17E4802
:1014F00001687948006802F067F900EB8000450058
:101500002846FFF77DF979490860794800680A287C
:101510007DD2DFE800F0050B1625303F4A59647391
:101520000020744908607449086070E00020714927
:101530000860214670480068FEF712FF6E49086097
:1015400065E021466B480068FEF70AFF69490860BC
:10155000214669480068FEF703FF6749086056E0C6
:10156000214664480068FEF7FBFE624908600020DF
:10157000614908604BE021465E480068FEF7F0FED6
:101580005C49086021465C480068FEF73BFF5A4909
:1015900008603CE000205749086021465648006832
:1015A000FEF730FF5449086031E021465148006899
:1015B000FEF728FF4F49086021464F480068FEF7B4
:1015C00021FF4D49086022E021464A480068FEF7A5
:1015D00019FF4849086000204749086017E0214684
:1015E00044480068FEF70EFF424908602146424821
:1015F0000068FEF7B5FE4049086008E000203D495C
:1016000008603D4908603D483849086000BF00BF98
:101610003B4800684042FFF7F3F80546354801684B
:101620002846FFF761F906D2354800684042FFF7C7
:10163000E7F83049086032480068FFF7E1F80546EE
:101640002C4801682846FFF745F905D22C48006868
:10165000FFF7D6F827490860294800684042FFF79D
:10166000CFF80546244801682846FFF73DF906D221
:10167000234800684042FFF7C3F81F49086020482C
:101680000068FFF7BDF805461B4801682846FFF7CC
:1016900021F905D21A480068FFF7B2F81649086028
:1016A000184912480068FFF715F902D215480F498A
:1016B000086015490D480068FFF716F902D2124874
:1016C0000A490860094802680B480168094800682F
:1016D00000F0DAF970BD0000D8000020D40000202E
:1016E000D000002098000020E800002064000020C6
:1016F000AC0000205C000020600000200000C8C298
:10170000840000200000B4C20000B44200BFFEE725
:1017100010B540210748FFF7DAFE80210548FFF7A2
:10172000D6FE80210348FFF7D0FE40210148FFF795
:10173000CCFE10BD0014014010B540210548FFF754
:10174000C6FE80210348FFF7C0FE80210148FFF755
:10175000BEFE10BD0014014010B540210348FFF744
:10176000B6FE40210148FFF7B0FE10BD0014014055
:101770002DE9F05F04460D46601B224908600846CB
:101780000068FFF73DF883461F4801685846FEF79A
:101790003FFE80461B4909681C4A1268881AFFF7F9
:1017A0002FF883461A4801685846FEF731FE8146F5
:1017B0004146FEF7D5FD074616480068FFF720F8BA
:1017C00082463946FEF7CCFD0646FFF727F8114959
:1017D000086008460068B0F5E15F02DD4FF4E150B3
:1017E00008600C48006810F5E15F02DA0A48094910
:1017F0000860044800680549086006480068BDE8BC
:10180000F09F00002002002080000020280200201D
:101810007C00002024020020E0E3FFFF2DE9F05FC0
:1018200004460D46601B2249086008460068FEF722
:10183000E7FF83461F4801685846FEF7E9FD8046EA
:101840001B4909681C4A1268881AFEF7D9FF8346AB
:101850001A4801685846FEF7DBFD81464146FEF70F
:101860007FFD074616480068FEF7CAFF82463946E4
:10187000FEF776FD0646FEF7D1FF114908600846DF
:101880000068B0F5E15F02DD4FF4E15008600C48FC
:10189000006810F5E15F02DA0A4809490860044867
:1018A00000680549086006480068BDE8F09F000030
:1018B0002C02002080000020340200207C00002048
:1018C00030020020E0E3FFFF2DE9F05F04460D4603
:1018D000601B2249086008460068FEF791FF8346B6
:1018E0001F4801685846FEF793FD80461B4909686A
:1018F0001C4A1268881AFEF783FF83461A4801685B
:101900005846FEF785FD81464146FEF729FD07460C
:1019100016480068FEF774FF82463946FEF720FD40
:101920000646FEF77BFF1149086008460068B0F5DF
:10193000E15F02DD4FF4E15008600C48006810F5EB
:10194000E15F02DA0A48094908600448006805496D
:10195000086006480068BDE8F09F000038020020DB
:1019600080000020400200207C0000203C0200207B
:10197000E0E3FFFF2DE9F05F04460D46601B2249BE
:10198000086008460068FEF73BFF83461F48016871
:101990005846FEF73DFD80461B4909681C4A1268FF
:1019A000881AFEF72DFF83461A4801685846FEF74D
:1019B0002FFD81464146FEF7D3FC074616480068D6
:1019C000FEF71EFF82463946FEF7CAFC0646FEF7C2
:1019D00025FF1149086008460068B0F5E15F02DDA7
:1019E0004FF4E15008600C48006810F5E15F02DA3E
:1019F0000A48094908600448006805490860064823
:101A00000068BDE8F09F0000440200208000002034
:101A10004C0200207C00002048020020E0E3FFFF91
:101A200010B501220EA110A004F023FA104908609D
:101A3000012210A10CA004F01CFA104908604FF418
:101A400000710B48006804F031F90D4908604FF44B
:101A500000710A48006804F029F90A49086010BDBD
:101A6000434F4C4F520000007B73697D0000000023
:101A70009C020020434F444500000000A0020020CB
:101A8000A4020020A80200202DE9F04704460E46DB
:101A9000154627492846FEF7BBFC824684F00049DC
:101AA00031464846FEF7AEFC80465146FEF758FCEC
:101AB0000746FEF7B3FE1F4908601D492846FEF79A
:101AC000A7FC824684F0004931464846FEF748FCB0
:101AD00080465146FEF744FC0746FEF79FFE164936
:101AE000086013492846FEF793FC8046314620469D
:101AF000FEF788FC81464146FEF732FC0746FEF7BA
:101B00008DFE0E4908600A492846FEF781FC804692
:101B100031462046FEF724FC81464146FEF720FC74
:101B20000746FEF77BFE06490860BDE8F087000027
:101B30001058393E4000002044000020480000209A
:101B40004C00002010B500200E4908600E480068C7
:101B500020F470400C4908600846006840F440508A
:101B6000086000200949C1F8AC0100F011F801201B
:101B70000449086000F00CF800200449C1F8A801ED
:101B800010BD0000A8812142040C014000802142C8
:101B900010B50220FFF7EAF810BD000008B50121DA
:101BA000082000F053FC4FF44060ADF80000102016
:101BB0008DF8030003208DF8020069460448FFF702
:101BC000A7FB4FF440610248FFF781FC08BD00000D
:101BD000000C014010B500200E4908600E48006856
:101BE00020F470400C4908600846006840F44050FA
:101BF000086001200949C1F8AC01FFF7C9FF0120C5
:101C000004490860FFF7C4FF00200449C1F8A80197
:101C100010BD0000A8812142040C01400080214237
:101C200070B5054600241648006820F47040144939
:101C300008600846006840F400400860002614E090
:101C4000002010490860FFF7A3FF01200E49C1F8EA
:101C5000A8016006040E0B487C38006808B1601CBF
:101C6000C4B2FFF795FF701CC6B2082EE8DB15B9A9
:101C7000FFF7B0FF01E0FFF765FF204670BD0000F1
:101C8000040C0140A88121420080214270B5044625
:101C90001248006820F47040104908600846006847
:101CA00040F44050086000200D490860002512E013
:101CB000E0090B49091D08606006040E012009496E
:101CC000C1F8A801FFF764FF002005490860FFF78D
:101CD0005FFF681CC5B2082DEADB70BD040C014033
:101CE000A88121420080214210B50E48006820F4EE
:101CF00070400C4908600846006840F44050086095
:101D00000120094908600949C1F8A801FFF740FF0F
:101D1000002005490860FFF73BFF00200349C1F898
:101D2000A80110BD040C0140AC8121420080214279
:101D300010B50E48006820F470400C490860084651
:101D4000006840F4405008600020094908600949D3
:101D5000C1F8AC01FFF71CFF0120054908600549E7
:101D6000C1F8AC01FFF714FF10BD0000040C0140E6
:101D7000A88121420080214210B500241448006847
:101D800020F47040124908600846006840F40040A2
:101D9000086001200F490860FFF7FAFE01200E4994
:101DA000C1F8A801FFF7F4FE07E0601CC4B2FA2CEA
:101DB00003DDFFF7BDFF012010BD06488038006835
:101DC0000028F2D10349091F086000BFF4E70000B2
:101DD000040C0140AC812142008021422DE9F041F8
:101DE00006460F4614461D46FFF77EFF002141EAD6
:101DF0004601C8B2FFF74AFFFFF7BEFF20B1FFF769
:101E000097FF0120BDE8F0813846FFF73FFFFFF75D
:101E1000B3FFFFF769FF012101EB4601C8B2FFF7ED
:101E200035FFFFF7A9FF0DE0012C04D10020FFF7DB
:101E3000F7FE287003E00120FFF7F2FE2870601E15
:101E4000C4B26D1C002CEFD1FFF772FF0020D9E760
:101E50002DE9F04105460E4617469846FFF744FF28
:101E6000002141EA4501C8B2FFF710FFFFF784FFE8
:101E700020B1FFF75DFF0120BDE8F0813046FFF79C
:101E800005FFFFF779FF00240CE018F80400FFF7C6
:101E9000FDFEFFF771FF18B1FFF74AFF0120EBE7E6
:101EA000601CC4B2BC42F0DBFFF742FF0020E3E756
:101EB0002DE9F0410746884614461D46284600F0A5
:101EC00033F8C5F1040007FA00F60F20284100EAB4
:101ED0000800064306F00F06E21704EBD262521127
:101EE000920002F1E022D2F800212146E31704EB30
:101EF000D3635B11A4EB431C012303FA0CF31A43D5
:101F00002046E31704EBD3635B119B0003F1E0234E
:101F1000C3F800210348005D40EA06100149085556
:101F2000BDE8F08100E400E00146072323EA010256
:101F30001202054B18684FF6FF031840034B184375
:101F40001043014B186070470CED00E00000FA05EB
:101F500000BFFEE708B50121802000F077FAFF20DE
:101F6000ADF8000003208DF8020010208DF803006A
:101F700069460F48FFF7CCF90E48806940F0100021
:101F80000C4988610C48406820F0FF000A4948600D
:101F90000846406840F0BB0048600846006820F0F2
:101FA0007F4008600846006840F03B40086008BD7C
:101FB000001C0140001002400010014038B50546E9
:101FC0000C46FFF7C7FF3F48806940F400503D4989
:101FD00088610121C80200F039FA0121402000F097
:101FE00035FA0121084600F031FA01213648FFF7A1
:101FF0001BFA4FF4D440ADF8000018208DF8030010
:1020000001208DF8020069463048FFF781F9304819
:102010000580001F04802E481438008840F06000BE
:102020002B49143908800846008840F4C0400880D5
:10203000081D008840F06000091D088008460088DF
:1020400040F4C0400880081F008840F00800091FC5
:1020500008800846008840F400600880081D008859
:1020600040F00800091D08800846008840F4006020
:102070000880081D008840F00100091D08800846FE
:10208000008840F0100008800846008840F4807006
:1020900008800846008840F4805008800C481830BA
:1020A000008840F400400A49183108804FF400408D
:1020B00007492C3908800846008840F00100088054
:1020C00038BD000000100240C0001600001801409A
:1020D0002C340140704770B5002418E004F1B000C2
:1020E000002100F07FF90021084600F07BF9002173
:1020F000102000F077F9002505E00121002000F014
:1021000071F9681CC5B2802DF7DB601CC4B2082CC5
:10211000E4DB70BD08B50121202000F097F9C02054
:10212000ADF8000010208DF8030003208DF80200A8
:1021300069463C48FFF7ECF8C0213A48FFF7C7F979
:102140004FF44870FEF7ECFD0021AE2000F04AF994
:102150000021084600F046F90021102000F042F965
:102160000021402000F03EF90021B02000F03AF9B3
:102170000021812000F036F90021FF2000F032F923
:102180000021A12000F02EF90021A62000F02AF95C
:102190000021A82000F026F900213F2000F022F9BC
:1021A0000021C82000F01EF90021D32000F01AF908
:1021B0000021084600F016F90021D52000F012F9A0
:1021C0000021802000F00EF90021D82000F00AF94B
:1021D0000021052000F006F90021D92000F002F9C5
:1021E0000021F12000F0FEF80021DA2000F0FAF8DA
:1021F0000021122000F0F6F80021DB2000F0F2F8B8
:102200000021302000F0EEF800218D2000F0EAF8E7
:102210000021142000F0E6F80021AF2000F0E2F8E1
:1022200008BD00000014014070B504460D4605F1DC
:10223000B000002100F0D6F8102141EA141000216E
:1022400000F0D0F804F00F00002100F0CBF870BDD2
:102250002DE9F04180460E4615460027314640469E
:10226000FFF7E2FF00240AE0124A02EB8511085D45
:10227000012100F0B7F8781CC7B2601CC4B2102C62
:10228000F2DB701CC1B24046FFF7CEFF00240CE029
:102290006900491C074A02EB4111085D012100F069
:1022A000A1F8781CC7B2601CC4B2102CF0DBBDE8EA
:1022B000F08100000C0100202DE9F04707460E4692
:1022C0009046994600250024A8F12000C5B27F2F32
:1022D00002DD0027B01CC6B2B9F1100F24D131467F
:1022E0003846FFF7A1FF002408E004EB0511194A66
:1022F000505C012100F076F8601CC4B2082CF4DBBD
:10230000701CC1B23846FFF78FFF002409E004EBD0
:10231000051108310F4A505C012100F063F8601C80
:10232000C4B2082CF3DB12E031463846FFF77CFFDD
:1023300000240AE005EB4501074A02EB4101085D74
:10234000012100F04FF8601CC4B2062CF2DBBDE89E
:10235000F08700009E840008768200082DE9FF5F68
:10236000074691461E460E9D4FF0000A002435E0B8
:10237000301B401EC1B20A2005F0CBFAB9FBF0F0C9
:102380000A21B0FBF1F201FB1208BAF1000F14D1DF
:10239000701EA04211DDB8F1000F0CD1AB4605EB69
:1023A000DB71491001FB0471C8B22B462022019950
:1023B000FFF782FF10E04FF0010AAB4605EBDB713F
:1023C000491001FB0471C8B208F13001CAB22B46B2
:1023D0000199FFF771FF00BF601CC4B2B442C7DBB4
:1023E000BDE8FF9F70B504460D461DB1E0B200F098
:1023F000E5FB02E0E0B200F0CBFB70BD08B50121C7
:10240000082000F023F84FF47040ADF800000120E0
:102410008DF8020004208DF8030069460148FEF79C
:1024200077FF08BD000C01407047000029B1064A43
:10243000D2690243044BDA6104E0034AD269824361
:10244000014BDA61704700000010024029B1064AD2
:1024500092690243044B9A6104E0034A9269824301
:10246000014B9A61704700000010024029B1064AF2
:10247000D2680243044BDA6004E0034AD268824324
:10248000014BDA607047000000100240014602294B
:1024900006D003290DD0042912D005291ED116E03B
:1024A0004FF08042928C10B200224FF080439A8409
:1024B00016E00C4A128810B200220A4B1A800FE074
:1024C000094A128810B20022074B1A8008E0074A16
:1024D000128810B20022054B1A8001E0002000BFD4
:1024E00000BF70472404004024080040240C004032
:1024F000704710B500F002F810BD00000CB50020C8
:10250000019000903348006840F480303149086001
:1025100000BF3048006800F4003000900198401C73
:102520000190009818B90198B0F5A06FF1D1294831
:10253000006800F4003010B10120009001E000209C
:1025400000900098012843D12348006840F0100013
:10255000214908600846006820F00300086008462A
:10256000006840F0020008601A4840681949486055
:102570000846406848600846406840F4806048600B
:102580000846406820F47C1048600846406840F4E3
:10259000E81048600846006840F08070086000BF9E
:1025A0000C48006800F000700028F9D00948406825
:1025B00020F00300074948600846406840F00200E8
:1025C000486000BF0348406800F00C000828F9D1BB
:1025D0000CBD00000010024000200240042808D179
:1025E0004FF0E021096941F004014FF0E022116150
:1025F00007E04FF0E021096921F004014FF0E022EB
:10260000116170477047000010B51348006840F032
:1026100001001149086008464068104908400E4909
:102620004860084600680E4908400B4908600846A3
:10263000006820F4802008600846406820F4FE000E
:1026400048604FF41F008860FFF753FF4FF00060B1
:102650000449086010BD0000001002400000FFF8AF
:10266000FFFFF6FE08ED00E04FF08040008A4FF0DB
:102670008040008A20F001004FF0804108827047BE
:10268000044800880348008820F0010001490880C0
:102690007047000010040040044800880348008888
:1026A00020F0010001490880704700001008004038
:1026B000044800880348008820F001000149088090
:1026C00070470000100C004010B51448008A00F05C
:1026D000010008B31148008A20F001000F49088268
:1026E0000F480078401C0E4908700E480078401CC6
:1026F0000C4908700A480078012804D100200849D4
:102700000870FEF759FB07480078032804D1002021
:1027100004490870FEF756FB002010BD0010004071
:102720001C0200201D0200200EB501211020FFF721
:102730007DFE3120ADF8040041F61F40ADF80000E9
:102740000020ADF80600ADF802006946094800F027
:1027500029F801221146074800F01AF8012105481E
:1027600000F00AF80223362201211846FFF7A0FBE9
:102770000EBD00000010004021B1028842F00102AD
:10278000028004E002884FF6FE731A400280704710
:102790001AB183890B43838102E083898B43838150
:1027A00070470000002202881D4B98420ED01D4B3E
:1027B00098420BD0B0F1804F08D01B4B984205D007
:1027C0001A4B984202D01A4B984204D14FF68F739D
:1027D0001A404B881A43174B984207D0164B984221
:1027E00004D04FF6FF431A40CB881A4302808B88EF
:1027F00083850B8803850A4B98420BD0094B98427E
:1028000008D00E4B984205D00D4B984202D00D4B8C
:10281000984201D10B7A038601238382704700001E
:10282000002C01400034014000040040000800403A
:10283000000C004000100040001400400040014027
:10284000004401400048014008B540F22551784855
:1028500000F03EF900287DD040F22551744800F088
:102860001BF9734800F05EF97249734A1288885464
:10287000084671490988405C704908606E480088C4
:10288000401C6D4908806D480068412809DB6B4891
:102890000068482805DC69480068403868490860D5
:1028A0000BE066480068082804DC64480068644956
:1028B000086002E00020624908605F480088401E0E
:1028C0005C49085C452803D05B48008812284ED13B
:1028D00058480078422847D13220FEF747FA554839
:1028E00040783038574908705248807830384870FE
:1028F0005048C07830388870012053490860322031
:10290000FEF734FA002211462420FFF7A1FC012231
:1029100000213620FFF79CFC022200214820FFF70F
:1029200097FC032200215A20FFF792FC0C20009014
:1029300044480278022303210020FFF70FFD0C20FA
:10294000009040484278022303211220FFF706FD41
:102950000C2000E066E000903A48827802230321D0
:102960002420FFF7FBFC02E00020334908803648B2
:102970000068012806D130480088401E2D49085CB7
:10298000532803D02C48008812284FD129480078BA
:10299000412848D13220FEF7E9F9264840782B49F2
:1029A00008702448807848702248C07888700220D7
:1029B000254908603220FEF7D9F90022114624206B
:1029C000FFF746FC012200213620FFF741FC0222DE
:1029D00000214820FFF73CFC032200215A20FFF78A
:1029E00037FC0C20009019480078A0F13002022337
:1029F0000F210020FFF7B2FC0C2000901348407814
:102A0000A0F1300202230F211220FFF7A7FC0C20B7
:102A100000900E488078A0F1300202230F2124207C
:102A2000FFF79CFC02E000200349088008BD00007D
:102A30000038014018030020EC000020F0000020C6
:102A4000AC000020B000002090000020CD0000204D
:102A500010B540F22551064800F03AF838B1044864
:102A600000F060F8C4B22146014800F060F810BDE3
:102A70000044004010B540F22551064800F028F807
:102A800038B1044800F04EF8C4B22146014800F0C5
:102A90004EF810BD0048004010B50022002340F65B
:102AA0006A14A14200D100BF0A1201249440A3B2CB
:102AB000DC43048010BD02460020B1F5007F00D148
:102AC00000BF13880B400BB1012000E000207047CD
:102AD00070B50246002400230025002040F66A1647
:102AE000B14200D100BFC1F3421501F01F0301261E
:102AF00006FA03F3012D02D19689334006E0022D38
:102B000002D1168A334001E0968A33400C12012626
:102B100006FA04F41688344013B10CB1012000E029
:102B2000002070BD01468888C0F308007047C1F3DB
:102B300008028280704700BFFEE700002DE9F041E7
:102B400005462C4640211148FEF7BFFC002619E03F
:102B5000274607F08007802F04D180210B48FEF71D
:102B6000B6FC03E080210948FEF7AFFC6006040EC6
:102B700040210648FEF7ABFC40210448FEF7A5FCC7
:102B8000701CC6B2082EE3DBBDE8F08100140140E2
:102B900010B50446FEF7BCFD7820FFF7CFFFFEF727
:102BA000DBFD0020FFF7CAFFFEF7D6FD2046FFF74A
:102BB000C5FFFEF7D1FDFEF7BFFD10BD10B5044601
:102BC000FEF7A6FD7820FFF7B9FFFEF7C5FD402010
:102BD000FFF7B4FFFEF7C0FD2046FFF7AFFFFEF79B
:102BE000BBFDFEF7A9FD10BD1C4909684242914298
:102BF00002DA4142194A116018490968814201DD2F
:102C000016490860164909684242914202DA414277
:102C1000134A116012490968814201DD10490860B8
:102C2000104909684242914202DA41420D4A11605C
:102C30000C490968814201DD0A4908600A490968AE
:102C40004242914202DA4142074A1160064909684C
:102C5000814201DD04490860704700003000002017
:102C600034000020380000203C0000200FB4054B49
:102C700010B503A9044A029800F0AAF910BC5DF847
:102C800014FB0000215000080C0300200FB41CB5F9
:102C90000A46521ECDE9000207A9054B6A4606986E
:102CA00000F096F9009A002111701CBC5DF814FB2D
:102CB000FF3600080FB4084B10B504A902AA039808
:102CC00000F086F9044602A9002000F023FD20460A
:102CD00010BC5DF814FB0000153700087CB5491ED8
:102CE0001C461546CDE90001044B6A46214628469C
:102CF00000F06EF9009A002111707CBDFF360008CB
:102D000030B47446641E2578641CAB4200D21D4664
:102D1000635D5B00E31830BC1847490050EAC120EE
:102D200018BF04204A0D18BF40F0010040F2FF72A6
:102D3000B2EB515F08BF40F00200012808BF052038
:102D40007047012249005205D14201D1002801D02B
:102D50000020704701207047002800D00120014367
:102D6000480002494008081AC00F70470000F07F71
:102D70002DE9F0414F1E00EBC7010446D1E90001E7
:102D800015461E4637F006020DD02A463346FDF79B
:102D900056FC7F1E04EBC703D3E90023FDF7A8FB15
:102DA00037F00602F1D1022F25D0042F13D0062FC1
:102DB00018BFBDE8F0812A463346FDF740FCD4E950
:102DC0000A23FDF795FB2A463346FDF738FCD4E984
:102DD0000823FDF78DFB2A463346FDF730FCD4E986
:102DE0000623FDF785FB2A463346FDF728FCD4E988
:102DF0000423FDF77DFB2A463346FDF720FCD4E98A
:102E00000223FDF775FB2A463346FDF718FCD4E98B
:102E10000023BDE8F041FDF76BBB0122FDF754BE76
:102E2000FDF766BB0022134610461146FDF779BC3C
:102E3000024A00201107FDF747BE000001FDFFFF19
:102E400002E008C8121F08C1002AFAD17047704773
:102E5000002001E001C1121F002AFBD170470000D1
:102E60000149086070470000080300202DE9FF5F5A
:102E7000DDE90220010DDDF838B0024318D044F638
:102E80001050A1F2FF3141430D140F98012820D0BA
:102E9000A5EB0B00401C5FEA000A4FF00004474E10
:102EA000DFF81C91A046504616D5CAF1000728E06D
:102EB0000F98012443A2012808D0002100980F9BFD
:102EC000C0E90021C0E90243BDE8FF9F6FEA0B01A2
:102ED000F4E7CBF10000DEE7074612E0F80707D081
:102EE0002246334640464946FDF7A9FB80468946BF
:102EF0002246334610461946FDF7A1FB04460E460E
:102F00007F10002FEAD1DDE90201BAF1000F42463D
:102F10004B4602DAFDF793FB01E0FDF702FC0446A5
:102F20000E460022284BFDF7FFFD03D84FF0FF307F
:102F3000014607E00022254B20463146FDF7D8FA2E
:102F4000FDF7D9FD102409E0002C0ADB0A2200233A
:102F5000FDF7D4FC019B30321A55641E50EA010281
:102F6000F2D1641C019AC4F1110314440F9A012A8E
:102F700003D0012208430DD10AE0084304D0002009
:102F80004FF0110B0F9080E7A3EB0B056D1E0DE0CA
:102F90005B4504DD4FF0000205F1010504E003DAB2
:102FA0004FF00002A5F10105002AECD000980F991E
:102FB000C0E90231C0E9004586E700000000244076
:102FC0000000F03F300000000000F0430000E03F50
:102FD0002DE9FF4F95B09B468946064600250FE236
:102FE000252877D100242746F84A0121059400E0DE
:102FF000044316F8013F203B01FA03F01042F7D1D9
:1030000030782A2811D06FF02F033078A0F13002E9
:10301000092A16D8059A44F0020402EB820203EB57
:1030200042021044761C0590EFE759F8042B0592F4
:10303000002A03DA504244F40054059044F002049C
:10304000761C30782E2816D116F8010F44F00404AF
:103050002A280DD06FF02F023078A0F13003092B11
:1030600009D807EB870302EB4303C718761CF3E785
:1030700059F8047B761C30786C280FD006DC4C287D
:1030800017D068280DD06A2814D104E0742810D015
:103090007A280FD10DE044F400140AE044F48014BF
:1030A00001E044F440147278824202D104F58014A5
:1030B000761C761C307866280BD013DC582877D025
:1030C00009DC002875D04528F6D04628F4D04728DA
:1030D0001AD19DE118E0632835D0642879D065289D
:1030E00012D195E1702873D008DC6728F1D06928E7
:1030F0006FD06E280DD06F2806D1B5E073282CD084
:10310000752875D0782874D05A46179990476D1C49
:1031100075E1C4F30250022809D003280DD0D9F874
:10312000001004280DD00D6009F1040967E1D9F8F9
:103130000010EA17C1E90052F6E7D9F800100D8037
:10314000F2E70D70F0E719F8041B8DF8001000206D
:103150008DF80100EA46012003E059F804AB4FF076
:10316000FF3061074FF0000102D40DE008F10101CA
:103170008846B9420FDA8045F8DB1AF808100029B2
:10318000F4D108E008F1010188468142FADB1AF81F
:1031900008100029F6D105985B46A0EB08072146E8
:1031A0003846179A00F094FA284400EB080507E027
:1031B0004DE029E10DE01AF8010B5A4617999047A6
:1031C000B8F10108F7D25B4621463846179A13E159
:1031D00042E00A220092C4F302524FF0000A022A8F
:1031E00008D059F804CB032A4FEAEC710AD00DE05D
:1031F00029E02AE009F1070121F00702F2E802C103
:10320000914609E00FFA8CFC4FEAEC71042A03D1D5
:103210004FFA8CFC4FEAEC71002907DA0A460021CC
:10322000DCF1000C61EB02012D2202E0220504D545
:103230002B228DF80420012203E0E20701D0202296
:10324000F7E7904659E00A2102E010220DE0102134
:103250004FF0000A00910BE010224FF0000A44F0FA
:1032600004040827009203E008224FF0000A0092AD
:10327000C4F30252022A05D059F804CB0021032AD4
:1032800008D009E009F1070121F00702F2E802C1C4
:10329000914605E01FFA8CFC042A01D10CF0FF0CCA
:1032A0004FF00008220728D5702806D0009B83F035
:1032B000100353EA0A0305D00EE040228DF80420E3
:1032C000012208E05CEA010206D030228DF80420D9
:1032D0008DF8050002229046009B83F0080353EA14
:1032E0000A030AD15CEA010201D1620705D5302246
:1032F0008DF804204FF001087F1E582804D034A018
:1033000003900EA802900DE036A0F9E75346604600
:10331000009AFDF7F3FA84460398825C0298401EF7
:10332000029002705CEA0100F0D1029806A9081A26
:1033300000F1200A600702D524F4803400E0012760
:10334000574502DDA7EB0A0000E0002000EB0A0170
:10335000009005984144401A0590E00306D45B466E
:103360002146179A059800F0B3F90544002706E0B6
:1033700001A85A46C05D179990476D1C7F1C4745B0
:10338000F6DBE0030CD55B462146179A059800F062
:103390009FF9054404E030205A46179990476D1C68
:1033A0000099481E00900029F5DC08E00298029977
:1033B0005A460078491C0291179990476D1CBAF142
:1033C0000001AAF1010AF1DC65E100000928010011
:1033D000303132333435363738396162636465668B
:1033E000000000003031323334353637383941424D
:1033F000434445460000000000F058F90544761C9F
:10340000307800287FF4ECAD19B02846BDE8F08F85
:10341000620700D4062709F1070222F0070CFCE836
:103420000223E14603F000485FEA080C02D00FF2E5
:10343000702C0DE05FEA045C02D50FF2682C07E007
:103440005FEAC47C02D00FF2602C01E0AFF2700C96
:103450004FF0FF3823F00043CDF850C065280CD062
:1034600006DC452809D046281DD047283DD13DE03F
:10347000662818D067287ED138E00021112F01DBA3
:10348000112000E0781CCDE9000106A90EA8FFF785
:10349000EDFCDDE90F010E9A03910021009207F186
:1034A000010A04914DE04FF000400097CDE9011072
:1034B00006A90EA8FFF7DAFCDDE90F0203920E9BC6
:1034C00011990022DDF80CA00093049211B9791C27
:1034D00000EB010AB7EB0A0004D4C0F1FF3007F19A
:1034E000010A0490AAEB0700019044E0012F00DAE2
:1034F00001270021112F01DD112000E03846CDE920
:10350000000106A90EA8FFF7B1FCDDE90F010E9A34
:103510000391002104910092BA4621070CD403992B
:10352000514500DA8A46BAF1010F05DD009AAAF189
:103530000101515C302908D0B84202DA10F1040FC1
:1035400006DA0121CDE9011015E0AAF10101E9E750
:10355000002805DC049901440491AAEB000102E073
:10356000411C514500DD8A460499401A401C0190D7
:103570004FF000400290200704D40198504501DB31
:10358000CDF8048000208DF84F0002980DF14F0710
:10359000B0F1004F25D02B200E9002984FF002087A
:1035A00000280CDA404202902D200E9007E00A21FC
:1035B0000298FCF7D9FD3031029007F8011DB8F1EF
:1035C0000001A8F10108F2DC02980028EFD1791E71
:1035D0000E980870307800F0200040F0450007F8A1
:1035E000020D12A8C01B00F107081498007800B162
:1035F000012000EB0A01019801EBE07105984144BC
:10360000401A401E0590E00306D45B462146179AF7
:10361000059800F05DF805441498007818B15A46F2
:10362000179990476D1CE00324D55B462146179AF5
:10363000059800F04DF805441CE00498002807DBCD
:10364000DDE90301884203DD0098405C179901E041
:10365000179930205A469047049805F10105401CFF
:1036600004900198401E019004D12E205A461799CB
:1036700090476D1CBAF10001AAF1010ADDDC05E0FA
:1036800017F8010B5A46179990476D1CB8F10001C5
:10369000A8F10108F4DC5B462146179A0598ABE6D1
:1036A0002D0000002B000000200000002DE9F0415B
:1036B000044600251E461746880404D405E0394612
:1036C0002020B0476D1C641EF9D52846BDE8F08166
:1036D0002DE9F041044600251E469046C80301D559
:1036E000302700E02027880404D505E0414638460D
:1036F000B0476D1C641EF9D52846BDE8F0814A68C4
:10370000002A06D00A68531C0B6010704868401EDF
:10371000486070470A68531C0B60107070470000C7
:103720002DE9FE4F06460F460025684601F0B2FC23
:10373000002442E056F8240057F82410A0EB010AB8
:10374000BAF1000F01DB514601E0CAF10001084661
:10375000FDF756F883464FF08F41FCF78BFE80460D
:103760005DF824000021FDF7B5F816D05DF82410AF
:103770004046FCF77FFE82464FF07E51FCF742FE4A
:10378000814629F0004A0F48416A5046FDF7ACF8DF
:1037900012D20120A04005430EE00A48C16940460C
:1037A000FDF798F805D30748016A4046FDF79CF8F5
:1037B00002D20120A0400543641C032CBADB28463A
:1037C000BDE8FE8FB88A00082DE9F05F04460D467B
:1037D00029462046FCF716FE0646FDF71FF821494C
:1037E000086008460068FDF70BF883461E4801682C
:1037F0005846FCF70DFE80461A4909681B4A1268B4
:10380000881AFCF7FDFF8346194801685846FCF703
:10381000FFFD81464146FCF7A3FD074615480068B9
:10382000FCF7EEFF82463946FCF79AFD0646FCF7A8
:10383000F5FF1049086008460068022801DD0220F3
:1038400008600C48006810F1020F03DA6FF0010005
:103850000849086003480068044908600548006892
:10386000BDE8F09F500200207800002058020020A0
:10387000740000205402002070B50D4604998C009D
:1038800099008918AA0010182246FCF702FD70BDA5
:103890002DE9F04D8D4F21F0004A86B005460C46CB
:1038A000BA452ADBAAEB070028430AD0884882459C
:1038B00001DC1AD1CDB106B02846BDE8F04DFFF7C6
:1038C000ACBA844A844B2846FCF7B9FE07460E463C
:1038D000824A834B28462146FCF7B1FE06B03A46A1
:1038E0003346BDE8F04DFCF703BE0120FFF7B8FA00
:1038F00006B0BDE8F04DFFF795BA7A48824542DA46
:10390000BAF1795F0BDA2846FFF707FA042808BFF7
:10391000FFF78EFA284606B02146BDE8F08D2A460C
:103920000B461046FCF78BFE834602466E480E4659
:103930000B4606217844FFF71BFA5A463346FCF73C
:103940007EFE804669488A465A46334604217844BA
:10395000FFF70EFA5A463346FCF771FE00223B464B
:10396000FCF7C6FD02460B4640465146FCF7D9FE21
:103970002A462346FCF763FE06B02A462346BDE8E6
:10398000F04DFCF7B5BD284624F0004100223D462D
:103990003B46FCF751FE4FF0FF32FDF795F8064627
:1039A000024653480F460B4606217844FFF7E0F9DC
:1039B00032463B46FCF743FECDE900014D48324616
:1039C0003B4604217844FFF7D3F932463B46FCF7E7
:1039D00036FE00222B46FCF78BFD834602913046D3
:1039E000394604F097FA804643480D46504517DCA7
:1039F000DDE900015A46029BFCF793FE42462B4646
:103A0000FCF71DFE42462B46FCF772FD0122FDF736
:103A10005BF8304A304BFCF70CFE304A304B4CE040
:103A20004FF0000A52460B464046FCF761FDCDE9D7
:103A3000031052462B4610461946FCF700FE32464C
:103A40003B46FCF7F9FDDDE90332FCF76AFE06466A
:103A50000F46DDE900015A46029BFCF762FE8346F1
:103A60000091012230463946FDF72EF8194A1A4BCB
:103A7000FCF7E2FD06460F46012240462946FDF7C7
:103A800023F85A46009BFCF7DAFD32463B46FCF72A
:103A9000D0FD06460F46012250462946FDF714F890
:103AA0000E4DDFF858802A464346FCF7C5FD3246E6
:103AB0003B46FCF7C1FD2A464346FCF7BDFD002C02
:103AC000D8BF81F0004106B0BDE8F08D0000F03FA6
:103AD0000000F07F075C143326A6913C182D445457
:103AE000FB21F93F0000E03FC05D0000D65D000013
:103AF0004A5D0000605D00003333EF3FFB21E93F8A
:103B00002DE9F84F04460D4621F00040009173491D
:103B1000814211DC7249884201DC06D12CB1204679
:103B20002946BDE8F84FFFF778B96E48002DCCBFA5
:103B30006D496E49BDE8F88F6D49814211DD6D49CF
:103B40008142D8BF4FF0FF366DDD20462946FFF792
:103B5000E4F8042808BFFFF76BF920462946BDE8C2
:103B6000F88F6549654F25F00045814233DD644992
:103B7000814219DD002632464FF080432046294617
:103B8000FCF7B6FC80468A46012220462946FCF70F
:103B90009BFF00223B46FCF74CFD42465346FCF798
:103BA000C0FD04460D463EE001260022BA463B46D3
:103BB00020462946FCF79CFC80460F4600225346CF
:103BC00020462946FCF735FD42463B46FCF7A9FD59
:103BD00004460D4627E04B4981421BDDDFF828A152
:103BE00002260022534620462946FCF728FD0022E3
:103BF0003B46FCF77DFC80460F460022534620469C
:103C00002946FCF716FD42463B46FCF78AFD044672
:103C10000D4608E0032622462B4600203B49FCF7D0
:103C200080FD04460D4622462B4610461946FCF7F9
:103C300006FD8B46824602460B46FCF700FD074612
:103C40000246334888460B4606217844FFF790F831
:103C500052465B46FCF7F3FC82462E488B463A46BA
:103C6000434605217844FFF783F83A464346FCF77C
:103C7000E6FC02460B46002E504659460CDAFCF78D
:103C800037FC22462B46FCF7DAFC01B022462B46D5
:103C9000BDE8F04FFCF7D0BCFCF72AFC22462B46CF
:103CA000FCF7CDFC1C4A7A4402EBC603D3E900239F
:103CB000FCF7BFFC22462B46FCF7BBFC174A7A44B4
:103CC00002EBC603D3E90023FCF7B6FC009A002AF6
:103CD000B8BF81F00041BDE8F88F0000000010443B
:103CE0000000F07F182D4454FB21F93FFB21F9BF60
:103CF0000000DC3F0000203E0000F33F0000F03FEA
:103D00000000E63F008003400000F83F0000F0BFE5
:103D1000625B0000205B0000BE5A0000865A000073
:103D20002DE9F04D9446CCF1000423F000464CEA16
:103D30000404524F46EAD4749A46884621F0004261
:103D4000BC4206D8454240EA050442EAD474BC426B
:103D500004D9BDE8F04D6246FFF762B8AAF14055BC
:103D6000A5F17F6555EA0C040BD0022404EAAA747D
:103D7000434DDFF810E144EAD87452EA000B04D056
:103D80000CE0BDE8F04DFFF7BBBE002C14BF012CCA
:103D9000BDE8F08D022C30D0032C32D056EA0C0B4B
:103DA0000AD0BE4220D1BA4209D126F0804622F084
:103DB00080423346114617E000291ADB25E0DFF880
:103DC000C8B0FB44002C04BFDBE90001BDE8F08D66
:103DD000012C02BFDBE9000181F00041BDE8F08D5C
:103DE000022C0AD0032C0CD0BA4212D1B8F1000F29
:103DF0000BDA23482549BDE8F08D28462449BDE863
:103E0000F08D28467146BDE8F08D1D482149BDE87A
:103E1000F08D921B12153C2AC4BF19481D490EDCB7
:103E2000BAF1000FBEBF12F13C0F0020014606DBC5
:103E30006246FCF776FC21F00041FFF761FE002CA2
:103E400008BFBDE8F08D012C04BF81F00041BDE842
:103E5000F08D114A114B022C07D0FCF7EAFB2A46E1
:103E6000BDE8F04D0A4BFCF7E4BBFCF7E2FB2A4649
:103E7000BDE8F04D064BFCF7DFBB00000000F07F13
:103E8000182D4454FB2109C01A5A0000FB21F9BF28
:103E9000FB210940FB21F93F075C143326A6A13C16
:103EA0000A680C30824204D14868824201D1012064
:103EB00070470020704700002DE9F0410446E0788B
:103EC00000F0C006E07800F03F05607800F00100E7
:103ED00098B1EF102846E91705EB5171C910A5EB11
:103EE000C101491C01F0FF080B48006820B10A48D5
:103EF000414602683846904700BF607800F00800ED
:103F000030B10548406818B1B011034A516888477C
:103F10000020BDE8F08100005C03002038B50446B5
:103F200064B120208DF8000028208DF80100302099
:103F30008DF8020038208DF8030004E0A32204214C
:103F40006846FCF7C6F96A46042140F69E2003F055
:103F50004DFC03F037F838BD3EB5044602208DF81D
:103F60000000CA208DF80100E3208DF8020009202E
:103F70008DF803006A460421682003F037FCA32073
:103F80008DF8000004F0400048B1C0208DF8010019
:103F9000C8208DF80200C2208DF8030006E0A3209F
:103FA0008DF801008DF802008DF8030004F4C07054
:103FB00048B1C4208DF80400CC208DF80500C6203F
:103FC0008DF8060006E0A3208DF804008DF80500AA
:103FD0008DF80600A3208DF807008DF808008DF8F5
:103FE00009006A460A2140F6A72003F0FFFB04F00F
:103FF000030018B120208DF8000002E0D8208DF8D1
:1040000000006A46012140F6B62003F0EFFB04F001
:10401000200018B1012000F0ADF802E0002000F00F
:10402000A9F804F4C07008B304F4807060B1B22041
:104030008DF800008B208DF80100B6208DF802006D
:104040009B208DF803000BE0B0208DF8000080204D
:104050008DF80100B4208DF8020090208DF8030047
:104060006A46042140F6A22003F0C0FB04F00100E0
:1040700020B3F8208DF800006A4601214FF40B6050
:1040800003F0B4FBFA21072000F02CFC072000F01D
:10409000F3FB012000F013FC642000F0F3FC4FF46C
:1040A000FA7000F002FDC821304800F0A3FB282080
:1040B00000F0BCFB0A2000F0CCFB08E0D8208DF813
:1040C00000006A4601214FF40B6003F08FFB04F0FF
:1040D000020018B1D9208DF8000002E0D8208DF838
:1040E00000006A46012140F23D7003F07FFB04F0BE
:1040F000040018B1012000F069F802E0002000F08F
:1041000065F804F0100018B10120FFF707FF02E086
:104110000020FFF703FF44F008001549488102F032
:1041200051FF00201249887304F0400018B108467E
:10413000807B801D887304F4C07020B10C48807BA4
:10414000801D0B49887304F0140020B10848807B5F
:1041500010300749887304F0030020B10448807BC5
:10416000001D0349887300203EBD000009E3CA0218
:104170005C0300203EB504466CB10EA1D1E90020DD
:104180008968CDE9002002916A4609214FF49760C1
:1041900003F02CFB3EBD0AA2D2E900109268CDE9E3
:1041A000010200916A4609214FF4976003F01EFB5B
:1041B000F0E70000B8AAB38DB4980D355D0000009B
:1041C000B8AAAAAAB088C3C5C700000038B504467B
:1041D00064B1C0208DF80000C2208DF80100C42019
:1041E0008DF80200C6208DF8030004E08B22042124
:1041F0006846FCF76EF86A46042140F6982003F002
:10420000F5FA02F0DFFE38BD10B5C8234FF4806226
:10421000024940F6F63002F069FD10BDE08A000860
:104220002DE9F04F8DB00746884615469946DDE9E1
:10423000166B0024002030806B49887B5A4605A904
:1042400002F020FE18B1601E0DB0BDE8F08F664888
:10425000807A00F01400002867D09DF81400000652
:104260009DF8151040EA01409DF8161040EA012023
:104270009DF81710084328609DF8180000069DF867
:10428000191040EA01409DF81A1040EA01209DF8FB
:104290001B10084368609DF81C0000069DF81D1067
:1042A00040EA01409DF81E1040EA01209DF81F10D1
:1042B0000843A8609DF8200000069DF8211040EA00
:1042C00001409DF8221040EA01209DF82310084388
:1042D000E86004F11000C4B2286800140190686816
:1042E00000140290A86800140390E8680014049079
:1042F00001984043029901FB0100039901FB010071
:10430000049901FB010ABAF1706F02DBBAF1885F10
:1043100005DD02F057FE00203080401E94E7B6F91C
:10432000000040F48070308000BF2F48807A00F099
:10433000400020B305A9601C085C095D40EA01202B
:1043400000B2A8F8000005A9E01C095C05AAA01CA1
:10435000105C41EA002000B2A8F8020005A9601D27
:10436000095C201D105C41EA002000B2A8F804009E
:10437000A01DC4B2B6F9000040F0080030801A4811
:10438000408900F4C07008B305A9601C085C095D91
:1043900040EA012000B2388005A9E01C095C05AAAA
:1043A000A01C105C41EA002000B2788005A9601DC5
:1043B000095C201D105C41EA002000B2B880A01DFD
:1043C000C4B2B6F9000040F0700030800648807A30
:1043D00000F0030018B105A90819FFF76DFD484664
:1043E00001F068FF00202FE75C03002070B588B063
:1043F000064601A802F0CEFABDF804000021C90368
:1044000041EA5045C4034448007A00F0030056F8DE
:10441000200005904048007A00F0040010B1059893
:10442000404205903C48007AC0F3C10056F8200095
:1044300006903948007A00F0200010B106984042FA
:1044400006903548007AC0F3811056F82000079096
:104450003148008900F4807010B1079840420790FD
:104460000598C117A0FB042301FB043100FB0510D4
:10447000810041EA927005900698C117A0FB0423C1
:1044800001FB043100FB0510810041EA92700690A7
:104490000798C117A0FB042301FB043100FB0510A2
:1044A000810041EA927007900598000E8DF808008F
:1044B0000598000C8DF809000598000A8DF80A008F
:1044C0000598C0B28DF80B000698000E8DF80C0010
:1044D0000698000C8DF80D000698000A8DF80E0065
:1044E0000698C0B28DF80F000798000E8DF81000E6
:1044F0000798000C8DF811000798000A8DF812003B
:104500000798C0B28DF8130002AA0C214FF4257051
:1045100003F06CF908B070BD5C03002030B585B0C5
:10452000044616A207CA02AB07C3C82C03DD4FF02E
:10453000FF3005B030BDC82090FBF4F0401E85B2BE
:10454000280A8DF80000E8B28DF801006A460221C1
:1045500040F2162003F04AF910B14FF0FF30E8E7BF
:1045600002AA0C2140F6C12003F040F910B14FF02F
:10457000FF30DEE7044884810020DAE7FEF2ABC4B6
:10458000AAF1DFDFBBAFDFDF5C0300201FB504460D
:104590004848007A00F0030054F820000190454894
:1045A000007A00F0040010B10198404201904148A7
:1045B000007AC0F3C10054F8200002903D48007A10
:1045C00000F0200010B10298404202903948007A71
:1045D000C0F3811054F8200003903648008900F49D
:1045E000807010B10398404203903349019880FBDA
:1045F0000101800F40EA810001902F49029880FB61
:104600000110820042EA917002902B49039880FBCE
:104610000110820042EA917003900198000E8DF81B
:1046200000000198000C8DF801000198000A8DF837
:1046300002000198C0B28DF803006A4604214FF4CD
:10464000747003F0D3F818B14FF0FF3004B010BD10
:104650000298000E8DF800000298000C8DF8010001
:104660000298000A8DF802000298C0B28DF803008B
:104670006A4604214FF4757003F0B8F810B14FF09A
:10468000FF30E3E70398000E8DF800000398000C5C
:104690008DF801000398000A8DF802000398C0B25B
:1046A0008DF803006A4604214FF4767003F09EF8FB
:1046B000CCE700005C03002009E3CA0210B586B015
:1046C000044647A00068039046A00068029046A0F8
:1046D0000068019045A00068009004F0030003A961
:1046E000085C8DF8140003A8C4F3C101405C8DF888
:1046F000150003A8C4F38111405C8DF8160004F086
:10470000030002A9085C8DF8100002A8C4F3C101DF
:10471000405C8DF8110002A8C4F38111405C8DF853
:10472000120005AA032140F2264003F05FF818B1F9
:104730004FF0FF3006B010BD04AA032140F22A401A
:1047400003F054F810B14FF0FF30F3E701980590F3
:104750000098049004F0040058B19DF8140040F053
:1047600001008DF814009DF8100040F001008DF854
:10477000100004F0200058B19DF8150040F0010031
:104780008DF815009DF8110040F001008DF8110022
:1047900004F4807058B19DF8160040F001008DF8C7
:1047A00016009DF8120040F001008DF8120005AAD5
:1047B00003214FF4886003F019F810B14FF0FF3077
:1047C000B8E704AA032140F2314003F00FF810B11A
:1047D0004FF0FF30AEE7064804810020AAE7000052
:1047E0004CCD6C000CC92C0036567600264666006F
:1047F0005C030020F8B505460E464FF47A7095FB31
:10480000F0F000FB06F4200E8DF80000200C8DF86F
:104810000100200A8DF80200E0B28DF803006A461C
:1048200004214FF4AE7002F0E1FFF8BD38B5044644
:10483000052094FBF0F084B220128DF80000E0B265
:104840008DF801006A4602214FF4AD7002F0CEFFF0
:1048500038BD38B50446052094FBF0F084B2201230
:104860008DF80000E0B28DF801006A4602214FF495
:10487000AC7002F0BBFF38BD38B504460020009094
:1048800004F0010020B19DF8000040F030000090DD
:1048900004F0020020B19DF8000040F00C000090F0
:1048A00004F0040020B19DF8000040F003000090E7
:1048B0006A4601214FF4A47002F098FF38BD38B564
:1048C0000446012C01DA012402E0042C00DD04245A
:1048D000601EC0B200906A46012140F24F1002F003
:1048E00085FF38BD2DE9FC4706460F4606F0070058
:1048F00010B1B7F5C86F03DD4FF0FF30BDE8FC879E
:104900003846FBF786FF81465949FBF7B3FD8046E1
:10491000684602F019F89DF80000022806D0042825
:1049200016D0082826D0102848D135E04FF08D4108
:104930004046FBF76DFD8146FBF789FF84B24D4988
:104940004046FBF765FD8146FBF781FF85B238E005
:104950004FF08C414046FBF75BFD8146FBF777FF4C
:1049600084B245494046FBF753FD8146FBF76FFF94
:1049700085B226E04FF08B414046FBF749FD81466A
:10498000FBF765FF84B23D494046FBF741FD814698
:10499000FBF75DFF85B214E04FF08A414046FBF71C
:1049A00037FD8146FBF753FF84B235494046FBF79C
:1049B0002FFD8146FBF74BFF85B202E04FF0FF3041
:1049C0009CE700BF20128DF80400E0B28DF80500CE
:1049D00028128DF80600E8B28DF8070006F00100F5
:1049E000A0B101AA02214FF4EA7002F0FFFE10B15B
:1049F0004FF0FF3082E70DF1060202214FF4927072
:104A000002F0F4FE10B14FF0FF3077E706F002003D
:104A1000A0B101AA02214FF4EC7002F0E7FE10B140
:104A20004FF0FF306AE70DF1060202214FF4947057
:104A300002F0DCFE10B14FF0FF305FE706F004003B
:104A4000A0B101AA02214FF4EE7002F0CFFE10B126
:104A50004FF0FF3052E70DF1060202214FF496703D
:104A600002F0C4FE10B14FF0FF3047E7002045E7E9
:104A700000004843000040460000C045000040459B
:104A80000000C04438B50446052094FBF0F085B220
:104A900028128DF80000E8B28DF801006A46022164
:104AA0004FF4EF7002F0A2FE38BD38B50446052081
:104AB00094FBF0F085B228128DF80000E8B28DF872
:104AC00001006A4602214FF4ED7002F08FFE38BDFE
:104AD000FFB59DB01D98269D1C460E4600287DD032
:104AE000007801210300FEF70BF9089841321121EB
:104AF000090D05792A460421C9A08EE12A46042120
:104B0000C9A08AE12A460521C9A086E11D9801F0C5
:104B100009F901910090C8A2642102A8FEF7B6F835
:104B2000014664285AD22A4602A876E11D9801F06F
:104B3000C6F93204D20E009202460B46642101A847
:104B400001F046FA010049D42A4601A865E11D9802
:104B500001F0C1F907461D9801F0C6F92B4622461F
:104B60003946009600F0AEF921B0F0BD1D9F78697E
:104B7000002842D179611D9801F02CF802902A4654
:104B80000121AFA0A047002837D1029800280AD001
:104B90001F992346002200953046491C00F062F917
:104BA00000282AD134E0002078612A460121A5A0FE
:104BB00033E101461D9800F0D9FF1F9A2346009566
:104BC0003146521CFFF784FF002816D10298019944
:104BD000401E814214DA2A46012100E014E19AA025
:104BE000A047002809D11F9923460122009530468D
:104BF000491C00F037F9002808D00020786103E153
:104C000023460022009530461F99F2E70198401C88
:104C1000029901908842CCDBC5E7B00603D58BA092
:104C20000390012002E08AA00390022005901D98C5
:104C30000890006A00287DD1089801621D9801F053
:104C4000B5F806902A46012182A0A0470028F2D19B
:104C5000069800286FD01F99234600220095304601
:104C6000491C00F0FFF80028E5D1F005800F75D051
:104C70001D9801F0F5F80290C00001F04FFA019084
:104C8000002857D00027069800F085FE0146F8005E
:104C9000019A00901150069801F094F80146019A8B
:104CA00000988018416006991D9801F091F87F1CCA
:104CB00006900028E7D10298874228D1300601D516
:104CC000654B00E0654B082202990198FBF793FAC7
:104CD00000274BE00198F90008184068069001464B
:104CE0001D9801F055F80990002810D00698FBF7A0
:104CF0000CFB01462B4622460096069800F0E2F88F
:104D00002A4605990398A047002823D101E0AFF374
:104D100000801F9A234600953146521C0998FFF7E0
:104D2000D7FE002816D10298401E874217D22A4685
:104D3000012101E065E06AE043A0A047002809D115
:104D40001F992346012200953046491C00F08AF83D
:104D500000280AD0019801F0D9F952E039E0234641
:104D60000022009530461F99F0E77F1C0298874289
:104D7000B0D3019801F0CAF949E0069801F036F87D
:104D80001F9A234600953146521CFFF7A1FE0028CA
:104D900037D10498002810D02A4601212AA0A04724
:104DA00000282ED11F992346012200953046491C28
:104DB00000F058F8002824D109E02346002200958D
:104DC00030461F9900F04EF800281AD11FE00498D1
:104DD000069006991D9800F0FBFF0490069800F0DD
:104DE000F1FF0746FBF791FA01462B46224638466B
:104DF000009600F067F82A4605990398A047002816
:104E0000BBD00899002008620020C043ACE6089996
:104E1000002008622A46012111A0A047A4E6000054
:104E20006E756C6C00000000747275650000000007
:104E300066616C7365000000256C6C640000000006
:104E40005B0000005D0000002C0000003A00000044
:104E50003A2000007B000000ED780008F978000897
:104E60007D000000F8B50E461C46C10618D0C006ED
:104E7000C00E0090012110A0069AA0470027FF4312
:104E8000002807D1002508E00C48069A0099A047A1
:104E9000002801D03846F8BD6D1CB542F4DB08E0AF
:104EA000002A06D0800604D4012105A0069A98475E
:104EB000F8BD0020F8BD00000A000000D6960008EA
:104EC00020000000FFB589B00F4606460B9B01216C
:104ED00040A00C9A9847002875D135463446F719FA
:104EE00018E0791B02AA284603F0A5F904006AD04D
:104EF00002985C2810D022280ED020280CDB1299B2
:104F0000490501D52F2807D01299490601D57F28D8
:104F100002DC2546BC42E4D3B54206D00B9BA91B5C
:104F200030460C9A984700284DD1AC4206D10B9BD5
:104F3000012128A00C9A98470DB0F0BD029A0221D9
:104F40000D2A23D008DC082A1AD0092A20D00A2AE0
:104F50001AD00C2A06D115E0222A0FD02F2A19D0F8
:104F60005C2A09D001200004824215DA1AA105A8A2
:104F7000FDF7A0FE062120E019A01FE019A01DE00A
:104F800019A01BE019A019E019A017E019A015E05D
:104F900019A013E019A011E0101A01031B22890DBA
:104FA000D2028A18029080053721800D89024318A9
:104FB00013A105A8FDF77EFE0C2105A80B9B0C9AFA
:104FC0009847002802D00020C043B5E725462E466A
:104FD000A0E70000220000005C7525303458000076
:104FE0005C5C00005C2200005C6200005C6600000B
:104FF0005C6E00005C7200005C7400005C2F0000BE
:105000005C75253034585C7525303458000000003C
:1050100013460A4610B50146184602F0A1FF10BD1E
:1050200070B504460D46E1B20548FDF780FD00BFAE
:1050300080210348FDF73FFD0028F9D0204670BDD0
:105040000038014010B5002821D0114B0022001F6C
:10505000196803E0814203D80A4649680029F9D15A
:1050600052B11368841A9C4204D10068184410603D
:10507000104602E0506000E0186039B102680B1A77
:10508000934203D10B681A4402604968416010BD25
:10509000100300207CB5054628494968087801AB13
:1050A00004220D21FCF79AFE08B107207CBD9DF873
:1050B0000700C0F301109DF8041001F0E00140EA80
:1050C000E1008DF800009DF80700C0F381009DF815
:1050D000051001F0E00140EAE1008DF801009DF8C3
:1050E000070000F003009DF8061001F0E00140EA1F
:1050F000E1008DF8020000241CE01DF8040018B93E
:10510000002045F8240013E00D4845F8240006E08F
:1051100055F824000B49FBF77BF945F824001DF8EE
:105120000400401EC0B20DF804000028F0D100BFFA
:10513000601CC4B2032CE0DB0020B7E7AC02002007
:105140007B14AE3E1D5A843F2DE9F04F87B00546D3
:105150000C46914601208DF8100000208DF81100BA
:10516000FE4A1268917CFD4A5268107804AB022214
:10517000FCF76EFE20B14FF0FF3007B0BDE8F08FB6
:10518000C820FBF7CDFD00208DF81000F34A12680F
:10519000D17BF24A5268107804AB0122FCF758FE2A
:1051A00010B14FF0FF30E8E7EC4A12685179EB4A52
:1051B0005268107804AB0122FCF74AFE10B14FF0A0
:1051C000FF30DAE7E54A1268917CE44A52681078C9
:1051D00004AB0122FCF73CFE10B14FF0FF30CCE7EE
:1051E000DE4A1268D17DDD4A5268107804AB012294
:1051F000FCF72EFE10B14FF0FF30BEE7D74A126821
:105200001179D64A5268107804AB0122FCF720FECF
:1052100010B14FF0FF30B0E70C208DF81000CF4AEE
:1052200012681179CD4A5268107804AB0122FCF75C
:105230000FFE10B14FF0FF309FE70F20FBF770FD1E
:10524000C648806A407A8DF81000C44A1268917886
:10525000C24A5268107804AB0122FCF7F9FD10B184
:105260004FF0FF3089E7BD48806A007A8DF8100062
:10527000BA4A12685178B94A5268107804AB0122D0
:10528000FCF7E6FD10B14FF0FF3076E7B9F1000F03
:1052900007D0B248806A807A40F0E0008DF81000B4
:1052A00004E0AE48806A807A8DF81000AB4A12683C
:1052B0009179AA4A5268107804AB0122FCF7C8FD24
:1052C00010B14FF0FF3058E7B9F1000F07D0A348F5
:1052D000806AC07A40F0E0008DF8100003E0A0483A
:1052E000C07A8DF810009D4A1268D1799B4A5268A5
:1052F000107804AB0122FCF7ABFD10B14FF0FF308A
:105300003BE7B9F1000F02D0C820FBF709FD4020B0
:105310008DF81000914A12681179904A52681078FD
:1053200004AB0122FCF794FD10B14FF0FF3024E7ED
:1053300078208DF81000894A12685179874A52689E
:10534000107804AB0122FCF783FD10B14FF0FF3061
:1053500013E783498889FBF7E3FC00208DF81000F0
:105360007E4A126851797D4A5268107804AB012256
:10537000FCF76EFD10B14FF0FF30FEE6774A126881
:10538000917A764A5268107804AB0222FCF726FD27
:1053900010B14FF0FF30F0E69DF811009DF81010AD
:1053A00040EA012B0C209BFBF0F0C6B20020A86065
:1053B00068602860A06060602060824665E0674A9F
:1053C0001268D17A654A5268107804AB0C22FCF757
:1053D00005FD10B14FF0FF30CFE69DF811009DF8AC
:1053E000101040EA012000B2ADF808009DF813004B
:1053F0009DF8121040EA012000B2ADF80A009DF8B5
:1054000015009DF8141040EA012000B2ADF80C0020
:10541000BDF90810206808442060BDF90A106068D2
:1054200008446060BDF90C10A0680844A0609DF8B5
:1054300017009DF8161040EA012000B2ADF80000F8
:105440009DF819009DF8181040EA012000B2ADF84F
:1054500002009DF81B009DF81A1040EA012000B2DE
:10546000ADF80400BDF90010286808442860BDF9B3
:105470000210686808446860BDF90410A868084410
:10548000A8600AF1010000F0FF0AB24597DB34483A
:10549000D0F800C02868C117090441EA1041070488
:1054A000624600233846FAF775FE32460023CDE9FE
:1054B0000201FAF76FFE28602948D0F800C068683A
:1054C000C117090441EA1041070462460023384627
:1054D000FAF760FE32460023CDE90201FAF75AFEE0
:1054E00068601F48D0F800C0A868C117090441EAE5
:1054F00010410704624600233846FAF74BFE324655
:105500000023CDE90201FAF745FEA8601448D0F85F
:1055100004C02168C817000440EA11480F0462461D
:10552000002338464146FAF735FE32460023CDE9DE
:105530000201FAF72FFE20600948D0F804C0606825
:10554000C117090441EA10410704624600233846A6
:10555000FAF720FE3246002304E00000AC020020EF
:10556000B88A0008CDE90201FAF714FE606011481C
:10557000D0F804C0A068C117090441EA104107042B
:10558000624600233846FAF705FE32460023CDE98D
:105590000201FAF7FFFDA060A068002804DDA06802
:1055A000A0F58030A06003E0A06800F58030A06026
:1055B0000020E2E5B88A00082DE9FC5F06460F46A8
:1055C00000253D494968087801AB03220D21FCF70D
:1055D00005FC10B10720BDE8FC9F9DF8040000F019
:1055E0001F008DF804009DF8050000F01F008DF8E5
:1055F00005009DF8060000F01F008DF8060000244D
:1056000056E056F8240057F82410A0EB010BBBF12C
:10561000000F01DB594601E0CBF100010846FBF722
:10562000EFF84FF08F410090FAF724FF814601A870
:10563000005D68B321490868FBF7EBF883465946DB
:105640001F48FAF717FF804604E01E494046FAF764
:10565000DFFE804601A8005D401EC0B201A90855CA
:105660000028F2D141464846FAF704FF83464FF03E
:105670007E51FAF7C7FE82462AF0004B0F48816937
:105680005846FBF731F912D20120A04005430EE045
:105690000A4801694846FBF71DF905D307484169E7
:1056A0004846FBF721F902D20120A0400543641CC3
:1056B000032CA6DB28468EE7AC020020B88A00083F
:1056C00000B04C4554E3853F70B5044688184E4AF7
:1056D00080180246154646E023785B1965782D024E
:1056E000EB18A5782D04EB18E5782D06EE18237934
:1056F0009A1863791B029A18A3791B049A18E37904
:105700001B069B18227A1018627A12021018A27ACD
:1057100012041018E27A12061518701B1C262A466D
:10572000F24142401046ED181B1A1A26F2415A4027
:1057300013464019ED1A1826F2416A4015461B1807
:10574000401B1026F2414240EE1810461B1A0D2550
:10575000EA4153408519F21A18461C26F041504080
:105760005A190C390C340C29B6D80B00FDF7C8FABD
:105770000D4A2724211E1C191613110E0B0829008F
:10578000E17A09060818A17A09040818617A090261
:105790000818217A0818E17909068A18A1790904FC
:1057A0008A18617909028A1821798A18E17809062C
:1057B0004D19A17809044D19617809024D19217814
:1057C0004D1912231146D9415040411A152308465C
:1057D0004D40D841281A07240346E3414240D21ADB
:1057E00010241346E3415140C91A1C240B4648407B
:1057F000E341C01A42401223D841101A4140082206
:10580000D041081A70BD0000EFBEADDE10B50446F1
:1058100000F004F8606800F079FC10BD70B5054632
:105820000C35046908E06668A068241F00F0E7F9F9
:10583000204600F06BFC3446AC42F4D170BDF8B5A4
:105840000446406800F062FCA1680126491C30460D
:105850008840A1600090C00000F060FC60600028FB
:1058600003D0002025460C3509E00020C043F8BDD8
:10587000C10062680B1DD5506268401C5550227AE9
:10588000314691408142F3D822696D602D600DE070
:10589000171F566838680099FAF766FC6068C900F7
:1058A00041183A1D204600F0D1F83246AA42EFD105
:1058B0000020F8BDFFB581B01F460E46FEF7F0FA96
:1058C000002813D13468251F2868B84206D128461D
:1058D00014300399FAF720FD002804D07068A04224
:1058E00004D06468EFE7284605B0F0BD0020FBE770
:1058F00070B504460D460846FAF707FD0B490A68DD
:1059000001462846FFF7E0FE237A01219940491E0F
:1059100001406268C900511803462A462046FFF735
:10592000C9FF002800D0C06870BD0000040300203B
:1059300070B50446002020600320A060402000F0E5
:10594000EDFB6060002806D020460C30206100216D
:105950000123E06009E00020C04370BDCA00656813
:10596000161DA8516568491CA850257A1A46AA40F8
:105970008A42F3D8002070BD00B501460C3100F01A
:1059800003F800BD10307047024648680C32904260
:1059900000D100207047C0687047806870470000E1
:1059A000FFB50546027A012401682046904081B087
:1059B0001F46814204D32846FFF741FF002840D10B
:1059C0000298FAF7A2FC20490A6801460298FFF7FC
:1059D0007BFE0646287A33468440641E344068685D
:1059E000E1004018009001462846029AFFF762FF46
:1059F000040004D0E06800F002F9E7601EE00298BD
:105A0000FAF783FC1521C8421BD2153000F086FB43
:105A1000040016D0266003982061204614300299B5
:105A2000FAF795FC201DA060E7606060221D284603
:105A3000009900F00BF82868401C2860002005B091
:105A4000F0BD0020C043FAE70403002070B51546FE
:105A50000C460646FEF724FA002806D030462946B2
:105A60000C3000F083FB656003E02946206800F0FD
:105A70007DFB256070BD10B50446204600F00FF890
:105A80000346E01C00F00BF843EAC00083B2A01DFF
:105A900000F005F843EA801083B2184610BD0146B5
:105AA00091F90020002A01DD00201EE091F900207C
:105AB000002A01DA042018E091F90120002A01DD12
:105AC000012012E091F90120002A01DA05200CE002
:105AD00091F90220002A01DD022006E091F902205E
